{"abi":[{"inputs":[{"internalType":"uint256","name":"_minimumBet","type":"uint256"},{"internalType":"uint256","name":"_maximumBet","type":"uint256"}],"payable":false,"stateMutability":"nonpayable","type":"constructor"},{"payable":true,"stateMutability":"payable","type":"fallback"},{"constant":false,"inputs":[],"name":"forceReceiveMoney","outputs":[],"payable":false,"stateMutability":"nonpayable","type":"function"},{"constant":true,"inputs":[],"name":"gameId","outputs":[{"internalType":"uint256","name":"","type":"uint256"}],"payable":false,"stateMutability":"view","type":"function"},{"constant":false,"inputs":[],"name":"getAllRequiredMoney","outputs":[],"payable":false,"stateMutability":"nonpayable","type":"function"},{"constant":true,"inputs":[],"name":"getContractBalance","outputs":[{"internalType":"uint256","name":"","type":"uint256"}],"payable":false,"stateMutability":"view","type":"function"},{"constant":true,"inputs":[{"internalType":"uint256","name":"id","type":"uint256"}],"name":"getGameById","outputs":[{"internalType":"uint256","name":"","type":"uint256"},{"internalType":"uint256","name":"","type":"uint256"},{"internalType":"uint256","name":"","type":"uint256"},{"internalType":"uint256","name":"","type":"uint256"},{"internalType":"uint256","name":"","type":"uint256"},{"internalType":"uint256","name":"","type":"uint256"},{"internalType":"bool","name":"","type":"bool"}],"payable":false,"stateMutability":"view","type":"function"},{"constant":true,"inputs":[],"name":"getMustHaveBalance","outputs":[{"internalType":"uint256","name":"","type":"uint256"}],"payable":false,"stateMutability":"view","type":"function"},{"constant":true,"inputs":[],"name":"manager","outputs":[{"internalType":"address","name":"","type":"address"}],"payable":false,"stateMutability":"view","type":"function"},{"constant":true,"inputs":[],"name":"needTransferMoney","outputs":[{"internalType":"bool","name":"","type":"bool"}],"payable":false,"stateMutability":"view","type":"function"},{"constant":false,"inputs":[{"internalType":"uint8","name":"dice1","type":"uint8"},{"internalType":"uint8","name":"dice2","type":"uint8"}],"name":"newGame","outputs":[],"payable":false,"stateMutability":"nonpayable","type":"function"},{"constant":true,"inputs":[],"name":"nextGameMaximumBet","outputs":[{"internalType":"uint256","name":"","type":"uint256"}],"payable":false,"stateMutability":"view","type":"function"},{"constant":true,"inputs":[],"name":"nextGameMinimumBet","outputs":[{"internalType":"uint256","name":"","type":"uint256"}],"payable":false,"stateMutability":"view","type":"function"},{"constant":true,"inputs":[],"name":"prevGameStartTime","outputs":[{"internalType":"uint256","name":"","type":"uint256"}],"payable":false,"stateMutability":"view","type":"function"},{"constant":false,"inputs":[{"internalType":"uint256","name":"_gameId","type":"uint256"},{"internalType":"string","name":"password","type":"string"}],"name":"receiveMoney","outputs":[],"payable":false,"stateMutability":"nonpayable","type":"function"},{"constant":false,"inputs":[{"internalType":"uint256","name":"_nextGameMaximumBet","type":"uint256"}],"name":"setNextGameMaximumBet","outputs":[],"payable":false,"stateMutability":"nonpayable","type":"function"},{"constant":false,"inputs":[{"internalType":"uint256","name":"_nextGameMinimumBet","type":"uint256"}],"name":"setNextGameMinimumBet","outputs":[],"payable":false,"stateMutability":"nonpayable","type":"function"},{"constant":false,"inputs":[{"internalType":"bytes32","name":"playerHash","type":"bytes32"}],"name":"setUserBetAndHash","outputs":[],"payable":true,"stateMutability":"payable","type":"function"},{"constant":false,"inputs":[{"internalType":"uint256","name":"_money","type":"uint256"}],"name":"transferMoneyToServer","outputs":[],"payable":false,"stateMutability":"nonpayable","type":"function"}],"devdoc":{"methods":{}},"evm":{"assembly":"    /* \"diceGame.sol\":28:7999  contract DiceGame {\r... */\n  mstore(0x40, 0x80)\n    /* \"diceGame.sol\":248:249  0 */\n  0x00\n    /* \"diceGame.sol\":217:249  uint private mustHaveBalance = 0 */\n  0x05\n  sstore\n    /* \"diceGame.sol\":1369:1744  constructor(uint _minimumBet, uint _maximumBet) public canSetMinOrMaxBet(_minimumBet, _maximumBet) {\r... */\n  callvalue\n    /* \"--CODEGEN--\":8:17   */\n  dup1\n    /* \"--CODEGEN--\":5:7   */\n  iszero\n  tag_1\n  jumpi\n    /* \"--CODEGEN--\":30:31   */\n  0x00\n    /* \"--CODEGEN--\":27:28   */\n  dup1\n    /* \"--CODEGEN--\":20:32   */\n  revert\n    /* \"--CODEGEN--\":5:7   */\ntag_1:\n    /* \"diceGame.sol\":1369:1744  constructor(uint _minimumBet, uint _maximumBet) public canSetMinOrMaxBet(_minimumBet, _maximumBet) {\r... */\n  pop\n  mload(0x40)\n  sub(codesize, bytecodeSize)\n  dup1\n  bytecodeSize\n  dup4\n  codecopy\n  dup2\n  dup2\n  add\n  0x40\n  mstore\n    /* \"--CODEGEN--\":13:15   */\n  0x40\n    /* \"--CODEGEN--\":8:11   */\n  dup2\n    /* \"--CODEGEN--\":5:16   */\n  lt\n    /* \"--CODEGEN--\":2:4   */\n  iszero\n  tag_2\n  jumpi\n    /* \"--CODEGEN--\":29:30   */\n  0x00\n    /* \"--CODEGEN--\":26:27   */\n  dup1\n    /* \"--CODEGEN--\":19:31   */\n  revert\n    /* \"--CODEGEN--\":2:4   */\ntag_2:\n    /* \"diceGame.sol\":1369:1744  constructor(uint _minimumBet, uint _maximumBet) public canSetMinOrMaxBet(_minimumBet, _maximumBet) {\r... */\n  dup2\n  add\n  swap1\n  dup1\n  dup1\n  mload\n  swap1\n  0x20\n  add\n  swap1\n  swap3\n  swap2\n  swap1\n  dup1\n  mload\n  swap1\n  0x20\n  add\n  swap1\n  swap3\n  swap2\n  swap1\n  pop\n  pop\n  pop\n    /* \"diceGame.sol\":1442:1453  _minimumBet */\n  dup2\n    /* \"diceGame.sol\":1455:1466  _maximumBet */\n  dup2\n    /* \"diceGame.sol\":1239:1250  _maximumBet */\n  dup1\n    /* \"diceGame.sol\":1224:1235  _minimumBet */\n  dup3\n    /* \"diceGame.sol\":1224:1250  _minimumBet <= _maximumBet */\n  gt\n  iszero\n    /* \"diceGame.sol\":1216:1316  require(_minimumBet <= _maximumBet, \"You cannot set bet because maximumBet is less than minimumBet\") */\n  tag_5\n  jumpi\n  mload(0x40)\n  0x08c379a000000000000000000000000000000000000000000000000000000000\n  dup2\n  mstore\n  0x04\n  add\n  dup1\n  dup1\n  0x20\n  add\n  dup3\n  dup2\n  sub\n  dup3\n  mstore\n  0x3d\n  dup2\n  mstore\n  0x20\n  add\n  dup1\n  data_1b0fbdaba0a5cd5179f1bef884ca08aa1593dc2a56a4788c760ffc5b014d6cd7\n  0x3d\n  swap2\n  codecopy\n  0x40\n  add\n  swap2\n  pop\n  pop\n  mload(0x40)\n  dup1\n  swap2\n  sub\n  swap1\n  revert\ntag_5:\n    /* \"diceGame.sol\":1488:1489  1 */\n  0x01\n    /* \"diceGame.sol\":1479:1485  gameId */\n  dup1\n    /* \"diceGame.sol\":1479:1489  gameId = 1 */\n  dup2\n  swap1\n  sstore\n  pop\n    /* \"diceGame.sol\":1510:1520  msg.sender */\n  caller\n    /* \"diceGame.sol\":1500:1507  manager */\n  0x00\n  dup1\n    /* \"diceGame.sol\":1500:1520  manager = msg.sender */\n  0x0100\n  exp\n  dup2\n  sload\n  dup2\n  0xffffffffffffffffffffffffffffffffffffffff\n  mul\n  not\n  and\n  swap1\n  dup4\n  0xffffffffffffffffffffffffffffffffffffffff\n  and\n  mul\n  or\n  swap1\n  sstore\n  pop\n    /* \"diceGame.sol\":1557:1568  _minimumBet */\n  dup4\n    /* \"diceGame.sol\":1531:1535  game */\n  0x06\n    /* \"diceGame.sol\":1531:1543  game[gameId] */\n  0x00\n    /* \"diceGame.sol\":1536:1542  gameId */\n  sload(0x01)\n    /* \"diceGame.sol\":1531:1543  game[gameId] */\n  dup2\n  mstore\n  0x20\n  add\n  swap1\n  dup2\n  mstore\n  0x20\n  add\n  0x00\n  keccak256\n    /* \"diceGame.sol\":1531:1554  game[gameId].minimumBet */\n  0x05\n  add\n    /* \"diceGame.sol\":1531:1568  game[gameId].minimumBet = _minimumBet */\n  dup2\n  swap1\n  sstore\n  pop\n    /* \"diceGame.sol\":1605:1616  _maximumBet */\n  dup3\n    /* \"diceGame.sol\":1579:1583  game */\n  0x06\n    /* \"diceGame.sol\":1579:1591  game[gameId] */\n  0x00\n    /* \"diceGame.sol\":1584:1590  gameId */\n  sload(0x01)\n    /* \"diceGame.sol\":1579:1591  game[gameId] */\n  dup2\n  mstore\n  0x20\n  add\n  swap1\n  dup2\n  mstore\n  0x20\n  add\n  0x00\n  keccak256\n    /* \"diceGame.sol\":1579:1602  game[gameId].maximumBet */\n  0x06\n  add\n    /* \"diceGame.sol\":1579:1616  game[gameId].maximumBet = _maximumBet */\n  dup2\n  swap1\n  sstore\n  pop\n    /* \"diceGame.sol\":1648:1659  _minimumBet */\n  dup4\n    /* \"diceGame.sol\":1627:1645  nextGameMinimumBet */\n  0x02\n    /* \"diceGame.sol\":1627:1659  nextGameMinimumBet = _minimumBet */\n  dup2\n  swap1\n  sstore\n  pop\n    /* \"diceGame.sol\":1691:1702  _maximumBet */\n  dup3\n    /* \"diceGame.sol\":1670:1688  nextGameMaximumBet */\n  0x03\n    /* \"diceGame.sol\":1670:1702  nextGameMaximumBet = _maximumBet */\n  dup2\n  swap1\n  sstore\n  pop\n    /* \"diceGame.sol\":1733:1736  now */\n  timestamp\n    /* \"diceGame.sol\":1713:1730  prevGameStartTime */\n  0x04\n    /* \"diceGame.sol\":1713:1736  prevGameStartTime = now */\n  dup2\n  swap1\n  sstore\n  pop\n    /* \"diceGame.sol\":1369:1744  constructor(uint _minimumBet, uint _maximumBet) public canSetMinOrMaxBet(_minimumBet, _maximumBet) {\r... */\n  pop\n  pop\n  pop\n  pop\n    /* \"diceGame.sol\":28:7999  contract DiceGame {\r... */\n  dataSize(sub_0)\n  dup1\n  dataOffset(sub_0)\n  0x00\n  codecopy\n  0x00\n  return\nstop\ndata_1b0fbdaba0a5cd5179f1bef884ca08aa1593dc2a56a4788c760ffc5b014d6cd7 596f752063616e6e6f7420736574206265742062656361757365206d6178696d756d426574206973206c657373207468616e206d696e696d756d426574\n\nsub_0: assembly {\n        /* \"diceGame.sol\":28:7999  contract DiceGame {\r... */\n      mstore(0x40, 0x80)\n      jumpi(tag_1, lt(calldatasize, 0x04))\n      shr(0xe0, calldataload(0x00))\n      dup1\n      0x6f9fb98a\n      gt\n      tag_19\n      jumpi\n      dup1\n      0xc9094bc5\n      gt\n      tag_20\n      jumpi\n      dup1\n      0xc9094bc5\n      eq\n      tag_14\n      jumpi\n      dup1\n      0xd1bea628\n      eq\n      tag_15\n      jumpi\n      dup1\n      0xd65d8666\n      eq\n      tag_16\n      jumpi\n      dup1\n      0xd7c81b55\n      eq\n      tag_17\n      jumpi\n      dup1\n      0xdce04fc1\n      eq\n      tag_18\n      jumpi\n      jump(tag_1)\n    tag_20:\n      dup1\n      0x6f9fb98a\n      eq\n      tag_10\n      jumpi\n      dup1\n      0x84c221bc\n      eq\n      tag_11\n      jumpi\n      dup1\n      0x84fba3d5\n      eq\n      tag_12\n      jumpi\n      dup1\n      0xb252900f\n      eq\n      tag_13\n      jumpi\n      jump(tag_1)\n    tag_19:\n      dup1\n      0x29946f8e\n      gt\n      tag_21\n      jumpi\n      dup1\n      0x29946f8e\n      eq\n      tag_6\n      jumpi\n      dup1\n      0x2cff8578\n      eq\n      tag_7\n      jumpi\n      dup1\n      0x481c6a75\n      eq\n      tag_8\n      jumpi\n      dup1\n      0x5018acb9\n      eq\n      tag_9\n      jumpi\n      jump(tag_1)\n    tag_21:\n      dup1\n      0x01882767\n      eq\n      tag_2\n      jumpi\n      dup1\n      0x026898a0\n      eq\n      tag_3\n      jumpi\n      dup1\n      0x09660513\n      eq\n      tag_4\n      jumpi\n      dup1\n      0x0d0aa44a\n      eq\n      tag_5\n      jumpi\n    tag_1:\n      stop\n        /* \"diceGame.sol\":181:210  uint public prevGameStartTime */\n    tag_2:\n      callvalue\n        /* \"--CODEGEN--\":8:17   */\n      dup1\n        /* \"--CODEGEN--\":5:7   */\n      iszero\n      tag_24\n      jumpi\n        /* \"--CODEGEN--\":30:31   */\n      0x00\n        /* \"--CODEGEN--\":27:28   */\n      dup1\n        /* \"--CODEGEN--\":20:32   */\n      revert\n        /* \"--CODEGEN--\":5:7   */\n    tag_24:\n        /* \"diceGame.sol\":181:210  uint public prevGameStartTime */\n      pop\n      tag_25\n      tag_26\n      jump\t// in\n    tag_25:\n      mload(0x40)\n      dup1\n      dup3\n      dup2\n      mstore\n      0x20\n      add\n      swap2\n      pop\n      pop\n      mload(0x40)\n      dup1\n      swap2\n      sub\n      swap1\n      return\n        /* \"diceGame.sol\":4136:5094  function receiveMoney(uint _gameId, string memory password) public {\r... */\n    tag_3:\n      callvalue\n        /* \"--CODEGEN--\":8:17   */\n      dup1\n        /* \"--CODEGEN--\":5:7   */\n      iszero\n      tag_27\n      jumpi\n        /* \"--CODEGEN--\":30:31   */\n      0x00\n        /* \"--CODEGEN--\":27:28   */\n      dup1\n        /* \"--CODEGEN--\":20:32   */\n      revert\n        /* \"--CODEGEN--\":5:7   */\n    tag_27:\n        /* \"diceGame.sol\":4136:5094  function receiveMoney(uint _gameId, string memory password) public {\r... */\n      pop\n      tag_28\n      0x04\n      dup1\n      calldatasize\n      sub\n        /* \"--CODEGEN--\":13:15   */\n      0x40\n        /* \"--CODEGEN--\":8:11   */\n      dup2\n        /* \"--CODEGEN--\":5:16   */\n      lt\n        /* \"--CODEGEN--\":2:4   */\n      iszero\n      tag_29\n      jumpi\n        /* \"--CODEGEN--\":29:30   */\n      0x00\n        /* \"--CODEGEN--\":26:27   */\n      dup1\n        /* \"--CODEGEN--\":19:31   */\n      revert\n        /* \"--CODEGEN--\":2:4   */\n    tag_29:\n        /* \"diceGame.sol\":4136:5094  function receiveMoney(uint _gameId, string memory password) public {\r... */\n      dup2\n      add\n      swap1\n      dup1\n      dup1\n      calldataload\n      swap1\n      0x20\n      add\n      swap1\n      swap3\n      swap2\n      swap1\n      dup1\n      calldataload\n      swap1\n      0x20\n      add\n      swap1\n        /* \"--CODEGEN--\":21:32   */\n      0x0100000000\n        /* \"--CODEGEN--\":8:19   */\n      dup2\n        /* \"--CODEGEN--\":5:33   */\n      gt\n        /* \"--CODEGEN--\":2:4   */\n      iszero\n      tag_30\n      jumpi\n        /* \"--CODEGEN--\":46:47   */\n      0x00\n        /* \"--CODEGEN--\":43:44   */\n      dup1\n        /* \"--CODEGEN--\":36:48   */\n      revert\n        /* \"--CODEGEN--\":2:4   */\n    tag_30:\n        /* \"diceGame.sol\":4136:5094  function receiveMoney(uint _gameId, string memory password) public {\r... */\n      dup3\n      add\n        /* \"--CODEGEN--\":35:44   */\n      dup4\n        /* \"--CODEGEN--\":28:32   */\n      0x20\n        /* \"--CODEGEN--\":12:26   */\n      dup3\n        /* \"--CODEGEN--\":8:33   */\n      add\n        /* \"--CODEGEN--\":5:45   */\n      gt\n        /* \"--CODEGEN--\":2:4   */\n      iszero\n      tag_31\n      jumpi\n        /* \"--CODEGEN--\":58:59   */\n      0x00\n        /* \"--CODEGEN--\":55:56   */\n      dup1\n        /* \"--CODEGEN--\":48:60   */\n      revert\n        /* \"--CODEGEN--\":2:4   */\n    tag_31:\n        /* \"diceGame.sol\":4136:5094  function receiveMoney(uint _gameId, string memory password) public {\r... */\n      dup1\n      calldataload\n      swap1\n      0x20\n      add\n      swap2\n        /* \"--CODEGEN--\":100:109   */\n      dup5\n        /* \"--CODEGEN--\":95:96   */\n      0x01\n        /* \"--CODEGEN--\":81:93   */\n      dup4\n        /* \"--CODEGEN--\":77:97   */\n      mul\n        /* \"--CODEGEN--\":67:75   */\n      dup5\n        /* \"--CODEGEN--\":63:98   */\n      add\n        /* \"--CODEGEN--\":60:110   */\n      gt\n        /* \"--CODEGEN--\":39:50   */\n      0x0100000000\n        /* \"--CODEGEN--\":25:37   */\n      dup4\n        /* \"--CODEGEN--\":22:51   */\n      gt\n        /* \"--CODEGEN--\":11:118   */\n      or\n        /* \"--CODEGEN--\":8:10   */\n      iszero\n      tag_32\n      jumpi\n        /* \"--CODEGEN--\":131:132   */\n      0x00\n        /* \"--CODEGEN--\":128:129   */\n      dup1\n        /* \"--CODEGEN--\":121:133   */\n      revert\n        /* \"--CODEGEN--\":8:10   */\n    tag_32:\n        /* \"diceGame.sol\":4136:5094  function receiveMoney(uint _gameId, string memory password) public {\r... */\n      swap2\n      swap1\n      dup1\n      dup1\n      0x1f\n      add\n      0x20\n      dup1\n      swap2\n      div\n      mul\n      0x20\n      add\n      mload(0x40)\n      swap1\n      dup2\n      add\n      0x40\n      mstore\n      dup1\n      swap4\n      swap3\n      swap2\n      swap1\n      dup2\n      dup2\n      mstore\n      0x20\n      add\n      dup4\n      dup4\n        /* \"--CODEGEN--\":30:33   */\n      dup1\n        /* \"--CODEGEN--\":22:28   */\n      dup3\n        /* \"--CODEGEN--\":14:20   */\n      dup5\n        /* \"--CODEGEN--\":1:34   */\n      calldatacopy\n        /* \"--CODEGEN--\":99:100   */\n      0x00\n        /* \"--CODEGEN--\":93:96   */\n      dup2\n        /* \"--CODEGEN--\":85:91   */\n      dup5\n        /* \"--CODEGEN--\":81:97   */\n      add\n        /* \"--CODEGEN--\":74:101   */\n      mstore\n        /* \"--CODEGEN--\":137:141   */\n      0x1f\n        /* \"--CODEGEN--\":133:142   */\n      not\n        /* \"--CODEGEN--\":126:130   */\n      0x1f\n        /* \"--CODEGEN--\":121:124   */\n      dup3\n        /* \"--CODEGEN--\":117:131   */\n      add\n        /* \"--CODEGEN--\":113:143   */\n      and\n        /* \"--CODEGEN--\":106:143   */\n      swap1\n      pop\n        /* \"--CODEGEN--\":169:172   */\n      dup1\n        /* \"--CODEGEN--\":161:167   */\n      dup4\n        /* \"--CODEGEN--\":157:173   */\n      add\n        /* \"--CODEGEN--\":147:173   */\n      swap3\n      pop\n        /* \"diceGame.sol\":4136:5094  function receiveMoney(uint _gameId, string memory password) public {\r... */\n      pop\n      pop\n      pop\n      pop\n      pop\n      pop\n      swap2\n      swap3\n      swap2\n      swap3\n      swap1\n      pop\n      pop\n      pop\n      tag_33\n      jump\t// in\n    tag_28:\n      stop\n        /* \"diceGame.sol\":7444:7909  function getGameById(uint id) external view returns (uint, uint, uint, uint, uint, uint, bool) {\r... */\n    tag_4:\n      callvalue\n        /* \"--CODEGEN--\":8:17   */\n      dup1\n        /* \"--CODEGEN--\":5:7   */\n      iszero\n      tag_34\n      jumpi\n        /* \"--CODEGEN--\":30:31   */\n      0x00\n        /* \"--CODEGEN--\":27:28   */\n      dup1\n        /* \"--CODEGEN--\":20:32   */\n      revert\n        /* \"--CODEGEN--\":5:7   */\n    tag_34:\n        /* \"diceGame.sol\":7444:7909  function getGameById(uint id) external view returns (uint, uint, uint, uint, uint, uint, bool) {\r... */\n      pop\n      tag_35\n      0x04\n      dup1\n      calldatasize\n      sub\n        /* \"--CODEGEN--\":13:15   */\n      0x20\n        /* \"--CODEGEN--\":8:11   */\n      dup2\n        /* \"--CODEGEN--\":5:16   */\n      lt\n        /* \"--CODEGEN--\":2:4   */\n      iszero\n      tag_36\n      jumpi\n        /* \"--CODEGEN--\":29:30   */\n      0x00\n        /* \"--CODEGEN--\":26:27   */\n      dup1\n        /* \"--CODEGEN--\":19:31   */\n      revert\n        /* \"--CODEGEN--\":2:4   */\n    tag_36:\n        /* \"diceGame.sol\":7444:7909  function getGameById(uint id) external view returns (uint, uint, uint, uint, uint, uint, bool) {\r... */\n      dup2\n      add\n      swap1\n      dup1\n      dup1\n      calldataload\n      swap1\n      0x20\n      add\n      swap1\n      swap3\n      swap2\n      swap1\n      pop\n      pop\n      pop\n      tag_37\n      jump\t// in\n    tag_35:\n      mload(0x40)\n      dup1\n      dup9\n      dup2\n      mstore\n      0x20\n      add\n      dup8\n      dup2\n      mstore\n      0x20\n      add\n      dup7\n      dup2\n      mstore\n      0x20\n      add\n      dup6\n      dup2\n      mstore\n      0x20\n      add\n      dup5\n      dup2\n      mstore\n      0x20\n      add\n      dup4\n      dup2\n      mstore\n      0x20\n      add\n      dup3\n      iszero\n      iszero\n      iszero\n      iszero\n      dup2\n      mstore\n      0x20\n      add\n      swap8\n      pop\n      pop\n      pop\n      pop\n      pop\n      pop\n      pop\n      pop\n      mload(0x40)\n      dup1\n      swap2\n      sub\n      swap1\n      return\n        /* \"diceGame.sol\":3179:4071  function setUserBetAndHash(bytes32 playerHash) external payable {\r... */\n    tag_5:\n      tag_38\n      0x04\n      dup1\n      calldatasize\n      sub\n        /* \"--CODEGEN--\":13:15   */\n      0x20\n        /* \"--CODEGEN--\":8:11   */\n      dup2\n        /* \"--CODEGEN--\":5:16   */\n      lt\n        /* \"--CODEGEN--\":2:4   */\n      iszero\n      tag_39\n      jumpi\n        /* \"--CODEGEN--\":29:30   */\n      0x00\n        /* \"--CODEGEN--\":26:27   */\n      dup1\n        /* \"--CODEGEN--\":19:31   */\n      revert\n        /* \"--CODEGEN--\":2:4   */\n    tag_39:\n        /* \"diceGame.sol\":3179:4071  function setUserBetAndHash(bytes32 playerHash) external payable {\r... */\n      dup2\n      add\n      swap1\n      dup1\n      dup1\n      calldataload\n      swap1\n      0x20\n      add\n      swap1\n      swap3\n      swap2\n      swap1\n      pop\n      pop\n      pop\n      tag_40\n      jump\t// in\n    tag_38:\n      stop\n        /* \"diceGame.sol\":2486:3103  function newGame(uint8 dice1, uint8 dice2) external isManager between1and6(dice1, dice2) {\r... */\n    tag_6:\n      callvalue\n        /* \"--CODEGEN--\":8:17   */\n      dup1\n        /* \"--CODEGEN--\":5:7   */\n      iszero\n      tag_41\n      jumpi\n        /* \"--CODEGEN--\":30:31   */\n      0x00\n        /* \"--CODEGEN--\":27:28   */\n      dup1\n        /* \"--CODEGEN--\":20:32   */\n      revert\n        /* \"--CODEGEN--\":5:7   */\n    tag_41:\n        /* \"diceGame.sol\":2486:3103  function newGame(uint8 dice1, uint8 dice2) external isManager between1and6(dice1, dice2) {\r... */\n      pop\n      tag_42\n      0x04\n      dup1\n      calldatasize\n      sub\n        /* \"--CODEGEN--\":13:15   */\n      0x40\n        /* \"--CODEGEN--\":8:11   */\n      dup2\n        /* \"--CODEGEN--\":5:16   */\n      lt\n        /* \"--CODEGEN--\":2:4   */\n      iszero\n      tag_43\n      jumpi\n        /* \"--CODEGEN--\":29:30   */\n      0x00\n        /* \"--CODEGEN--\":26:27   */\n      dup1\n        /* \"--CODEGEN--\":19:31   */\n      revert\n        /* \"--CODEGEN--\":2:4   */\n    tag_43:\n        /* \"diceGame.sol\":2486:3103  function newGame(uint8 dice1, uint8 dice2) external isManager between1and6(dice1, dice2) {\r... */\n      dup2\n      add\n      swap1\n      dup1\n      dup1\n      calldataload\n      0xff\n      and\n      swap1\n      0x20\n      add\n      swap1\n      swap3\n      swap2\n      swap1\n      dup1\n      calldataload\n      0xff\n      and\n      swap1\n      0x20\n      add\n      swap1\n      swap3\n      swap2\n      swap1\n      pop\n      pop\n      pop\n      tag_44\n      jump\t// in\n    tag_42:\n      stop\n        /* \"diceGame.sol\":7231:7398  function needTransferMoney() external view isManager returns (bool) {\r... */\n    tag_7:\n      callvalue\n        /* \"--CODEGEN--\":8:17   */\n      dup1\n        /* \"--CODEGEN--\":5:7   */\n      iszero\n      tag_45\n      jumpi\n        /* \"--CODEGEN--\":30:31   */\n      0x00\n        /* \"--CODEGEN--\":27:28   */\n      dup1\n        /* \"--CODEGEN--\":20:32   */\n      revert\n        /* \"--CODEGEN--\":5:7   */\n    tag_45:\n        /* \"diceGame.sol\":7231:7398  function needTransferMoney() external view isManager returns (bool) {\r... */\n      pop\n      tag_46\n      tag_47\n      jump\t// in\n    tag_46:\n      mload(0x40)\n      dup1\n      dup3\n      iszero\n      iszero\n      iszero\n      iszero\n      dup2\n      mstore\n      0x20\n      add\n      swap2\n      pop\n      pop\n      mload(0x40)\n      dup1\n      swap2\n      sub\n      swap1\n      return\n        /* \"diceGame.sol\":53:75  address public manager */\n    tag_8:\n      callvalue\n        /* \"--CODEGEN--\":8:17   */\n      dup1\n        /* \"--CODEGEN--\":5:7   */\n      iszero\n      tag_48\n      jumpi\n        /* \"--CODEGEN--\":30:31   */\n      0x00\n        /* \"--CODEGEN--\":27:28   */\n      dup1\n        /* \"--CODEGEN--\":20:32   */\n      revert\n        /* \"--CODEGEN--\":5:7   */\n    tag_48:\n        /* \"diceGame.sol\":53:75  address public manager */\n      pop\n      tag_49\n      tag_50\n      jump\t// in\n    tag_49:\n      mload(0x40)\n      dup1\n      dup3\n      0xffffffffffffffffffffffffffffffffffffffff\n      and\n      0xffffffffffffffffffffffffffffffffffffffff\n      and\n      dup2\n      mstore\n      0x20\n      add\n      swap2\n      pop\n      pop\n      mload(0x40)\n      dup1\n      swap2\n      sub\n      swap1\n      return\n        /* \"diceGame.sol\":5147:5840  function forceReceiveMoney() external {\r... */\n    tag_9:\n      callvalue\n        /* \"--CODEGEN--\":8:17   */\n      dup1\n        /* \"--CODEGEN--\":5:7   */\n      iszero\n      tag_51\n      jumpi\n        /* \"--CODEGEN--\":30:31   */\n      0x00\n        /* \"--CODEGEN--\":27:28   */\n      dup1\n        /* \"--CODEGEN--\":20:32   */\n      revert\n        /* \"--CODEGEN--\":5:7   */\n    tag_51:\n        /* \"diceGame.sol\":5147:5840  function forceReceiveMoney() external {\r... */\n      pop\n      tag_52\n      tag_53\n      jump\t// in\n    tag_52:\n      stop\n        /* \"diceGame.sol\":6915:7031  function getContractBalance() external view isManager returns (uint) {\r... */\n    tag_10:\n      callvalue\n        /* \"--CODEGEN--\":8:17   */\n      dup1\n        /* \"--CODEGEN--\":5:7   */\n      iszero\n      tag_54\n      jumpi\n        /* \"--CODEGEN--\":30:31   */\n      0x00\n        /* \"--CODEGEN--\":27:28   */\n      dup1\n        /* \"--CODEGEN--\":20:32   */\n      revert\n        /* \"--CODEGEN--\":5:7   */\n    tag_54:\n        /* \"diceGame.sol\":6915:7031  function getContractBalance() external view isManager returns (uint) {\r... */\n      pop\n      tag_55\n      tag_56\n      jump\t// in\n    tag_55:\n      mload(0x40)\n      dup1\n      dup3\n      dup2\n      mstore\n      0x20\n      add\n      swap2\n      pop\n      pop\n      mload(0x40)\n      dup1\n      swap2\n      sub\n      swap1\n      return\n        /* \"diceGame.sol\":144:174  uint public nextGameMaximumBet */\n    tag_11:\n      callvalue\n        /* \"--CODEGEN--\":8:17   */\n      dup1\n        /* \"--CODEGEN--\":5:7   */\n      iszero\n      tag_57\n      jumpi\n        /* \"--CODEGEN--\":30:31   */\n      0x00\n        /* \"--CODEGEN--\":27:28   */\n      dup1\n        /* \"--CODEGEN--\":20:32   */\n      revert\n        /* \"--CODEGEN--\":5:7   */\n    tag_57:\n        /* \"diceGame.sol\":144:174  uint public nextGameMaximumBet */\n      pop\n      tag_58\n      tag_59\n      jump\t// in\n    tag_58:\n      mload(0x40)\n      dup1\n      dup3\n      dup2\n      mstore\n      0x20\n      add\n      swap2\n      pop\n      pop\n      mload(0x40)\n      dup1\n      swap2\n      sub\n      swap1\n      return\n        /* \"diceGame.sol\":107:137  uint public nextGameMinimumBet */\n    tag_12:\n      callvalue\n        /* \"--CODEGEN--\":8:17   */\n      dup1\n        /* \"--CODEGEN--\":5:7   */\n      iszero\n      tag_60\n      jumpi\n        /* \"--CODEGEN--\":30:31   */\n      0x00\n        /* \"--CODEGEN--\":27:28   */\n      dup1\n        /* \"--CODEGEN--\":20:32   */\n      revert\n        /* \"--CODEGEN--\":5:7   */\n    tag_60:\n        /* \"diceGame.sol\":107:137  uint public nextGameMinimumBet */\n      pop\n      tag_61\n      tag_62\n      jump\t// in\n    tag_61:\n      mload(0x40)\n      dup1\n      dup3\n      dup2\n      mstore\n      0x20\n      add\n      swap2\n      pop\n      pop\n      mload(0x40)\n      dup1\n      swap2\n      sub\n      swap1\n      return\n        /* \"diceGame.sol\":2211:2454  function getAllRequiredMoney() isManager external {\r... */\n    tag_13:\n      callvalue\n        /* \"--CODEGEN--\":8:17   */\n      dup1\n        /* \"--CODEGEN--\":5:7   */\n      iszero\n      tag_63\n      jumpi\n        /* \"--CODEGEN--\":30:31   */\n      0x00\n        /* \"--CODEGEN--\":27:28   */\n      dup1\n        /* \"--CODEGEN--\":20:32   */\n      revert\n        /* \"--CODEGEN--\":5:7   */\n    tag_63:\n        /* \"diceGame.sol\":2211:2454  function getAllRequiredMoney() isManager external {\r... */\n      pop\n      tag_64\n      tag_65\n      jump\t// in\n    tag_64:\n      stop\n        /* \"diceGame.sol\":6435:6629  function setNextGameMinimumBet(uint _nextGameMinimumBet) external isManager canSetMinOrMaxBet(_nextGameMinimumBet, nextGameMaximumBet) {\r... */\n    tag_14:\n      callvalue\n        /* \"--CODEGEN--\":8:17   */\n      dup1\n        /* \"--CODEGEN--\":5:7   */\n      iszero\n      tag_66\n      jumpi\n        /* \"--CODEGEN--\":30:31   */\n      0x00\n        /* \"--CODEGEN--\":27:28   */\n      dup1\n        /* \"--CODEGEN--\":20:32   */\n      revert\n        /* \"--CODEGEN--\":5:7   */\n    tag_66:\n        /* \"diceGame.sol\":6435:6629  function setNextGameMinimumBet(uint _nextGameMinimumBet) external isManager canSetMinOrMaxBet(_nextGameMinimumBet, nextGameMaximumBet) {\r... */\n      pop\n      tag_67\n      0x04\n      dup1\n      calldatasize\n      sub\n        /* \"--CODEGEN--\":13:15   */\n      0x20\n        /* \"--CODEGEN--\":8:11   */\n      dup2\n        /* \"--CODEGEN--\":5:16   */\n      lt\n        /* \"--CODEGEN--\":2:4   */\n      iszero\n      tag_68\n      jumpi\n        /* \"--CODEGEN--\":29:30   */\n      0x00\n        /* \"--CODEGEN--\":26:27   */\n      dup1\n        /* \"--CODEGEN--\":19:31   */\n      revert\n        /* \"--CODEGEN--\":2:4   */\n    tag_68:\n        /* \"diceGame.sol\":6435:6629  function setNextGameMinimumBet(uint _nextGameMinimumBet) external isManager canSetMinOrMaxBet(_nextGameMinimumBet, nextGameMaximumBet) {\r... */\n      dup2\n      add\n      swap1\n      dup1\n      dup1\n      calldataload\n      swap1\n      0x20\n      add\n      swap1\n      swap3\n      swap2\n      swap1\n      pop\n      pop\n      pop\n      tag_69\n      jump\t// in\n    tag_67:\n      stop\n        /* \"diceGame.sol\":6671:6865  function setNextGameMaximumBet(uint _nextGameMaximumBet) external isManager canSetMinOrMaxBet(nextGameMinimumBet, _nextGameMaximumBet) {\r... */\n    tag_15:\n      callvalue\n        /* \"--CODEGEN--\":8:17   */\n      dup1\n        /* \"--CODEGEN--\":5:7   */\n      iszero\n      tag_70\n      jumpi\n        /* \"--CODEGEN--\":30:31   */\n      0x00\n        /* \"--CODEGEN--\":27:28   */\n      dup1\n        /* \"--CODEGEN--\":20:32   */\n      revert\n        /* \"--CODEGEN--\":5:7   */\n    tag_70:\n        /* \"diceGame.sol\":6671:6865  function setNextGameMaximumBet(uint _nextGameMaximumBet) external isManager canSetMinOrMaxBet(nextGameMinimumBet, _nextGameMaximumBet) {\r... */\n      pop\n      tag_71\n      0x04\n      dup1\n      calldatasize\n      sub\n        /* \"--CODEGEN--\":13:15   */\n      0x20\n        /* \"--CODEGEN--\":8:11   */\n      dup2\n        /* \"--CODEGEN--\":5:16   */\n      lt\n        /* \"--CODEGEN--\":2:4   */\n      iszero\n      tag_72\n      jumpi\n        /* \"--CODEGEN--\":29:30   */\n      0x00\n        /* \"--CODEGEN--\":26:27   */\n      dup1\n        /* \"--CODEGEN--\":19:31   */\n      revert\n        /* \"--CODEGEN--\":2:4   */\n    tag_72:\n        /* \"diceGame.sol\":6671:6865  function setNextGameMaximumBet(uint _nextGameMaximumBet) external isManager canSetMinOrMaxBet(nextGameMinimumBet, _nextGameMaximumBet) {\r... */\n      dup2\n      add\n      swap1\n      dup1\n      dup1\n      calldataload\n      swap1\n      0x20\n      add\n      swap1\n      swap3\n      swap2\n      swap1\n      pop\n      pop\n      pop\n      tag_73\n      jump\t// in\n    tag_71:\n      stop\n        /* \"diceGame.sol\":1813:2146  function transferMoneyToServer(uint _money) isManager external {\r... */\n    tag_16:\n      callvalue\n        /* \"--CODEGEN--\":8:17   */\n      dup1\n        /* \"--CODEGEN--\":5:7   */\n      iszero\n      tag_74\n      jumpi\n        /* \"--CODEGEN--\":30:31   */\n      0x00\n        /* \"--CODEGEN--\":27:28   */\n      dup1\n        /* \"--CODEGEN--\":20:32   */\n      revert\n        /* \"--CODEGEN--\":5:7   */\n    tag_74:\n        /* \"diceGame.sol\":1813:2146  function transferMoneyToServer(uint _money) isManager external {\r... */\n      pop\n      tag_75\n      0x04\n      dup1\n      calldatasize\n      sub\n        /* \"--CODEGEN--\":13:15   */\n      0x20\n        /* \"--CODEGEN--\":8:11   */\n      dup2\n        /* \"--CODEGEN--\":5:16   */\n      lt\n        /* \"--CODEGEN--\":2:4   */\n      iszero\n      tag_76\n      jumpi\n        /* \"--CODEGEN--\":29:30   */\n      0x00\n        /* \"--CODEGEN--\":26:27   */\n      dup1\n        /* \"--CODEGEN--\":19:31   */\n      revert\n        /* \"--CODEGEN--\":2:4   */\n    tag_76:\n        /* \"diceGame.sol\":1813:2146  function transferMoneyToServer(uint _money) isManager external {\r... */\n      dup2\n      add\n      swap1\n      dup1\n      dup1\n      calldataload\n      swap1\n      0x20\n      add\n      swap1\n      swap3\n      swap2\n      swap1\n      pop\n      pop\n      pop\n      tag_77\n      jump\t// in\n    tag_75:\n      stop\n        /* \"diceGame.sol\":82:100  uint public gameId */\n    tag_17:\n      callvalue\n        /* \"--CODEGEN--\":8:17   */\n      dup1\n        /* \"--CODEGEN--\":5:7   */\n      iszero\n      tag_78\n      jumpi\n        /* \"--CODEGEN--\":30:31   */\n      0x00\n        /* \"--CODEGEN--\":27:28   */\n      dup1\n        /* \"--CODEGEN--\":20:32   */\n      revert\n        /* \"--CODEGEN--\":5:7   */\n    tag_78:\n        /* \"diceGame.sol\":82:100  uint public gameId */\n      pop\n      tag_79\n      tag_80\n      jump\t// in\n    tag_79:\n      mload(0x40)\n      dup1\n      dup3\n      dup2\n      mstore\n      0x20\n      add\n      swap2\n      pop\n      pop\n      mload(0x40)\n      dup1\n      swap2\n      sub\n      swap1\n      return\n        /* \"diceGame.sol\":7069:7179  function getMustHaveBalance() external view isManager returns (uint) {\r... */\n    tag_18:\n      callvalue\n        /* \"--CODEGEN--\":8:17   */\n      dup1\n        /* \"--CODEGEN--\":5:7   */\n      iszero\n      tag_81\n      jumpi\n        /* \"--CODEGEN--\":30:31   */\n      0x00\n        /* \"--CODEGEN--\":27:28   */\n      dup1\n        /* \"--CODEGEN--\":20:32   */\n      revert\n        /* \"--CODEGEN--\":5:7   */\n    tag_81:\n        /* \"diceGame.sol\":7069:7179  function getMustHaveBalance() external view isManager returns (uint) {\r... */\n      pop\n      tag_82\n      tag_83\n      jump\t// in\n    tag_82:\n      mload(0x40)\n      dup1\n      dup3\n      dup2\n      mstore\n      0x20\n      add\n      swap2\n      pop\n      pop\n      mload(0x40)\n      dup1\n      swap2\n      sub\n      swap1\n      return\n        /* \"diceGame.sol\":181:210  uint public prevGameStartTime */\n    tag_26:\n      sload(0x04)\n      dup2\n      jump\t// out\n        /* \"diceGame.sol\":4136:5094  function receiveMoney(uint _gameId, string memory password) public {\r... */\n    tag_33:\n        /* \"diceGame.sol\":4227:4228  3 */\n      0x03\n        /* \"diceGame.sol\":4218:4224  gameId */\n      sload(0x01)\n        /* \"diceGame.sol\":4218:4228  gameId > 3 */\n      gt\n        /* \"diceGame.sol\":4214:4335  if (gameId > 3) require(_gameId >= gameId - 3, \"You cannot receive money from the game which ended more than 3 game ago\") */\n      iszero\n      tag_85\n      jumpi\n        /* \"diceGame.sol\":4258:4259  3 */\n      0x03\n        /* \"diceGame.sol\":4249:4255  gameId */\n      sload(0x01)\n        /* \"diceGame.sol\":4249:4259  gameId - 3 */\n      sub\n        /* \"diceGame.sol\":4238:4245  _gameId */\n      dup3\n        /* \"diceGame.sol\":4238:4259  _gameId >= gameId - 3 */\n      lt\n      iszero\n        /* \"diceGame.sol\":4230:4335  require(_gameId >= gameId - 3, \"You cannot receive money from the game which ended more than 3 game ago\") */\n      tag_86\n      jumpi\n      mload(0x40)\n      0x08c379a000000000000000000000000000000000000000000000000000000000\n      dup2\n      mstore\n      0x04\n      add\n      dup1\n      dup1\n      0x20\n      add\n      dup3\n      dup2\n      sub\n      dup3\n      mstore\n      0x47\n      dup2\n      mstore\n      0x20\n      add\n      dup1\n      data_8d154e8968d7823ff29b23e97db9dfb06467967dfeb91ba82243af334bf2669b\n      0x47\n      swap2\n      codecopy\n      0x60\n      add\n      swap2\n      pop\n      pop\n      mload(0x40)\n      dup1\n      swap2\n      sub\n      swap1\n      revert\n    tag_86:\n        /* \"diceGame.sol\":4214:4335  if (gameId > 3) require(_gameId >= gameId - 3, \"You cannot receive money from the game which ended more than 3 game ago\") */\n    tag_85:\n        /* \"diceGame.sol\":4364:4370  gameId */\n      sload(0x01)\n        /* \"diceGame.sol\":4354:4361  _gameId */\n      dup3\n        /* \"diceGame.sol\":4354:4370  _gameId < gameId */\n      lt\n        /* \"diceGame.sol\":4346:4393  require(_gameId < gameId, \"The game not ended\") */\n      tag_87\n      jumpi\n      mload(0x40)\n      0x08c379a000000000000000000000000000000000000000000000000000000000\n      dup2\n      mstore\n      0x04\n      add\n      dup1\n      dup1\n      0x20\n      add\n      dup3\n      dup2\n      sub\n      dup3\n      mstore\n      0x12\n      dup2\n      mstore\n      0x20\n      add\n      dup1\n      0x5468652067616d65206e6f7420656e6465640000000000000000000000000000\n      dup2\n      mstore\n      pop\n      0x20\n      add\n      swap2\n      pop\n      pop\n      mload(0x40)\n      dup1\n      swap2\n      sub\n      swap1\n      revert\n    tag_87:\n        /* \"diceGame.sol\":4413:4417  game */\n      0x06\n        /* \"diceGame.sol\":4413:4426  game[_gameId] */\n      0x00\n        /* \"diceGame.sol\":4418:4425  _gameId */\n      dup4\n        /* \"diceGame.sol\":4413:4426  game[_gameId] */\n      dup2\n      mstore\n      0x20\n      add\n      swap1\n      dup2\n      mstore\n      0x20\n      add\n      0x00\n      keccak256\n        /* \"diceGame.sol\":4413:4438  game[_gameId].gameCrashed */\n      0x07\n      add\n      0x00\n      swap1\n      sload\n      swap1\n      0x0100\n      exp\n      swap1\n      div\n      0xff\n      and\n        /* \"diceGame.sol\":4412:4438  !game[_gameId].gameCrashed */\n      iszero\n        /* \"diceGame.sol\":4404:4495  require(!game[_gameId].gameCrashed, \"Game was crashed and players already receive a money\") */\n      tag_88\n      jumpi\n      mload(0x40)\n      0x08c379a000000000000000000000000000000000000000000000000000000000\n      dup2\n      mstore\n      0x04\n      add\n      dup1\n      dup1\n      0x20\n      add\n      dup3\n      dup2\n      sub\n      dup3\n      mstore\n      0x34\n      dup2\n      mstore\n      0x20\n      add\n      dup1\n      data_011ef643292f394b7eaf6f298680e8c07121f6d62a56a380e32caea39ebed0de\n      0x34\n      swap2\n      codecopy\n      0x40\n      add\n      swap2\n      pop\n      pop\n      mload(0x40)\n      dup1\n      swap2\n      sub\n      swap1\n      revert\n    tag_88:\n        /* \"diceGame.sol\":4515:4519  game */\n      0x06\n        /* \"diceGame.sol\":4515:4528  game[_gameId] */\n      0x00\n        /* \"diceGame.sol\":4520:4527  _gameId */\n      dup4\n        /* \"diceGame.sol\":4515:4528  game[_gameId] */\n      dup2\n      mstore\n      0x20\n      add\n      swap1\n      dup2\n      mstore\n      0x20\n      add\n      0x00\n      keccak256\n        /* \"diceGame.sol\":4515:4535  game[_gameId].player */\n      0x00\n      add\n        /* \"diceGame.sol\":4515:4547  game[_gameId].player[msg.sender] */\n      0x00\n        /* \"diceGame.sol\":4536:4546  msg.sender */\n      caller\n        /* \"diceGame.sol\":4515:4547  game[_gameId].player[msg.sender] */\n      0xffffffffffffffffffffffffffffffffffffffff\n      and\n      0xffffffffffffffffffffffffffffffffffffffff\n      and\n      dup2\n      mstore\n      0x20\n      add\n      swap1\n      dup2\n      mstore\n      0x20\n      add\n      0x00\n      keccak256\n        /* \"diceGame.sol\":4515:4556  game[_gameId].player[msg.sender].received */\n      0x02\n      add\n      0x00\n      swap1\n      sload\n      swap1\n      0x0100\n      exp\n      swap1\n      div\n      0xff\n      and\n        /* \"diceGame.sol\":4514:4556  !game[_gameId].player[msg.sender].received */\n      iszero\n        /* \"diceGame.sol\":4506:4591  require(!game[_gameId].player[msg.sender].received, \"Player already receive a money\") */\n      tag_89\n      jumpi\n      mload(0x40)\n      0x08c379a000000000000000000000000000000000000000000000000000000000\n      dup2\n      mstore\n      0x04\n      add\n      dup1\n      dup1\n      0x20\n      add\n      dup3\n      dup2\n      sub\n      dup3\n      mstore\n      0x1e\n      dup2\n      mstore\n      0x20\n      add\n      dup1\n      0x506c6179657220616c726561647920726563656976652061206d6f6e65790000\n      dup2\n      mstore\n      pop\n      0x20\n      add\n      swap2\n      pop\n      pop\n      mload(0x40)\n      dup1\n      swap2\n      sub\n      swap1\n      revert\n    tag_89:\n        /* \"diceGame.sol\":4602:4620  bytes32 playerHash */\n      0x00\n        /* \"diceGame.sol\":4623:4688  hashPlayerBet(game[_gameId].dice1, game[_gameId].dice2, password) */\n      tag_90\n        /* \"diceGame.sol\":4637:4641  game */\n      0x06\n        /* \"diceGame.sol\":4637:4650  game[_gameId] */\n      0x00\n        /* \"diceGame.sol\":4642:4649  _gameId */\n      dup6\n        /* \"diceGame.sol\":4637:4650  game[_gameId] */\n      dup2\n      mstore\n      0x20\n      add\n      swap1\n      dup2\n      mstore\n      0x20\n      add\n      0x00\n      keccak256\n        /* \"diceGame.sol\":4637:4656  game[_gameId].dice1 */\n      0x02\n      add\n      0x00\n      swap1\n      sload\n      swap1\n      0x0100\n      exp\n      swap1\n      div\n      0xff\n      and\n        /* \"diceGame.sol\":4658:4662  game */\n      0x06\n        /* \"diceGame.sol\":4658:4671  game[_gameId] */\n      0x00\n        /* \"diceGame.sol\":4663:4670  _gameId */\n      dup7\n        /* \"diceGame.sol\":4658:4671  game[_gameId] */\n      dup2\n      mstore\n      0x20\n      add\n      swap1\n      dup2\n      mstore\n      0x20\n      add\n      0x00\n      keccak256\n        /* \"diceGame.sol\":4658:4677  game[_gameId].dice2 */\n      0x02\n      add\n      0x01\n      swap1\n      sload\n      swap1\n      0x0100\n      exp\n      swap1\n      div\n      0xff\n      and\n        /* \"diceGame.sol\":4679:4687  password */\n      dup5\n        /* \"diceGame.sol\":4623:4636  hashPlayerBet */\n      tag_91\n        /* \"diceGame.sol\":4623:4688  hashPlayerBet(game[_gameId].dice1, game[_gameId].dice2, password) */\n      jump\t// in\n    tag_90:\n        /* \"diceGame.sol\":4602:4688  bytes32 playerHash = hashPlayerBet(game[_gameId].dice1, game[_gameId].dice2, password) */\n      swap1\n      pop\n        /* \"diceGame.sol\":4721:4725  game */\n      0x06\n        /* \"diceGame.sol\":4721:4734  game[_gameId] */\n      0x00\n        /* \"diceGame.sol\":4726:4733  _gameId */\n      dup5\n        /* \"diceGame.sol\":4721:4734  game[_gameId] */\n      dup2\n      mstore\n      0x20\n      add\n      swap1\n      dup2\n      mstore\n      0x20\n      add\n      0x00\n      keccak256\n        /* \"diceGame.sol\":4721:4741  game[_gameId].player */\n      0x00\n      add\n        /* \"diceGame.sol\":4721:4753  game[_gameId].player[msg.sender] */\n      0x00\n        /* \"diceGame.sol\":4742:4752  msg.sender */\n      caller\n        /* \"diceGame.sol\":4721:4753  game[_gameId].player[msg.sender] */\n      0xffffffffffffffffffffffffffffffffffffffff\n      and\n      0xffffffffffffffffffffffffffffffffffffffff\n      and\n      dup2\n      mstore\n      0x20\n      add\n      swap1\n      dup2\n      mstore\n      0x20\n      add\n      0x00\n      keccak256\n        /* \"diceGame.sol\":4721:4764  game[_gameId].player[msg.sender].playerHash */\n      0x00\n      add\n      sload\n        /* \"diceGame.sol\":4707:4717  playerHash */\n      dup2\n        /* \"diceGame.sol\":4707:4764  playerHash == game[_gameId].player[msg.sender].playerHash */\n      eq\n        /* \"diceGame.sol\":4699:4814  require(playerHash == game[_gameId].player[msg.sender].playerHash, \"You are not winner or password is not correct\") */\n      tag_92\n      jumpi\n      mload(0x40)\n      0x08c379a000000000000000000000000000000000000000000000000000000000\n      dup2\n      mstore\n      0x04\n      add\n      dup1\n      dup1\n      0x20\n      add\n      dup3\n      dup2\n      sub\n      dup3\n      mstore\n      0x2d\n      dup2\n      mstore\n      0x20\n      add\n      dup1\n      data_43a49f85bbe08f4faa6fe85bf8dd72b666e0c1f861972da1ea12801aa0da721d\n      0x2d\n      swap2\n      codecopy\n      0x40\n      add\n      swap2\n      pop\n      pop\n      mload(0x40)\n      dup1\n      swap2\n      sub\n      swap1\n      revert\n    tag_92:\n        /* \"diceGame.sol\":4825:4833  uint bet */\n      0x00\n        /* \"diceGame.sol\":4836:4840  game */\n      0x06\n        /* \"diceGame.sol\":4836:4849  game[_gameId] */\n      0x00\n        /* \"diceGame.sol\":4841:4848  _gameId */\n      dup6\n        /* \"diceGame.sol\":4836:4849  game[_gameId] */\n      dup2\n      mstore\n      0x20\n      add\n      swap1\n      dup2\n      mstore\n      0x20\n      add\n      0x00\n      keccak256\n        /* \"diceGame.sol\":4836:4856  game[_gameId].player */\n      0x00\n      add\n        /* \"diceGame.sol\":4836:4868  game[_gameId].player[msg.sender] */\n      0x00\n        /* \"diceGame.sol\":4857:4867  msg.sender */\n      caller\n        /* \"diceGame.sol\":4836:4868  game[_gameId].player[msg.sender] */\n      0xffffffffffffffffffffffffffffffffffffffff\n      and\n      0xffffffffffffffffffffffffffffffffffffffff\n      and\n      dup2\n      mstore\n      0x20\n      add\n      swap1\n      dup2\n      mstore\n      0x20\n      add\n      0x00\n      keccak256\n        /* \"diceGame.sol\":4836:4877  game[_gameId].player[msg.sender].betValue */\n      0x01\n      add\n      sload\n        /* \"diceGame.sol\":4825:4877  uint bet = game[_gameId].player[msg.sender].betValue */\n      swap1\n      pop\n        /* \"diceGame.sol\":4888:4898  uint money */\n      0x00\n        /* \"diceGame.sol\":4911:4912  2 */\n      0x02\n        /* \"diceGame.sol\":4907:4908  3 */\n      0x03\n        /* \"diceGame.sol\":4901:4904  bet */\n      dup4\n        /* \"diceGame.sol\":4901:4908  bet * 3 */\n      mul\n        /* \"diceGame.sol\":4901:4912  bet * 3 / 2 */\n      dup2\n      tag_93\n      jumpi\n      invalid\n    tag_93:\n      div\n        /* \"diceGame.sol\":4888:4912  uint money = bet * 3 / 2 */\n      swap1\n      pop\n        /* \"diceGame.sol\":4923:4933  msg.sender */\n      caller\n        /* \"diceGame.sol\":4923:4942  msg.sender.transfer */\n      0xffffffffffffffffffffffffffffffffffffffff\n      and\n        /* \"diceGame.sol\":4923:4949  msg.sender.transfer(money) */\n      0x08fc\n        /* \"diceGame.sol\":4943:4948  money */\n      dup3\n        /* \"diceGame.sol\":4923:4949  msg.sender.transfer(money) */\n      swap1\n      dup2\n      iszero\n      mul\n      swap1\n      mload(0x40)\n      0x00\n      mload(0x40)\n      dup1\n      dup4\n      sub\n      dup2\n      dup6\n      dup9\n      dup9\n      call\n      swap4\n      pop\n      pop\n      pop\n      pop\n      iszero\n        /* \"--CODEGEN--\":8:17   */\n      dup1\n        /* \"--CODEGEN--\":5:7   */\n      iszero\n      tag_94\n      jumpi\n        /* \"--CODEGEN--\":45:61   */\n      returndatasize\n        /* \"--CODEGEN--\":42:43   */\n      0x00\n        /* \"--CODEGEN--\":39:40   */\n      dup1\n        /* \"--CODEGEN--\":24:62   */\n      returndatacopy\n        /* \"--CODEGEN--\":77:93   */\n      returndatasize\n        /* \"--CODEGEN--\":74:75   */\n      0x00\n        /* \"--CODEGEN--\":67:94   */\n      revert\n        /* \"--CODEGEN--\":5:7   */\n    tag_94:\n        /* \"diceGame.sol\":4923:4949  msg.sender.transfer(money) */\n      pop\n        /* \"diceGame.sol\":4989:4992  bet */\n      dup2\n        /* \"diceGame.sol\":4960:4964  game */\n      0x06\n        /* \"diceGame.sol\":4960:4973  game[_gameId] */\n      0x00\n        /* \"diceGame.sol\":4965:4972  _gameId */\n      dup8\n        /* \"diceGame.sol\":4960:4973  game[_gameId] */\n      dup2\n      mstore\n      0x20\n      add\n      swap1\n      dup2\n      mstore\n      0x20\n      add\n      0x00\n      keccak256\n        /* \"diceGame.sol\":4960:4985  game[_gameId].restBalance */\n      0x04\n      add\n      0x00\n        /* \"diceGame.sol\":4960:4992  game[_gameId].restBalance -= bet */\n      dup3\n      dup3\n      sload\n      sub\n      swap3\n      pop\n      pop\n      dup2\n      swap1\n      sstore\n      pop\n        /* \"diceGame.sol\":5022:5027  money */\n      dup1\n        /* \"diceGame.sol\":5003:5018  mustHaveBalance */\n      0x05\n      0x00\n        /* \"diceGame.sol\":5003:5027  mustHaveBalance -= money */\n      dup3\n      dup3\n      sload\n      sub\n      swap3\n      pop\n      pop\n      dup2\n      swap1\n      sstore\n      pop\n        /* \"diceGame.sol\":5082:5086  true */\n      0x01\n        /* \"diceGame.sol\":5038:5042  game */\n      0x06\n        /* \"diceGame.sol\":5038:5051  game[_gameId] */\n      0x00\n        /* \"diceGame.sol\":5043:5050  _gameId */\n      dup8\n        /* \"diceGame.sol\":5038:5051  game[_gameId] */\n      dup2\n      mstore\n      0x20\n      add\n      swap1\n      dup2\n      mstore\n      0x20\n      add\n      0x00\n      keccak256\n        /* \"diceGame.sol\":5038:5058  game[_gameId].player */\n      0x00\n      add\n        /* \"diceGame.sol\":5038:5070  game[_gameId].player[msg.sender] */\n      0x00\n        /* \"diceGame.sol\":5059:5069  msg.sender */\n      caller\n        /* \"diceGame.sol\":5038:5070  game[_gameId].player[msg.sender] */\n      0xffffffffffffffffffffffffffffffffffffffff\n      and\n      0xffffffffffffffffffffffffffffffffffffffff\n      and\n      dup2\n      mstore\n      0x20\n      add\n      swap1\n      dup2\n      mstore\n      0x20\n      add\n      0x00\n      keccak256\n        /* \"diceGame.sol\":5038:5079  game[_gameId].player[msg.sender].received */\n      0x02\n      add\n      0x00\n        /* \"diceGame.sol\":5038:5086  game[_gameId].player[msg.sender].received = true */\n      0x0100\n      exp\n      dup2\n      sload\n      dup2\n      0xff\n      mul\n      not\n      and\n      swap1\n      dup4\n      iszero\n      iszero\n      mul\n      or\n      swap1\n      sstore\n      pop\n        /* \"diceGame.sol\":4136:5094  function receiveMoney(uint _gameId, string memory password) public {\r... */\n      pop\n      pop\n      pop\n      pop\n      pop\n      jump\t// out\n        /* \"diceGame.sol\":7444:7909  function getGameById(uint id) external view returns (uint, uint, uint, uint, uint, uint, bool) {\r... */\n    tag_37:\n        /* \"diceGame.sol\":7497:7501  uint */\n      0x00\n        /* \"diceGame.sol\":7503:7507  uint */\n      dup1\n        /* \"diceGame.sol\":7509:7513  uint */\n      0x00\n        /* \"diceGame.sol\":7515:7519  uint */\n      dup1\n        /* \"diceGame.sol\":7521:7525  uint */\n      0x00\n        /* \"diceGame.sol\":7527:7531  uint */\n      dup1\n        /* \"diceGame.sol\":7533:7537  bool */\n      0x00\n        /* \"diceGame.sol\":7564:7565  1 */\n      0x01\n        /* \"diceGame.sol\":7558:7560  id */\n      dup9\n        /* \"diceGame.sol\":7558:7565  id >= 1 */\n      lt\n      iszero\n        /* \"diceGame.sol\":7550:7589  require(id >= 1, \"Game id cannot be 0\") */\n      tag_96\n      jumpi\n      mload(0x40)\n      0x08c379a000000000000000000000000000000000000000000000000000000000\n      dup2\n      mstore\n      0x04\n      add\n      dup1\n      dup1\n      0x20\n      add\n      dup3\n      dup2\n      sub\n      dup3\n      mstore\n      0x13\n      dup2\n      mstore\n      0x20\n      add\n      dup1\n      0x47616d652069642063616e6e6f74206265203000000000000000000000000000\n      dup2\n      mstore\n      pop\n      0x20\n      add\n      swap2\n      pop\n      pop\n      mload(0x40)\n      dup1\n      swap2\n      sub\n      swap1\n      revert\n    tag_96:\n        /* \"diceGame.sol\":7614:7620  gameId */\n      sload(0x01)\n        /* \"diceGame.sol\":7608:7610  id */\n      dup9\n        /* \"diceGame.sol\":7608:7620  id <= gameId */\n      gt\n      iszero\n        /* \"diceGame.sol\":7600:7641  require(id <= gameId, \"Game not started\") */\n      tag_97\n      jumpi\n      mload(0x40)\n      0x08c379a000000000000000000000000000000000000000000000000000000000\n      dup2\n      mstore\n      0x04\n      add\n      dup1\n      dup1\n      0x20\n      add\n      dup3\n      dup2\n      sub\n      dup3\n      mstore\n      0x10\n      dup2\n      mstore\n      0x20\n      add\n      dup1\n      0x47616d65206e6f74207374617274656400000000000000000000000000000000\n      dup2\n      mstore\n      pop\n      0x20\n      add\n      swap2\n      pop\n      pop\n      mload(0x40)\n      dup1\n      swap2\n      sub\n      swap1\n      revert\n    tag_97:\n        /* \"diceGame.sol\":7674:7678  game */\n      0x06\n        /* \"diceGame.sol\":7674:7682  game[id] */\n      0x00\n        /* \"diceGame.sol\":7679:7681  id */\n      dup10\n        /* \"diceGame.sol\":7674:7682  game[id] */\n      dup2\n      mstore\n      0x20\n      add\n      swap1\n      dup2\n      mstore\n      0x20\n      add\n      0x00\n      keccak256\n        /* \"diceGame.sol\":7674:7688  game[id].dice1 */\n      0x02\n      add\n      0x00\n      swap1\n      sload\n      swap1\n      0x0100\n      exp\n      swap1\n      div\n      0xff\n      and\n        /* \"diceGame.sol\":7703:7707  game */\n      0x06\n        /* \"diceGame.sol\":7703:7711  game[id] */\n      0x00\n        /* \"diceGame.sol\":7708:7710  id */\n      dup11\n        /* \"diceGame.sol\":7703:7711  game[id] */\n      dup2\n      mstore\n      0x20\n      add\n      swap1\n      dup2\n      mstore\n      0x20\n      add\n      0x00\n      keccak256\n        /* \"diceGame.sol\":7703:7717  game[id].dice2 */\n      0x02\n      add\n      0x01\n      swap1\n      sload\n      swap1\n      0x0100\n      exp\n      swap1\n      div\n      0xff\n      and\n        /* \"diceGame.sol\":7732:7736  game */\n      0x06\n        /* \"diceGame.sol\":7732:7740  game[id] */\n      0x00\n        /* \"diceGame.sol\":7737:7739  id */\n      dup12\n        /* \"diceGame.sol\":7732:7740  game[id] */\n      dup2\n      mstore\n      0x20\n      add\n      swap1\n      dup2\n      mstore\n      0x20\n      add\n      0x00\n      keccak256\n        /* \"diceGame.sol\":7732:7751  game[id].minimumBet */\n      0x05\n      add\n      sload\n        /* \"diceGame.sol\":7766:7770  game */\n      0x06\n        /* \"diceGame.sol\":7766:7774  game[id] */\n      0x00\n        /* \"diceGame.sol\":7771:7773  id */\n      dup13\n        /* \"diceGame.sol\":7766:7774  game[id] */\n      dup2\n      mstore\n      0x20\n      add\n      swap1\n      dup2\n      mstore\n      0x20\n      add\n      0x00\n      keccak256\n        /* \"diceGame.sol\":7766:7785  game[id].maximumBet */\n      0x06\n      add\n      sload\n        /* \"diceGame.sol\":7800:7804  game */\n      0x06\n        /* \"diceGame.sol\":7800:7808  game[id] */\n      0x00\n        /* \"diceGame.sol\":7805:7807  id */\n      dup14\n        /* \"diceGame.sol\":7800:7808  game[id] */\n      dup2\n      mstore\n      0x20\n      add\n      swap1\n      dup2\n      mstore\n      0x20\n      add\n      0x00\n      keccak256\n        /* \"diceGame.sol\":7800:7820  game[id].gameBalance */\n      0x03\n      add\n      sload\n        /* \"diceGame.sol\":7835:7839  game */\n      0x06\n        /* \"diceGame.sol\":7835:7843  game[id] */\n      0x00\n        /* \"diceGame.sol\":7840:7842  id */\n      dup15\n        /* \"diceGame.sol\":7835:7843  game[id] */\n      dup2\n      mstore\n      0x20\n      add\n      swap1\n      dup2\n      mstore\n      0x20\n      add\n      0x00\n      keccak256\n        /* \"diceGame.sol\":7835:7855  game[id].restBalance */\n      0x04\n      add\n      sload\n        /* \"diceGame.sol\":7870:7874  game */\n      0x06\n        /* \"diceGame.sol\":7870:7878  game[id] */\n      0x00\n        /* \"diceGame.sol\":7875:7877  id */\n      dup16\n        /* \"diceGame.sol\":7870:7878  game[id] */\n      dup2\n      mstore\n      0x20\n      add\n      swap1\n      dup2\n      mstore\n      0x20\n      add\n      0x00\n      keccak256\n        /* \"diceGame.sol\":7870:7890  game[id].gameCrashed */\n      0x07\n      add\n      0x00\n      swap1\n      sload\n      swap1\n      0x0100\n      exp\n      swap1\n      div\n      0xff\n      and\n        /* \"diceGame.sol\":7652:7901  return (\r... */\n      dup7\n      0xff\n      and\n      swap7\n      pop\n      dup6\n      0xff\n      and\n      swap6\n      pop\n      swap7\n      pop\n      swap7\n      pop\n      swap7\n      pop\n      swap7\n      pop\n      swap7\n      pop\n      swap7\n      pop\n      swap7\n      pop\n        /* \"diceGame.sol\":7444:7909  function getGameById(uint id) external view returns (uint, uint, uint, uint, uint, uint, bool) {\r... */\n      swap2\n      swap4\n      swap6\n      swap8\n      swap1\n      swap3\n      swap5\n      swap7\n      pop\n      jump\t// out\n        /* \"diceGame.sol\":3179:4071  function setUserBetAndHash(bytes32 playerHash) external payable {\r... */\n    tag_40:\n        /* \"diceGame.sol\":3254:3283  address payable playerAddress */\n      0x00\n        /* \"diceGame.sol\":3286:3296  msg.sender */\n      caller\n        /* \"diceGame.sol\":3254:3296  address payable playerAddress = msg.sender */\n      swap1\n      pop\n        /* \"diceGame.sol\":3374:3375  2 */\n      0x02\n        /* \"diceGame.sol\":3370:3371  3 */\n      0x03\n        /* \"diceGame.sol\":3358:3367  msg.value */\n      callvalue\n        /* \"diceGame.sol\":3358:3371  msg.value * 3 */\n      mul\n        /* \"diceGame.sol\":3358:3375  msg.value * 3 / 2 */\n      dup2\n      tag_99\n      jumpi\n      invalid\n    tag_99:\n      div\n        /* \"diceGame.sol\":3340:3355  mustHaveBalance */\n      sload(0x05)\n        /* \"diceGame.sol\":3340:3375  mustHaveBalance + msg.value * 3 / 2 */\n      add\n        /* \"diceGame.sol\":3323:3327  this */\n      address\n        /* \"diceGame.sol\":3315:3336  address(this).balance */\n      0xffffffffffffffffffffffffffffffffffffffff\n      and\n      balance\n        /* \"diceGame.sol\":3315:3375  address(this).balance >= mustHaveBalance + msg.value * 3 / 2 */\n      lt\n      iszero\n        /* \"diceGame.sol\":3307:3419  require(address(this).balance >= mustHaveBalance + msg.value * 3 / 2, \"The contract does not have enough money\") */\n      tag_100\n      jumpi\n      mload(0x40)\n      0x08c379a000000000000000000000000000000000000000000000000000000000\n      dup2\n      mstore\n      0x04\n      add\n      dup1\n      dup1\n      0x20\n      add\n      dup3\n      dup2\n      sub\n      dup3\n      mstore\n      0x27\n      dup2\n      mstore\n      0x20\n      add\n      dup1\n      data_d0d119b5681acdf73562ce6543c10f2b7b10fc17a9050094d8f26cb42a75785c\n      0x27\n      swap2\n      codecopy\n      0x40\n      add\n      swap2\n      pop\n      pop\n      mload(0x40)\n      dup1\n      swap2\n      sub\n      swap1\n      revert\n    tag_100:\n        /* \"diceGame.sol\":3455:3462  manager */\n      0x00\n      dup1\n      swap1\n      sload\n      swap1\n      0x0100\n      exp\n      swap1\n      div\n      0xffffffffffffffffffffffffffffffffffffffff\n      and\n        /* \"diceGame.sol\":3438:3462  playerAddress != manager */\n      0xffffffffffffffffffffffffffffffffffffffff\n      and\n        /* \"diceGame.sol\":3438:3451  playerAddress */\n      dup2\n        /* \"diceGame.sol\":3438:3462  playerAddress != manager */\n      0xffffffffffffffffffffffffffffffffffffffff\n      and\n      eq\n      iszero\n        /* \"diceGame.sol\":3430:3493  require(playerAddress != manager, \"Manager cannot bet a value\") */\n      tag_101\n      jumpi\n      mload(0x40)\n      0x08c379a000000000000000000000000000000000000000000000000000000000\n      dup2\n      mstore\n      0x04\n      add\n      dup1\n      dup1\n      0x20\n      add\n      dup3\n      dup2\n      sub\n      dup3\n      mstore\n      0x1a\n      dup2\n      mstore\n      0x20\n      add\n      dup1\n      0x4d616e616765722063616e6e6f742062657420612076616c7565000000000000\n      dup2\n      mstore\n      pop\n      0x20\n      add\n      swap2\n      pop\n      pop\n      mload(0x40)\n      dup1\n      swap2\n      sub\n      swap1\n      revert\n    tag_101:\n        /* \"diceGame.sol\":3561:3562  0 */\n      0x00\n        /* \"diceGame.sol\":3512:3562  game[gameId].player[playerAddress].playerHash == 0 */\n      dup1\n      shl\n        /* \"diceGame.sol\":3512:3516  game */\n      0x06\n        /* \"diceGame.sol\":3512:3524  game[gameId] */\n      0x00\n        /* \"diceGame.sol\":3517:3523  gameId */\n      sload(0x01)\n        /* \"diceGame.sol\":3512:3524  game[gameId] */\n      dup2\n      mstore\n      0x20\n      add\n      swap1\n      dup2\n      mstore\n      0x20\n      add\n      0x00\n      keccak256\n        /* \"diceGame.sol\":3512:3531  game[gameId].player */\n      0x00\n      add\n        /* \"diceGame.sol\":3512:3546  game[gameId].player[playerAddress] */\n      0x00\n        /* \"diceGame.sol\":3532:3545  playerAddress */\n      dup4\n        /* \"diceGame.sol\":3512:3546  game[gameId].player[playerAddress] */\n      0xffffffffffffffffffffffffffffffffffffffff\n      and\n      0xffffffffffffffffffffffffffffffffffffffff\n      and\n      dup2\n      mstore\n      0x20\n      add\n      swap1\n      dup2\n      mstore\n      0x20\n      add\n      0x00\n      keccak256\n        /* \"diceGame.sol\":3512:3557  game[gameId].player[playerAddress].playerHash */\n      0x00\n      add\n      sload\n        /* \"diceGame.sol\":3512:3562  game[gameId].player[playerAddress].playerHash == 0 */\n      eq\n        /* \"diceGame.sol\":3504:3592  require(game[gameId].player[playerAddress].playerHash == 0, \"Player already bet number\") */\n      tag_102\n      jumpi\n      mload(0x40)\n      0x08c379a000000000000000000000000000000000000000000000000000000000\n      dup2\n      mstore\n      0x04\n      add\n      dup1\n      dup1\n      0x20\n      add\n      dup3\n      dup2\n      sub\n      dup3\n      mstore\n      0x19\n      dup2\n      mstore\n      0x20\n      add\n      dup1\n      0x506c6179657220616c726561647920626574206e756d62657200000000000000\n      dup2\n      mstore\n      pop\n      0x20\n      add\n      swap2\n      pop\n      pop\n      mload(0x40)\n      dup1\n      swap2\n      sub\n      swap1\n      revert\n    tag_102:\n        /* \"diceGame.sol\":3624:3628  game */\n      0x06\n        /* \"diceGame.sol\":3624:3636  game[gameId] */\n      0x00\n        /* \"diceGame.sol\":3629:3635  gameId */\n      sload(0x01)\n        /* \"diceGame.sol\":3624:3636  game[gameId] */\n      dup2\n      mstore\n      0x20\n      add\n      swap1\n      dup2\n      mstore\n      0x20\n      add\n      0x00\n      keccak256\n        /* \"diceGame.sol\":3624:3647  game[gameId].minimumBet */\n      0x05\n      add\n      sload\n        /* \"diceGame.sol\":3611:3620  msg.value */\n      callvalue\n        /* \"diceGame.sol\":3611:3647  msg.value >= game[gameId].minimumBet */\n      lt\n      iszero\n        /* \"diceGame.sol\":3603:3683  require(msg.value >= game[gameId].minimumBet, \"Player bet less then minimumBet\") */\n      tag_103\n      jumpi\n      mload(0x40)\n      0x08c379a000000000000000000000000000000000000000000000000000000000\n      dup2\n      mstore\n      0x04\n      add\n      dup1\n      dup1\n      0x20\n      add\n      dup3\n      dup2\n      sub\n      dup3\n      mstore\n      0x1f\n      dup2\n      mstore\n      0x20\n      add\n      dup1\n      0x506c6179657220626574206c657373207468656e206d696e696d756d42657400\n      dup2\n      mstore\n      pop\n      0x20\n      add\n      swap2\n      pop\n      pop\n      mload(0x40)\n      dup1\n      swap2\n      sub\n      swap1\n      revert\n    tag_103:\n        /* \"diceGame.sol\":3715:3719  game */\n      0x06\n        /* \"diceGame.sol\":3715:3727  game[gameId] */\n      0x00\n        /* \"diceGame.sol\":3720:3726  gameId */\n      sload(0x01)\n        /* \"diceGame.sol\":3715:3727  game[gameId] */\n      dup2\n      mstore\n      0x20\n      add\n      swap1\n      dup2\n      mstore\n      0x20\n      add\n      0x00\n      keccak256\n        /* \"diceGame.sol\":3715:3738  game[gameId].maximumBet */\n      0x06\n      add\n      sload\n        /* \"diceGame.sol\":3702:3711  msg.value */\n      callvalue\n        /* \"diceGame.sol\":3702:3738  msg.value <= game[gameId].maximumBet */\n      gt\n      iszero\n        /* \"diceGame.sol\":3694:3774  require(msg.value <= game[gameId].maximumBet, \"Player bet more then maximumBet\") */\n      tag_104\n      jumpi\n      mload(0x40)\n      0x08c379a000000000000000000000000000000000000000000000000000000000\n      dup2\n      mstore\n      0x04\n      add\n      dup1\n      dup1\n      0x20\n      add\n      dup3\n      dup2\n      sub\n      dup3\n      mstore\n      0x1f\n      dup2\n      mstore\n      0x20\n      add\n      dup1\n      0x506c6179657220626574206d6f7265207468656e206d6178696d756d42657400\n      dup2\n      mstore\n      pop\n      0x20\n      add\n      swap2\n      pop\n      pop\n      mload(0x40)\n      dup1\n      swap2\n      sub\n      swap1\n      revert\n    tag_104:\n        /* \"diceGame.sol\":3833:3843  playerHash */\n      dup2\n        /* \"diceGame.sol\":3785:3789  game */\n      0x06\n        /* \"diceGame.sol\":3785:3797  game[gameId] */\n      0x00\n        /* \"diceGame.sol\":3790:3796  gameId */\n      sload(0x01)\n        /* \"diceGame.sol\":3785:3797  game[gameId] */\n      dup2\n      mstore\n      0x20\n      add\n      swap1\n      dup2\n      mstore\n      0x20\n      add\n      0x00\n      keccak256\n        /* \"diceGame.sol\":3785:3804  game[gameId].player */\n      0x00\n      add\n        /* \"diceGame.sol\":3785:3819  game[gameId].player[playerAddress] */\n      0x00\n        /* \"diceGame.sol\":3805:3818  playerAddress */\n      dup4\n        /* \"diceGame.sol\":3785:3819  game[gameId].player[playerAddress] */\n      0xffffffffffffffffffffffffffffffffffffffff\n      and\n      0xffffffffffffffffffffffffffffffffffffffff\n      and\n      dup2\n      mstore\n      0x20\n      add\n      swap1\n      dup2\n      mstore\n      0x20\n      add\n      0x00\n      keccak256\n        /* \"diceGame.sol\":3785:3830  game[gameId].player[playerAddress].playerHash */\n      0x00\n      add\n        /* \"diceGame.sol\":3785:3843  game[gameId].player[playerAddress].playerHash = playerHash */\n      dup2\n      swap1\n      sstore\n      pop\n        /* \"diceGame.sol\":3900:3909  msg.value */\n      callvalue\n        /* \"diceGame.sol\":3854:3858  game */\n      0x06\n        /* \"diceGame.sol\":3854:3866  game[gameId] */\n      0x00\n        /* \"diceGame.sol\":3859:3865  gameId */\n      sload(0x01)\n        /* \"diceGame.sol\":3854:3866  game[gameId] */\n      dup2\n      mstore\n      0x20\n      add\n      swap1\n      dup2\n      mstore\n      0x20\n      add\n      0x00\n      keccak256\n        /* \"diceGame.sol\":3854:3873  game[gameId].player */\n      0x00\n      add\n        /* \"diceGame.sol\":3854:3888  game[gameId].player[playerAddress] */\n      0x00\n        /* \"diceGame.sol\":3874:3887  playerAddress */\n      dup4\n        /* \"diceGame.sol\":3854:3888  game[gameId].player[playerAddress] */\n      0xffffffffffffffffffffffffffffffffffffffff\n      and\n      0xffffffffffffffffffffffffffffffffffffffff\n      and\n      dup2\n      mstore\n      0x20\n      add\n      swap1\n      dup2\n      mstore\n      0x20\n      add\n      0x00\n      keccak256\n        /* \"diceGame.sol\":3854:3897  game[gameId].player[playerAddress].betValue */\n      0x01\n      add\n        /* \"diceGame.sol\":3854:3909  game[gameId].player[playerAddress].betValue = msg.value */\n      dup2\n      swap1\n      sstore\n      pop\n        /* \"diceGame.sol\":3920:3924  game */\n      0x06\n        /* \"diceGame.sol\":3920:3932  game[gameId] */\n      0x00\n        /* \"diceGame.sol\":3925:3931  gameId */\n      sload(0x01)\n        /* \"diceGame.sol\":3920:3932  game[gameId] */\n      dup2\n      mstore\n      0x20\n      add\n      swap1\n      dup2\n      mstore\n      0x20\n      add\n      0x00\n      keccak256\n        /* \"diceGame.sol\":3920:3948  game[gameId].playerAddresses */\n      0x01\n      add\n        /* \"diceGame.sol\":3954:3967  playerAddress */\n      dup2\n        /* \"diceGame.sol\":3920:3968  game[gameId].playerAddresses.push(playerAddress) */\n      swap1\n      dup1\n        /* \"--CODEGEN--\":39:40   */\n      0x01\n        /* \"--CODEGEN--\":33:36   */\n      dup2\n        /* \"--CODEGEN--\":27:37   */\n      sload\n        /* \"--CODEGEN--\":23:41   */\n      add\n        /* \"--CODEGEN--\":57:67   */\n      dup1\n        /* \"--CODEGEN--\":52:55   */\n      dup3\n        /* \"--CODEGEN--\":45:68   */\n      sstore\n        /* \"--CODEGEN--\":79:89   */\n      dup1\n        /* \"--CODEGEN--\":72:89   */\n      swap2\n      pop\n        /* \"--CODEGEN--\":0:93   */\n      pop\n        /* \"diceGame.sol\":3920:3968  game[gameId].playerAddresses.push(playerAddress) */\n      swap1\n      0x01\n      dup3\n      sub\n      swap1\n      0x00\n      mstore\n      keccak256(0x00, 0x20)\n      add\n      0x00\n      swap1\n      swap2\n      swap3\n      swap1\n      swap2\n      swap1\n      swap2\n      0x0100\n      exp\n      dup2\n      sload\n      dup2\n      0xffffffffffffffffffffffffffffffffffffffff\n      mul\n      not\n      and\n      swap1\n      dup4\n      0xffffffffffffffffffffffffffffffffffffffff\n      and\n      mul\n      or\n      swap1\n      sstore\n      pop\n      pop\n        /* \"diceGame.sol\":4007:4016  msg.value */\n      callvalue\n        /* \"diceGame.sol\":3979:3983  game */\n      0x06\n        /* \"diceGame.sol\":3979:3991  game[gameId] */\n      0x00\n        /* \"diceGame.sol\":3984:3990  gameId */\n      sload(0x01)\n        /* \"diceGame.sol\":3979:3991  game[gameId] */\n      dup2\n      mstore\n      0x20\n      add\n      swap1\n      dup2\n      mstore\n      0x20\n      add\n      0x00\n      keccak256\n        /* \"diceGame.sol\":3979:4003  game[gameId].gameBalance */\n      0x03\n      add\n      0x00\n        /* \"diceGame.sol\":3979:4016  game[gameId].gameBalance += msg.value */\n      dup3\n      dup3\n      sload\n      add\n      swap3\n      pop\n      pop\n      dup2\n      swap1\n      sstore\n      pop\n        /* \"diceGame.sol\":4062:4063  2 */\n      0x02\n        /* \"diceGame.sol\":4058:4059  3 */\n      0x03\n        /* \"diceGame.sol\":4046:4055  msg.value */\n      callvalue\n        /* \"diceGame.sol\":4046:4059  msg.value * 3 */\n      mul\n        /* \"diceGame.sol\":4046:4063  msg.value * 3 / 2 */\n      dup2\n      tag_106\n      jumpi\n      invalid\n    tag_106:\n      div\n        /* \"diceGame.sol\":4027:4042  mustHaveBalance */\n      0x05\n      0x00\n        /* \"diceGame.sol\":4027:4063  mustHaveBalance += msg.value * 3 / 2 */\n      dup3\n      dup3\n      sload\n      add\n      swap3\n      pop\n      pop\n      dup2\n      swap1\n      sstore\n      pop\n        /* \"diceGame.sol\":3179:4071  function setUserBetAndHash(bytes32 playerHash) external payable {\r... */\n      pop\n      pop\n      jump\t// out\n        /* \"diceGame.sol\":2486:3103  function newGame(uint8 dice1, uint8 dice2) external isManager between1and6(dice1, dice2) {\r... */\n    tag_44:\n        /* \"diceGame.sol\":782:789  manager */\n      0x00\n      dup1\n      swap1\n      sload\n      swap1\n      0x0100\n      exp\n      swap1\n      div\n      0xffffffffffffffffffffffffffffffffffffffff\n      and\n        /* \"diceGame.sol\":768:789  msg.sender == manager */\n      0xffffffffffffffffffffffffffffffffffffffff\n      and\n        /* \"diceGame.sol\":768:778  msg.sender */\n      caller\n        /* \"diceGame.sol\":768:789  msg.sender == manager */\n      0xffffffffffffffffffffffffffffffffffffffff\n      and\n      eq\n        /* \"diceGame.sol\":760:829  require(msg.sender == manager, \"Only manager can call this function\") */\n      tag_108\n      jumpi\n      mload(0x40)\n      0x08c379a000000000000000000000000000000000000000000000000000000000\n      dup2\n      mstore\n      0x04\n      add\n      dup1\n      dup1\n      0x20\n      add\n      dup3\n      dup2\n      sub\n      dup3\n      mstore\n      0x23\n      dup2\n      mstore\n      0x20\n      add\n      dup1\n      data_4a8d8e59ed510e06a8e0260cfe413b20861d9f571b155941f3970d9306e4b948\n      0x23\n      swap2\n      codecopy\n      0x40\n      add\n      swap2\n      pop\n      pop\n      mload(0x40)\n      dup1\n      swap2\n      sub\n      swap1\n      revert\n    tag_108:\n        /* \"diceGame.sol\":2561:2566  dice1 */\n      dup2\n        /* \"diceGame.sol\":2568:2573  dice2 */\n      dup2\n        /* \"diceGame.sol\":973:974  1 */\n      0x01\n        /* \"diceGame.sol\":964:969  dice1 */\n      dup3\n        /* \"diceGame.sol\":964:974  dice1 >= 1 */\n      0xff\n      and\n      lt\n      iszero\n        /* \"diceGame.sol\":964:988  dice1 >= 1 && dice1 <= 6 */\n      dup1\n      iszero\n      tag_110\n      jumpi\n      pop\n        /* \"diceGame.sol\":987:988  6 */\n      0x06\n        /* \"diceGame.sol\":978:983  dice1 */\n      dup3\n        /* \"diceGame.sol\":978:988  dice1 <= 6 */\n      0xff\n      and\n      gt\n      iszero\n        /* \"diceGame.sol\":964:988  dice1 >= 1 && dice1 <= 6 */\n    tag_110:\n        /* \"diceGame.sol\":964:1002  dice1 >= 1 && dice1 <= 6 && dice2 >= 1 */\n      dup1\n      iszero\n      tag_111\n      jumpi\n      pop\n        /* \"diceGame.sol\":1001:1002  1 */\n      0x01\n        /* \"diceGame.sol\":992:997  dice2 */\n      dup2\n        /* \"diceGame.sol\":992:1002  dice2 >= 1 */\n      0xff\n      and\n      lt\n      iszero\n        /* \"diceGame.sol\":964:1002  dice1 >= 1 && dice1 <= 6 && dice2 >= 1 */\n    tag_111:\n        /* \"diceGame.sol\":964:1016  dice1 >= 1 && dice1 <= 6 && dice2 >= 1 && dice2 <= 6 */\n      dup1\n      iszero\n      tag_112\n      jumpi\n      pop\n        /* \"diceGame.sol\":1015:1016  6 */\n      0x06\n        /* \"diceGame.sol\":1006:1011  dice2 */\n      dup2\n        /* \"diceGame.sol\":1006:1016  dice2 <= 6 */\n      0xff\n      and\n      gt\n      iszero\n        /* \"diceGame.sol\":964:1016  dice1 >= 1 && dice1 <= 6 && dice2 >= 1 && dice2 <= 6 */\n    tag_112:\n        /* \"diceGame.sol\":956:1061  require(dice1 >= 1 && dice1 <= 6 && dice2 >= 1 && dice2 <= 6, \"One of the dices are not between 1 and 6\") */\n      tag_113\n      jumpi\n      mload(0x40)\n      0x08c379a000000000000000000000000000000000000000000000000000000000\n      dup2\n      mstore\n      0x04\n      add\n      dup1\n      dup1\n      0x20\n      add\n      dup3\n      dup2\n      sub\n      dup3\n      mstore\n      0x28\n      dup2\n      mstore\n      0x20\n      add\n      dup1\n      data_6428a5983539401cb2b57c0ee2b56b6ef8869364b638e63cf47b89894855e1b7\n      0x28\n      swap2\n      codecopy\n      0x40\n      add\n      swap2\n      pop\n      pop\n      mload(0x40)\n      dup1\n      swap2\n      sub\n      swap1\n      revert\n    tag_113:\n        /* \"diceGame.sol\":2620:2622  90 */\n      0x5a\n        /* \"diceGame.sol\":2600:2617  prevGameStartTime */\n      sload(0x04)\n        /* \"diceGame.sol\":2594:2597  now */\n      timestamp\n        /* \"diceGame.sol\":2594:2617  now - prevGameStartTime */\n      sub\n        /* \"diceGame.sol\":2594:2622  now - prevGameStartTime > 90 */\n      gt\n        /* \"diceGame.sol\":2586:2649  require(now - prevGameStartTime > 90, \"Game started very fast\") */\n      tag_115\n      jumpi\n      mload(0x40)\n      0x08c379a000000000000000000000000000000000000000000000000000000000\n      dup2\n      mstore\n      0x04\n      add\n      dup1\n      dup1\n      0x20\n      add\n      dup3\n      dup2\n      sub\n      dup3\n      mstore\n      0x16\n      dup2\n      mstore\n      0x20\n      add\n      dup1\n      0x47616d6520737461727465642076657279206661737400000000000000000000\n      dup2\n      mstore\n      pop\n      0x20\n      add\n      swap2\n      pop\n      pop\n      mload(0x40)\n      dup1\n      swap2\n      sub\n      swap1\n      revert\n    tag_115:\n        /* \"diceGame.sol\":2665:2669  game */\n      0x06\n        /* \"diceGame.sol\":2665:2677  game[gameId] */\n      0x00\n        /* \"diceGame.sol\":2670:2676  gameId */\n      sload(0x01)\n        /* \"diceGame.sol\":2665:2677  game[gameId] */\n      dup2\n      mstore\n      0x20\n      add\n      swap1\n      dup2\n      mstore\n      0x20\n      add\n      0x00\n      keccak256\n        /* \"diceGame.sol\":2665:2689  game[gameId].gameCrashed */\n      0x07\n      add\n      0x00\n      swap1\n      sload\n      swap1\n      0x0100\n      exp\n      swap1\n      div\n      0xff\n      and\n        /* \"diceGame.sol\":2660:2851  if (!game[gameId].gameCrashed) {\r... */\n      tag_116\n      jumpi\n        /* \"diceGame.sol\":2727:2732  dice1 */\n      dup4\n        /* \"diceGame.sol\":2706:2710  game */\n      0x06\n        /* \"diceGame.sol\":2706:2718  game[gameId] */\n      0x00\n        /* \"diceGame.sol\":2711:2717  gameId */\n      sload(0x01)\n        /* \"diceGame.sol\":2706:2718  game[gameId] */\n      dup2\n      mstore\n      0x20\n      add\n      swap1\n      dup2\n      mstore\n      0x20\n      add\n      0x00\n      keccak256\n        /* \"diceGame.sol\":2706:2724  game[gameId].dice1 */\n      0x02\n      add\n      0x00\n        /* \"diceGame.sol\":2706:2732  game[gameId].dice1 = dice1 */\n      0x0100\n      exp\n      dup2\n      sload\n      dup2\n      0xff\n      mul\n      not\n      and\n      swap1\n      dup4\n      0xff\n      and\n      mul\n      or\n      swap1\n      sstore\n      pop\n        /* \"diceGame.sol\":2768:2773  dice2 */\n      dup3\n        /* \"diceGame.sol\":2747:2751  game */\n      0x06\n        /* \"diceGame.sol\":2747:2759  game[gameId] */\n      0x00\n        /* \"diceGame.sol\":2752:2758  gameId */\n      sload(0x01)\n        /* \"diceGame.sol\":2747:2759  game[gameId] */\n      dup2\n      mstore\n      0x20\n      add\n      swap1\n      dup2\n      mstore\n      0x20\n      add\n      0x00\n      keccak256\n        /* \"diceGame.sol\":2747:2765  game[gameId].dice2 */\n      0x02\n      add\n      0x01\n        /* \"diceGame.sol\":2747:2773  game[gameId].dice2 = dice2 */\n      0x0100\n      exp\n      dup2\n      sload\n      dup2\n      0xff\n      mul\n      not\n      and\n      swap1\n      dup4\n      0xff\n      and\n      mul\n      or\n      swap1\n      sstore\n      pop\n        /* \"diceGame.sol\":2815:2819  game */\n      0x06\n        /* \"diceGame.sol\":2815:2827  game[gameId] */\n      0x00\n        /* \"diceGame.sol\":2820:2826  gameId */\n      sload(0x01)\n        /* \"diceGame.sol\":2815:2827  game[gameId] */\n      dup2\n      mstore\n      0x20\n      add\n      swap1\n      dup2\n      mstore\n      0x20\n      add\n      0x00\n      keccak256\n        /* \"diceGame.sol\":2815:2839  game[gameId].gameBalance */\n      0x03\n      add\n      sload\n        /* \"diceGame.sol\":2788:2792  game */\n      0x06\n        /* \"diceGame.sol\":2788:2800  game[gameId] */\n      0x00\n        /* \"diceGame.sol\":2793:2799  gameId */\n      sload(0x01)\n        /* \"diceGame.sol\":2788:2800  game[gameId] */\n      dup2\n      mstore\n      0x20\n      add\n      swap1\n      dup2\n      mstore\n      0x20\n      add\n      0x00\n      keccak256\n        /* \"diceGame.sol\":2788:2812  game[gameId].restBalance */\n      0x04\n      add\n        /* \"diceGame.sol\":2788:2839  game[gameId].restBalance = game[gameId].gameBalance */\n      dup2\n      swap1\n      sstore\n      pop\n        /* \"diceGame.sol\":2660:2851  if (!game[gameId].gameCrashed) {\r... */\n    tag_116:\n        /* \"diceGame.sol\":2861:2867  gameId */\n      0x01\n      0x00\n        /* \"diceGame.sol\":2861:2869  gameId++ */\n      dup2\n      sload\n      dup1\n      swap3\n      swap2\n      swap1\n      0x01\n      add\n      swap2\n      swap1\n      pop\n      sstore\n      pop\n        /* \"diceGame.sol\":2906:2924  nextGameMinimumBet */\n      sload(0x02)\n        /* \"diceGame.sol\":2880:2884  game */\n      0x06\n        /* \"diceGame.sol\":2880:2892  game[gameId] */\n      0x00\n        /* \"diceGame.sol\":2885:2891  gameId */\n      sload(0x01)\n        /* \"diceGame.sol\":2880:2892  game[gameId] */\n      dup2\n      mstore\n      0x20\n      add\n      swap1\n      dup2\n      mstore\n      0x20\n      add\n      0x00\n      keccak256\n        /* \"diceGame.sol\":2880:2903  game[gameId].minimumBet */\n      0x05\n      add\n        /* \"diceGame.sol\":2880:2924  game[gameId].minimumBet = nextGameMinimumBet */\n      dup2\n      swap1\n      sstore\n      pop\n        /* \"diceGame.sol\":2961:2979  nextGameMaximumBet */\n      sload(0x03)\n        /* \"diceGame.sol\":2935:2939  game */\n      0x06\n        /* \"diceGame.sol\":2935:2947  game[gameId] */\n      0x00\n        /* \"diceGame.sol\":2940:2946  gameId */\n      sload(0x01)\n        /* \"diceGame.sol\":2935:2947  game[gameId] */\n      dup2\n      mstore\n      0x20\n      add\n      swap1\n      dup2\n      mstore\n      0x20\n      add\n      0x00\n      keccak256\n        /* \"diceGame.sol\":2935:2958  game[gameId].maximumBet */\n      0x06\n      add\n        /* \"diceGame.sol\":2935:2979  game[gameId].maximumBet = nextGameMaximumBet */\n      dup2\n      swap1\n      sstore\n      pop\n        /* \"diceGame.sol\":3003:3004  4 */\n      0x04\n        /* \"diceGame.sol\":2994:3000  gameId */\n      sload(0x01)\n        /* \"diceGame.sol\":2994:3004  gameId > 4 */\n      gt\n        /* \"diceGame.sol\":2990:3061  if (gameId > 4) mustHaveBalance -= game[gameId - 4].restBalance * 3 / 2 */\n      iszero\n      tag_117\n      jumpi\n        /* \"diceGame.sol\":3060:3061  2 */\n      0x02\n        /* \"diceGame.sol\":3056:3057  3 */\n      0x03\n        /* \"diceGame.sol\":3025:3029  game */\n      0x06\n        /* \"diceGame.sol\":3025:3041  game[gameId - 4] */\n      0x00\n        /* \"diceGame.sol\":3039:3040  4 */\n      0x04\n        /* \"diceGame.sol\":3030:3036  gameId */\n      sload(0x01)\n        /* \"diceGame.sol\":3030:3040  gameId - 4 */\n      sub\n        /* \"diceGame.sol\":3025:3041  game[gameId - 4] */\n      dup2\n      mstore\n      0x20\n      add\n      swap1\n      dup2\n      mstore\n      0x20\n      add\n      0x00\n      keccak256\n        /* \"diceGame.sol\":3025:3053  game[gameId - 4].restBalance */\n      0x04\n      add\n      sload\n        /* \"diceGame.sol\":3025:3057  game[gameId - 4].restBalance * 3 */\n      mul\n        /* \"diceGame.sol\":3025:3061  game[gameId - 4].restBalance * 3 / 2 */\n      dup2\n      tag_118\n      jumpi\n      invalid\n    tag_118:\n      div\n        /* \"diceGame.sol\":3006:3021  mustHaveBalance */\n      0x05\n      0x00\n        /* \"diceGame.sol\":3006:3061  mustHaveBalance -= game[gameId - 4].restBalance * 3 / 2 */\n      dup3\n      dup3\n      sload\n      sub\n      swap3\n      pop\n      pop\n      dup2\n      swap1\n      sstore\n      pop\n        /* \"diceGame.sol\":2990:3061  if (gameId > 4) mustHaveBalance -= game[gameId - 4].restBalance * 3 / 2 */\n    tag_117:\n        /* \"diceGame.sol\":3092:3095  now */\n      timestamp\n        /* \"diceGame.sol\":3072:3089  prevGameStartTime */\n      0x04\n        /* \"diceGame.sol\":3072:3095  prevGameStartTime = now */\n      dup2\n      swap1\n      sstore\n      pop\n        /* \"diceGame.sol\":840:841  _ */\n      pop\n      pop\n        /* \"diceGame.sol\":2486:3103  function newGame(uint8 dice1, uint8 dice2) external isManager between1and6(dice1, dice2) {\r... */\n      pop\n      pop\n      jump\t// out\n        /* \"diceGame.sol\":7231:7398  function needTransferMoney() external view isManager returns (bool) {\r... */\n    tag_47:\n        /* \"diceGame.sol\":7293:7297  bool */\n      0x00\n        /* \"diceGame.sol\":782:789  manager */\n      dup1\n      0x00\n      swap1\n      sload\n      swap1\n      0x0100\n      exp\n      swap1\n      div\n      0xffffffffffffffffffffffffffffffffffffffff\n      and\n        /* \"diceGame.sol\":768:789  msg.sender == manager */\n      0xffffffffffffffffffffffffffffffffffffffff\n      and\n        /* \"diceGame.sol\":768:778  msg.sender */\n      caller\n        /* \"diceGame.sol\":768:789  msg.sender == manager */\n      0xffffffffffffffffffffffffffffffffffffffff\n      and\n      eq\n        /* \"diceGame.sol\":760:829  require(msg.sender == manager, \"Only manager can call this function\") */\n      tag_120\n      jumpi\n      mload(0x40)\n      0x08c379a000000000000000000000000000000000000000000000000000000000\n      dup2\n      mstore\n      0x04\n      add\n      dup1\n      dup1\n      0x20\n      add\n      dup3\n      dup2\n      sub\n      dup3\n      mstore\n      0x23\n      dup2\n      mstore\n      0x20\n      add\n      dup1\n      data_4a8d8e59ed510e06a8e0260cfe413b20861d9f571b155941f3970d9306e4b948\n      0x23\n      swap2\n      codecopy\n      0x40\n      add\n      swap2\n      pop\n      pop\n      mload(0x40)\n      dup1\n      swap2\n      sub\n      swap1\n      revert\n    tag_120:\n        /* \"diceGame.sol\":7389:7390  2 */\n      0x02\n        /* \"diceGame.sol\":7385:7386  3 */\n      0x03\n        /* \"diceGame.sol\":7359:7363  game */\n      0x06\n        /* \"diceGame.sol\":7359:7371  game[gameId] */\n      0x00\n        /* \"diceGame.sol\":7364:7370  gameId */\n      sload(0x01)\n        /* \"diceGame.sol\":7359:7371  game[gameId] */\n      dup2\n      mstore\n      0x20\n      add\n      swap1\n      dup2\n      mstore\n      0x20\n      add\n      0x00\n      keccak256\n        /* \"diceGame.sol\":7359:7382  game[gameId].maximumBet */\n      0x06\n      add\n      sload\n        /* \"diceGame.sol\":7359:7386  game[gameId].maximumBet * 3 */\n      mul\n        /* \"diceGame.sol\":7359:7390  game[gameId].maximumBet * 3 / 2 */\n      dup2\n      tag_122\n      jumpi\n      invalid\n    tag_122:\n      div\n        /* \"diceGame.sol\":7341:7356  mustHaveBalance */\n      sload(0x05)\n        /* \"diceGame.sol\":7325:7329  this */\n      address\n        /* \"diceGame.sol\":7317:7338  address(this).balance */\n      0xffffffffffffffffffffffffffffffffffffffff\n      and\n      balance\n        /* \"diceGame.sol\":7317:7356  address(this).balance - mustHaveBalance */\n      sub\n        /* \"diceGame.sol\":7317:7390  address(this).balance - mustHaveBalance < game[gameId].maximumBet * 3 / 2 */\n      lt\n        /* \"diceGame.sol\":7310:7390  return address(this).balance - mustHaveBalance < game[gameId].maximumBet * 3 / 2 */\n      swap1\n      pop\n        /* \"diceGame.sol\":7231:7398  function needTransferMoney() external view isManager returns (bool) {\r... */\n      swap1\n      jump\t// out\n        /* \"diceGame.sol\":53:75  address public manager */\n    tag_50:\n      0x00\n      dup1\n      swap1\n      sload\n      swap1\n      0x0100\n      exp\n      swap1\n      div\n      0xffffffffffffffffffffffffffffffffffffffff\n      and\n      dup2\n      jump\t// out\n        /* \"diceGame.sol\":5147:5840  function forceReceiveMoney() external {\r... */\n    tag_53:\n        /* \"diceGame.sol\":5230:5240  30 minutes */\n      0x0708\n        /* \"diceGame.sol\":5210:5227  prevGameStartTime */\n      sload(0x04)\n        /* \"diceGame.sol\":5204:5207  now */\n      timestamp\n        /* \"diceGame.sol\":5204:5227  now - prevGameStartTime */\n      sub\n        /* \"diceGame.sol\":5204:5240  now - prevGameStartTime > 30 minutes */\n      gt\n        /* \"diceGame.sol\":5196:5311  require(now - prevGameStartTime > 30 minutes, \"You can force receive money only after 30 minutes of previous game\") */\n      tag_124\n      jumpi\n      mload(0x40)\n      0x08c379a000000000000000000000000000000000000000000000000000000000\n      dup2\n      mstore\n      0x04\n      add\n      dup1\n      dup1\n      0x20\n      add\n      dup3\n      dup2\n      sub\n      dup3\n      mstore\n      0x42\n      dup2\n      mstore\n      0x20\n      add\n      dup1\n      data_3a927adfdfc2561b6ed5dfbe81d847499452a585a6f63e12bfef7e30e6f4e374\n      0x42\n      swap2\n      codecopy\n      0x60\n      add\n      swap2\n      pop\n      pop\n      mload(0x40)\n      dup1\n      swap2\n      sub\n      swap1\n      revert\n    tag_124:\n        /* \"diceGame.sol\":5331:5335  game */\n      0x06\n        /* \"diceGame.sol\":5331:5343  game[gameId] */\n      0x00\n        /* \"diceGame.sol\":5336:5342  gameId */\n      sload(0x01)\n        /* \"diceGame.sol\":5331:5343  game[gameId] */\n      dup2\n      mstore\n      0x20\n      add\n      swap1\n      dup2\n      mstore\n      0x20\n      add\n      0x00\n      keccak256\n        /* \"diceGame.sol\":5331:5355  game[gameId].gameCrashed */\n      0x07\n      add\n      0x00\n      swap1\n      sload\n      swap1\n      0x0100\n      exp\n      swap1\n      div\n      0xff\n      and\n        /* \"diceGame.sol\":5330:5355  !game[gameId].gameCrashed */\n      iszero\n        /* \"diceGame.sol\":5322:5412  require(!game[gameId].gameCrashed, \"Game was crashed and players already receive a money\") */\n      tag_125\n      jumpi\n      mload(0x40)\n      0x08c379a000000000000000000000000000000000000000000000000000000000\n      dup2\n      mstore\n      0x04\n      add\n      dup1\n      dup1\n      0x20\n      add\n      dup3\n      dup2\n      sub\n      dup3\n      mstore\n      0x34\n      dup2\n      mstore\n      0x20\n      add\n      dup1\n      data_011ef643292f394b7eaf6f298680e8c07121f6d62a56a380e32caea39ebed0de\n      0x34\n      swap2\n      codecopy\n      0x40\n      add\n      swap2\n      pop\n      pop\n      mload(0x40)\n      dup1\n      swap2\n      sub\n      swap1\n      revert\n    tag_125:\n        /* \"diceGame.sol\":5450:5454  true */\n      0x01\n        /* \"diceGame.sol\":5423:5427  game */\n      0x06\n        /* \"diceGame.sol\":5423:5435  game[gameId] */\n      0x00\n        /* \"diceGame.sol\":5428:5434  gameId */\n      sload(0x01)\n        /* \"diceGame.sol\":5423:5435  game[gameId] */\n      dup2\n      mstore\n      0x20\n      add\n      swap1\n      dup2\n      mstore\n      0x20\n      add\n      0x00\n      keccak256\n        /* \"diceGame.sol\":5423:5447  game[gameId].gameCrashed */\n      0x07\n      add\n      0x00\n        /* \"diceGame.sol\":5423:5454  game[gameId].gameCrashed = true */\n      0x0100\n      exp\n      dup2\n      sload\n      dup2\n      0xff\n      mul\n      not\n      and\n      swap1\n      dup4\n      iszero\n      iszero\n      mul\n      or\n      swap1\n      sstore\n      pop\n        /* \"diceGame.sol\":5465:5500  address payable[] storage addresses */\n      0x00\n        /* \"diceGame.sol\":5503:5507  game */\n      0x06\n        /* \"diceGame.sol\":5503:5515  game[gameId] */\n      0x00\n        /* \"diceGame.sol\":5508:5514  gameId */\n      sload(0x01)\n        /* \"diceGame.sol\":5503:5515  game[gameId] */\n      dup2\n      mstore\n      0x20\n      add\n      swap1\n      dup2\n      mstore\n      0x20\n      add\n      0x00\n      keccak256\n        /* \"diceGame.sol\":5503:5531  game[gameId].playerAddresses */\n      0x01\n      add\n        /* \"diceGame.sol\":5465:5531  address payable[] storage addresses = game[gameId].playerAddresses */\n      swap1\n      pop\n        /* \"diceGame.sol\":5542:5553  uint length */\n      0x00\n        /* \"diceGame.sol\":5556:5565  addresses */\n      dup2\n        /* \"diceGame.sol\":5556:5572  addresses.length */\n      dup1\n      sload\n      swap1\n      pop\n        /* \"diceGame.sol\":5542:5572  uint length = addresses.length */\n      swap1\n      pop\n        /* \"diceGame.sol\":5588:5595  uint _i */\n      0x00\n        /* \"diceGame.sol\":5598:5599  0 */\n      dup1\n        /* \"diceGame.sol\":5588:5599  uint _i = 0 */\n      swap1\n      pop\n        /* \"diceGame.sol\":5583:5779  for (uint _i = 0; _i < length; _i++) {\r... */\n    tag_126:\n        /* \"diceGame.sol\":5606:5612  length */\n      dup2\n        /* \"diceGame.sol\":5601:5603  _i */\n      dup2\n        /* \"diceGame.sol\":5601:5612  _i < length */\n      lt\n        /* \"diceGame.sol\":5583:5779  for (uint _i = 0; _i < length; _i++) {\r... */\n      iszero\n      tag_127\n      jumpi\n        /* \"diceGame.sol\":5635:5644  addresses */\n      dup3\n        /* \"diceGame.sol\":5645:5647  _i */\n      dup2\n        /* \"diceGame.sol\":5635:5648  addresses[_i] */\n      dup2\n      sload\n      dup2\n      lt\n      tag_129\n      jumpi\n      invalid\n    tag_129:\n      swap1\n      0x00\n      mstore\n      keccak256(0x00, 0x20)\n      add\n      0x00\n      swap1\n      sload\n      swap1\n      0x0100\n      exp\n      swap1\n      div\n      0xffffffffffffffffffffffffffffffffffffffff\n      and\n        /* \"diceGame.sol\":5635:5657  addresses[_i].transfer */\n      0xffffffffffffffffffffffffffffffffffffffff\n      and\n        /* \"diceGame.sol\":5635:5702  addresses[_i].transfer(game[gameId].player[addresses[_i]].betValue) */\n      0x08fc\n        /* \"diceGame.sol\":5658:5662  game */\n      0x06\n        /* \"diceGame.sol\":5658:5670  game[gameId] */\n      0x00\n        /* \"diceGame.sol\":5663:5669  gameId */\n      sload(0x01)\n        /* \"diceGame.sol\":5658:5670  game[gameId] */\n      dup2\n      mstore\n      0x20\n      add\n      swap1\n      dup2\n      mstore\n      0x20\n      add\n      0x00\n      keccak256\n        /* \"diceGame.sol\":5658:5677  game[gameId].player */\n      0x00\n      add\n        /* \"diceGame.sol\":5658:5692  game[gameId].player[addresses[_i]] */\n      0x00\n        /* \"diceGame.sol\":5678:5687  addresses */\n      dup7\n        /* \"diceGame.sol\":5688:5690  _i */\n      dup6\n        /* \"diceGame.sol\":5678:5691  addresses[_i] */\n      dup2\n      sload\n      dup2\n      lt\n      tag_131\n      jumpi\n      invalid\n    tag_131:\n      swap1\n      0x00\n      mstore\n      keccak256(0x00, 0x20)\n      add\n      0x00\n      swap1\n      sload\n      swap1\n      0x0100\n      exp\n      swap1\n      div\n      0xffffffffffffffffffffffffffffffffffffffff\n      and\n        /* \"diceGame.sol\":5658:5692  game[gameId].player[addresses[_i]] */\n      0xffffffffffffffffffffffffffffffffffffffff\n      and\n      0xffffffffffffffffffffffffffffffffffffffff\n      and\n      dup2\n      mstore\n      0x20\n      add\n      swap1\n      dup2\n      mstore\n      0x20\n      add\n      0x00\n      keccak256\n        /* \"diceGame.sol\":5658:5701  game[gameId].player[addresses[_i]].betValue */\n      0x01\n      add\n      sload\n        /* \"diceGame.sol\":5635:5702  addresses[_i].transfer(game[gameId].player[addresses[_i]].betValue) */\n      swap1\n      dup2\n      iszero\n      mul\n      swap1\n      mload(0x40)\n      0x00\n      mload(0x40)\n      dup1\n      dup4\n      sub\n      dup2\n      dup6\n      dup9\n      dup9\n      call\n      swap4\n      pop\n      pop\n      pop\n      pop\n      iszero\n        /* \"--CODEGEN--\":8:17   */\n      dup1\n        /* \"--CODEGEN--\":5:7   */\n      iszero\n      tag_133\n      jumpi\n        /* \"--CODEGEN--\":45:61   */\n      returndatasize\n        /* \"--CODEGEN--\":42:43   */\n      0x00\n        /* \"--CODEGEN--\":39:40   */\n      dup1\n        /* \"--CODEGEN--\":24:62   */\n      returndatacopy\n        /* \"--CODEGEN--\":77:93   */\n      returndatasize\n        /* \"--CODEGEN--\":74:75   */\n      0x00\n        /* \"--CODEGEN--\":67:94   */\n      revert\n        /* \"--CODEGEN--\":5:7   */\n    tag_133:\n        /* \"diceGame.sol\":5635:5702  addresses[_i].transfer(game[gameId].player[addresses[_i]].betValue) */\n      pop\n        /* \"diceGame.sol\":5763:5767  true */\n      0x01\n        /* \"diceGame.sol\":5717:5721  game */\n      0x06\n        /* \"diceGame.sol\":5717:5729  game[gameId] */\n      0x00\n        /* \"diceGame.sol\":5722:5728  gameId */\n      sload(0x01)\n        /* \"diceGame.sol\":5717:5729  game[gameId] */\n      dup2\n      mstore\n      0x20\n      add\n      swap1\n      dup2\n      mstore\n      0x20\n      add\n      0x00\n      keccak256\n        /* \"diceGame.sol\":5717:5736  game[gameId].player */\n      0x00\n      add\n        /* \"diceGame.sol\":5717:5751  game[gameId].player[addresses[_i]] */\n      0x00\n        /* \"diceGame.sol\":5737:5746  addresses */\n      dup6\n        /* \"diceGame.sol\":5747:5749  _i */\n      dup5\n        /* \"diceGame.sol\":5737:5750  addresses[_i] */\n      dup2\n      sload\n      dup2\n      lt\n      tag_134\n      jumpi\n      invalid\n    tag_134:\n      swap1\n      0x00\n      mstore\n      keccak256(0x00, 0x20)\n      add\n      0x00\n      swap1\n      sload\n      swap1\n      0x0100\n      exp\n      swap1\n      div\n      0xffffffffffffffffffffffffffffffffffffffff\n      and\n        /* \"diceGame.sol\":5717:5751  game[gameId].player[addresses[_i]] */\n      0xffffffffffffffffffffffffffffffffffffffff\n      and\n      0xffffffffffffffffffffffffffffffffffffffff\n      and\n      dup2\n      mstore\n      0x20\n      add\n      swap1\n      dup2\n      mstore\n      0x20\n      add\n      0x00\n      keccak256\n        /* \"diceGame.sol\":5717:5760  game[gameId].player[addresses[_i]].received */\n      0x02\n      add\n      0x00\n        /* \"diceGame.sol\":5717:5767  game[gameId].player[addresses[_i]].received = true */\n      0x0100\n      exp\n      dup2\n      sload\n      dup2\n      0xff\n      mul\n      not\n      and\n      swap1\n      dup4\n      iszero\n      iszero\n      mul\n      or\n      swap1\n      sstore\n      pop\n        /* \"diceGame.sol\":5614:5618  _i++ */\n      dup1\n      dup1\n      0x01\n      add\n      swap2\n      pop\n      pop\n        /* \"diceGame.sol\":5583:5779  for (uint _i = 0; _i < length; _i++) {\r... */\n      jump(tag_126)\n    tag_127:\n      pop\n        /* \"diceGame.sol\":5808:5812  game */\n      0x06\n        /* \"diceGame.sol\":5808:5820  game[gameId] */\n      0x00\n        /* \"diceGame.sol\":5813:5819  gameId */\n      sload(0x01)\n        /* \"diceGame.sol\":5808:5820  game[gameId] */\n      dup2\n      mstore\n      0x20\n      add\n      swap1\n      dup2\n      mstore\n      0x20\n      add\n      0x00\n      keccak256\n        /* \"diceGame.sol\":5808:5832  game[gameId].gameBalance */\n      0x03\n      add\n      sload\n        /* \"diceGame.sol\":5789:5804  mustHaveBalance */\n      0x05\n      0x00\n        /* \"diceGame.sol\":5789:5832  mustHaveBalance -= game[gameId].gameBalance */\n      dup3\n      dup3\n      sload\n      sub\n      swap3\n      pop\n      pop\n      dup2\n      swap1\n      sstore\n      pop\n        /* \"diceGame.sol\":5147:5840  function forceReceiveMoney() external {\r... */\n      pop\n      pop\n      jump\t// out\n        /* \"diceGame.sol\":6915:7031  function getContractBalance() external view isManager returns (uint) {\r... */\n    tag_56:\n        /* \"diceGame.sol\":6978:6982  uint */\n      0x00\n        /* \"diceGame.sol\":782:789  manager */\n      dup1\n      0x00\n      swap1\n      sload\n      swap1\n      0x0100\n      exp\n      swap1\n      div\n      0xffffffffffffffffffffffffffffffffffffffff\n      and\n        /* \"diceGame.sol\":768:789  msg.sender == manager */\n      0xffffffffffffffffffffffffffffffffffffffff\n      and\n        /* \"diceGame.sol\":768:778  msg.sender */\n      caller\n        /* \"diceGame.sol\":768:789  msg.sender == manager */\n      0xffffffffffffffffffffffffffffffffffffffff\n      and\n      eq\n        /* \"diceGame.sol\":760:829  require(msg.sender == manager, \"Only manager can call this function\") */\n      tag_137\n      jumpi\n      mload(0x40)\n      0x08c379a000000000000000000000000000000000000000000000000000000000\n      dup2\n      mstore\n      0x04\n      add\n      dup1\n      dup1\n      0x20\n      add\n      dup3\n      dup2\n      sub\n      dup3\n      mstore\n      0x23\n      dup2\n      mstore\n      0x20\n      add\n      dup1\n      data_4a8d8e59ed510e06a8e0260cfe413b20861d9f571b155941f3970d9306e4b948\n      0x23\n      swap2\n      codecopy\n      0x40\n      add\n      swap2\n      pop\n      pop\n      mload(0x40)\n      dup1\n      swap2\n      sub\n      swap1\n      revert\n    tag_137:\n        /* \"diceGame.sol\":7010:7014  this */\n      address\n        /* \"diceGame.sol\":7002:7023  address(this).balance */\n      0xffffffffffffffffffffffffffffffffffffffff\n      and\n      balance\n        /* \"diceGame.sol\":6995:7023  return address(this).balance */\n      swap1\n      pop\n        /* \"diceGame.sol\":6915:7031  function getContractBalance() external view isManager returns (uint) {\r... */\n      swap1\n      jump\t// out\n        /* \"diceGame.sol\":144:174  uint public nextGameMaximumBet */\n    tag_59:\n      sload(0x03)\n      dup2\n      jump\t// out\n        /* \"diceGame.sol\":107:137  uint public nextGameMinimumBet */\n    tag_62:\n      sload(0x02)\n      dup2\n      jump\t// out\n        /* \"diceGame.sol\":2211:2454  function getAllRequiredMoney() isManager external {\r... */\n    tag_65:\n        /* \"diceGame.sol\":782:789  manager */\n      0x00\n      dup1\n      swap1\n      sload\n      swap1\n      0x0100\n      exp\n      swap1\n      div\n      0xffffffffffffffffffffffffffffffffffffffff\n      and\n        /* \"diceGame.sol\":768:789  msg.sender == manager */\n      0xffffffffffffffffffffffffffffffffffffffff\n      and\n        /* \"diceGame.sol\":768:778  msg.sender */\n      caller\n        /* \"diceGame.sol\":768:789  msg.sender == manager */\n      0xffffffffffffffffffffffffffffffffffffffff\n      and\n      eq\n        /* \"diceGame.sol\":760:829  require(msg.sender == manager, \"Only manager can call this function\") */\n      tag_140\n      jumpi\n      mload(0x40)\n      0x08c379a000000000000000000000000000000000000000000000000000000000\n      dup2\n      mstore\n      0x04\n      add\n      dup1\n      dup1\n      0x20\n      add\n      dup3\n      dup2\n      sub\n      dup3\n      mstore\n      0x23\n      dup2\n      mstore\n      0x20\n      add\n      dup1\n      data_4a8d8e59ed510e06a8e0260cfe413b20861d9f571b155941f3970d9306e4b948\n      0x23\n      swap2\n      codecopy\n      0x40\n      add\n      swap2\n      pop\n      pop\n      mload(0x40)\n      dup1\n      swap2\n      sub\n      swap1\n      revert\n    tag_140:\n        /* \"diceGame.sol\":2304:2319  mustHaveBalance */\n      sload(0x05)\n        /* \"diceGame.sol\":2288:2292  this */\n      address\n        /* \"diceGame.sol\":2280:2301  address(this).balance */\n      0xffffffffffffffffffffffffffffffffffffffff\n      and\n      balance\n        /* \"diceGame.sol\":2280:2319  address(this).balance > mustHaveBalance */\n      gt\n        /* \"diceGame.sol\":2272:2375  require(address(this).balance > mustHaveBalance, \"Contract balance is not more than must have balance\") */\n      tag_142\n      jumpi\n      mload(0x40)\n      0x08c379a000000000000000000000000000000000000000000000000000000000\n      dup2\n      mstore\n      0x04\n      add\n      dup1\n      dup1\n      0x20\n      add\n      dup3\n      dup2\n      sub\n      dup3\n      mstore\n      0x33\n      dup2\n      mstore\n      0x20\n      add\n      dup1\n      data_8e9a7bbeb44bbc9c76ae525008f06129af99ded9a79c9e72e5e941f50285377c\n      0x33\n      swap2\n      codecopy\n      0x40\n      add\n      swap2\n      pop\n      pop\n      mload(0x40)\n      dup1\n      swap2\n      sub\n      swap1\n      revert\n    tag_142:\n        /* \"diceGame.sol\":2386:2396  msg.sender */\n      caller\n        /* \"diceGame.sol\":2386:2405  msg.sender.transfer */\n      0xffffffffffffffffffffffffffffffffffffffff\n      and\n        /* \"diceGame.sol\":2386:2446  msg.sender.transfer(address(this).balance - mustHaveBalance) */\n      0x08fc\n        /* \"diceGame.sol\":2430:2445  mustHaveBalance */\n      sload(0x05)\n        /* \"diceGame.sol\":2414:2418  this */\n      address\n        /* \"diceGame.sol\":2406:2427  address(this).balance */\n      0xffffffffffffffffffffffffffffffffffffffff\n      and\n      balance\n        /* \"diceGame.sol\":2406:2445  address(this).balance - mustHaveBalance */\n      sub\n        /* \"diceGame.sol\":2386:2446  msg.sender.transfer(address(this).balance - mustHaveBalance) */\n      swap1\n      dup2\n      iszero\n      mul\n      swap1\n      mload(0x40)\n      0x00\n      mload(0x40)\n      dup1\n      dup4\n      sub\n      dup2\n      dup6\n      dup9\n      dup9\n      call\n      swap4\n      pop\n      pop\n      pop\n      pop\n      iszero\n        /* \"--CODEGEN--\":8:17   */\n      dup1\n        /* \"--CODEGEN--\":5:7   */\n      iszero\n      tag_143\n      jumpi\n        /* \"--CODEGEN--\":45:61   */\n      returndatasize\n        /* \"--CODEGEN--\":42:43   */\n      0x00\n        /* \"--CODEGEN--\":39:40   */\n      dup1\n        /* \"--CODEGEN--\":24:62   */\n      returndatacopy\n        /* \"--CODEGEN--\":77:93   */\n      returndatasize\n        /* \"--CODEGEN--\":74:75   */\n      0x00\n        /* \"--CODEGEN--\":67:94   */\n      revert\n        /* \"--CODEGEN--\":5:7   */\n    tag_143:\n        /* \"diceGame.sol\":2386:2446  msg.sender.transfer(address(this).balance - mustHaveBalance) */\n      pop\n        /* \"diceGame.sol\":2211:2454  function getAllRequiredMoney() isManager external {\r... */\n      jump\t// out\n        /* \"diceGame.sol\":6435:6629  function setNextGameMinimumBet(uint _nextGameMinimumBet) external isManager canSetMinOrMaxBet(_nextGameMinimumBet, nextGameMaximumBet) {\r... */\n    tag_69:\n        /* \"diceGame.sol\":782:789  manager */\n      0x00\n      dup1\n      swap1\n      sload\n      swap1\n      0x0100\n      exp\n      swap1\n      div\n      0xffffffffffffffffffffffffffffffffffffffff\n      and\n        /* \"diceGame.sol\":768:789  msg.sender == manager */\n      0xffffffffffffffffffffffffffffffffffffffff\n      and\n        /* \"diceGame.sol\":768:778  msg.sender */\n      caller\n        /* \"diceGame.sol\":768:789  msg.sender == manager */\n      0xffffffffffffffffffffffffffffffffffffffff\n      and\n      eq\n        /* \"diceGame.sol\":760:829  require(msg.sender == manager, \"Only manager can call this function\") */\n      tag_145\n      jumpi\n      mload(0x40)\n      0x08c379a000000000000000000000000000000000000000000000000000000000\n      dup2\n      mstore\n      0x04\n      add\n      dup1\n      dup1\n      0x20\n      add\n      dup3\n      dup2\n      sub\n      dup3\n      mstore\n      0x23\n      dup2\n      mstore\n      0x20\n      add\n      dup1\n      data_4a8d8e59ed510e06a8e0260cfe413b20861d9f571b155941f3970d9306e4b948\n      0x23\n      swap2\n      codecopy\n      0x40\n      add\n      swap2\n      pop\n      pop\n      mload(0x40)\n      dup1\n      swap2\n      sub\n      swap1\n      revert\n    tag_145:\n        /* \"diceGame.sol\":6529:6548  _nextGameMinimumBet */\n      dup1\n        /* \"diceGame.sol\":6550:6568  nextGameMaximumBet */\n      sload(0x03)\n        /* \"diceGame.sol\":1239:1250  _maximumBet */\n      dup1\n        /* \"diceGame.sol\":1224:1235  _minimumBet */\n      dup3\n        /* \"diceGame.sol\":1224:1250  _minimumBet <= _maximumBet */\n      gt\n      iszero\n        /* \"diceGame.sol\":1216:1316  require(_minimumBet <= _maximumBet, \"You cannot set bet because maximumBet is less than minimumBet\") */\n      tag_147\n      jumpi\n      mload(0x40)\n      0x08c379a000000000000000000000000000000000000000000000000000000000\n      dup2\n      mstore\n      0x04\n      add\n      dup1\n      dup1\n      0x20\n      add\n      dup3\n      dup2\n      sub\n      dup3\n      mstore\n      0x3d\n      dup2\n      mstore\n      0x20\n      add\n      dup1\n      data_1b0fbdaba0a5cd5179f1bef884ca08aa1593dc2a56a4788c760ffc5b014d6cd7\n      0x3d\n      swap2\n      codecopy\n      0x40\n      add\n      swap2\n      pop\n      pop\n      mload(0x40)\n      dup1\n      swap2\n      sub\n      swap1\n      revert\n    tag_147:\n        /* \"diceGame.sol\":6602:6621  _nextGameMinimumBet */\n      dup3\n        /* \"diceGame.sol\":6581:6599  nextGameMinimumBet */\n      0x02\n        /* \"diceGame.sol\":6581:6621  nextGameMinimumBet = _nextGameMinimumBet */\n      dup2\n      swap1\n      sstore\n      pop\n        /* \"diceGame.sol\":840:841  _ */\n      pop\n      pop\n        /* \"diceGame.sol\":6435:6629  function setNextGameMinimumBet(uint _nextGameMinimumBet) external isManager canSetMinOrMaxBet(_nextGameMinimumBet, nextGameMaximumBet) {\r... */\n      pop\n      jump\t// out\n        /* \"diceGame.sol\":6671:6865  function setNextGameMaximumBet(uint _nextGameMaximumBet) external isManager canSetMinOrMaxBet(nextGameMinimumBet, _nextGameMaximumBet) {\r... */\n    tag_73:\n        /* \"diceGame.sol\":782:789  manager */\n      0x00\n      dup1\n      swap1\n      sload\n      swap1\n      0x0100\n      exp\n      swap1\n      div\n      0xffffffffffffffffffffffffffffffffffffffff\n      and\n        /* \"diceGame.sol\":768:789  msg.sender == manager */\n      0xffffffffffffffffffffffffffffffffffffffff\n      and\n        /* \"diceGame.sol\":768:778  msg.sender */\n      caller\n        /* \"diceGame.sol\":768:789  msg.sender == manager */\n      0xffffffffffffffffffffffffffffffffffffffff\n      and\n      eq\n        /* \"diceGame.sol\":760:829  require(msg.sender == manager, \"Only manager can call this function\") */\n      tag_150\n      jumpi\n      mload(0x40)\n      0x08c379a000000000000000000000000000000000000000000000000000000000\n      dup2\n      mstore\n      0x04\n      add\n      dup1\n      dup1\n      0x20\n      add\n      dup3\n      dup2\n      sub\n      dup3\n      mstore\n      0x23\n      dup2\n      mstore\n      0x20\n      add\n      dup1\n      data_4a8d8e59ed510e06a8e0260cfe413b20861d9f571b155941f3970d9306e4b948\n      0x23\n      swap2\n      codecopy\n      0x40\n      add\n      swap2\n      pop\n      pop\n      mload(0x40)\n      dup1\n      swap2\n      sub\n      swap1\n      revert\n    tag_150:\n        /* \"diceGame.sol\":6765:6783  nextGameMinimumBet */\n      sload(0x02)\n        /* \"diceGame.sol\":6785:6804  _nextGameMaximumBet */\n      dup2\n        /* \"diceGame.sol\":1239:1250  _maximumBet */\n      dup1\n        /* \"diceGame.sol\":1224:1235  _minimumBet */\n      dup3\n        /* \"diceGame.sol\":1224:1250  _minimumBet <= _maximumBet */\n      gt\n      iszero\n        /* \"diceGame.sol\":1216:1316  require(_minimumBet <= _maximumBet, \"You cannot set bet because maximumBet is less than minimumBet\") */\n      tag_152\n      jumpi\n      mload(0x40)\n      0x08c379a000000000000000000000000000000000000000000000000000000000\n      dup2\n      mstore\n      0x04\n      add\n      dup1\n      dup1\n      0x20\n      add\n      dup3\n      dup2\n      sub\n      dup3\n      mstore\n      0x3d\n      dup2\n      mstore\n      0x20\n      add\n      dup1\n      data_1b0fbdaba0a5cd5179f1bef884ca08aa1593dc2a56a4788c760ffc5b014d6cd7\n      0x3d\n      swap2\n      codecopy\n      0x40\n      add\n      swap2\n      pop\n      pop\n      mload(0x40)\n      dup1\n      swap2\n      sub\n      swap1\n      revert\n    tag_152:\n        /* \"diceGame.sol\":6838:6857  _nextGameMaximumBet */\n      dup3\n        /* \"diceGame.sol\":6817:6835  nextGameMaximumBet */\n      0x03\n        /* \"diceGame.sol\":6817:6857  nextGameMaximumBet = _nextGameMaximumBet */\n      dup2\n      swap1\n      sstore\n      pop\n        /* \"diceGame.sol\":840:841  _ */\n      pop\n      pop\n        /* \"diceGame.sol\":6671:6865  function setNextGameMaximumBet(uint _nextGameMaximumBet) external isManager canSetMinOrMaxBet(nextGameMinimumBet, _nextGameMaximumBet) {\r... */\n      pop\n      jump\t// out\n        /* \"diceGame.sol\":1813:2146  function transferMoneyToServer(uint _money) isManager external {\r... */\n    tag_77:\n        /* \"diceGame.sol\":782:789  manager */\n      0x00\n      dup1\n      swap1\n      sload\n      swap1\n      0x0100\n      exp\n      swap1\n      div\n      0xffffffffffffffffffffffffffffffffffffffff\n      and\n        /* \"diceGame.sol\":768:789  msg.sender == manager */\n      0xffffffffffffffffffffffffffffffffffffffff\n      and\n        /* \"diceGame.sol\":768:778  msg.sender */\n      caller\n        /* \"diceGame.sol\":768:789  msg.sender == manager */\n      0xffffffffffffffffffffffffffffffffffffffff\n      and\n      eq\n        /* \"diceGame.sol\":760:829  require(msg.sender == manager, \"Only manager can call this function\") */\n      tag_155\n      jumpi\n      mload(0x40)\n      0x08c379a000000000000000000000000000000000000000000000000000000000\n      dup2\n      mstore\n      0x04\n      add\n      dup1\n      dup1\n      0x20\n      add\n      dup3\n      dup2\n      sub\n      dup3\n      mstore\n      0x23\n      dup2\n      mstore\n      0x20\n      add\n      dup1\n      data_4a8d8e59ed510e06a8e0260cfe413b20861d9f571b155941f3970d9306e4b948\n      0x23\n      swap2\n      codecopy\n      0x40\n      add\n      swap2\n      pop\n      pop\n      mload(0x40)\n      dup1\n      swap2\n      sub\n      swap1\n      revert\n    tag_155:\n        /* \"diceGame.sol\":1919:1934  mustHaveBalance */\n      sload(0x05)\n        /* \"diceGame.sol\":1903:1907  this */\n      address\n        /* \"diceGame.sol\":1895:1916  address(this).balance */\n      0xffffffffffffffffffffffffffffffffffffffff\n      and\n      balance\n        /* \"diceGame.sol\":1895:1934  address(this).balance > mustHaveBalance */\n      gt\n        /* \"diceGame.sol\":1887:1990  require(address(this).balance > mustHaveBalance, \"Contract balance is not more than must have balance\") */\n      tag_157\n      jumpi\n      mload(0x40)\n      0x08c379a000000000000000000000000000000000000000000000000000000000\n      dup2\n      mstore\n      0x04\n      add\n      dup1\n      dup1\n      0x20\n      add\n      dup3\n      dup2\n      sub\n      dup3\n      mstore\n      0x33\n      dup2\n      mstore\n      0x20\n      add\n      dup1\n      data_8e9a7bbeb44bbc9c76ae525008f06129af99ded9a79c9e72e5e941f50285377c\n      0x33\n      swap2\n      codecopy\n      0x40\n      add\n      swap2\n      pop\n      pop\n      mload(0x40)\n      dup1\n      swap2\n      sub\n      swap1\n      revert\n    tag_157:\n        /* \"diceGame.sol\":2043:2058  mustHaveBalance */\n      sload(0x05)\n        /* \"diceGame.sol\":2027:2031  this */\n      address\n        /* \"diceGame.sol\":2019:2040  address(this).balance */\n      0xffffffffffffffffffffffffffffffffffffffff\n      and\n      balance\n        /* \"diceGame.sol\":2019:2058  address(this).balance - mustHaveBalance */\n      sub\n        /* \"diceGame.sol\":2009:2015  _money */\n      dup2\n        /* \"diceGame.sol\":2009:2058  _money <= address(this).balance - mustHaveBalance */\n      gt\n      iszero\n        /* \"diceGame.sol\":2001:2100  require(_money <= address(this).balance - mustHaveBalance, \"Money is more than can be transferred\") */\n      tag_158\n      jumpi\n      mload(0x40)\n      0x08c379a000000000000000000000000000000000000000000000000000000000\n      dup2\n      mstore\n      0x04\n      add\n      dup1\n      dup1\n      0x20\n      add\n      dup3\n      dup2\n      sub\n      dup3\n      mstore\n      0x25\n      dup2\n      mstore\n      0x20\n      add\n      dup1\n      data_f947145583ffb2612bc57a00bb0c3f58a6c3d0c6100ecb7273a673e4b58cb527\n      0x25\n      swap2\n      codecopy\n      0x40\n      add\n      swap2\n      pop\n      pop\n      mload(0x40)\n      dup1\n      swap2\n      sub\n      swap1\n      revert\n    tag_158:\n        /* \"diceGame.sol\":2111:2121  msg.sender */\n      caller\n        /* \"diceGame.sol\":2111:2130  msg.sender.transfer */\n      0xffffffffffffffffffffffffffffffffffffffff\n      and\n        /* \"diceGame.sol\":2111:2138  msg.sender.transfer(_money) */\n      0x08fc\n        /* \"diceGame.sol\":2131:2137  _money */\n      dup3\n        /* \"diceGame.sol\":2111:2138  msg.sender.transfer(_money) */\n      swap1\n      dup2\n      iszero\n      mul\n      swap1\n      mload(0x40)\n      0x00\n      mload(0x40)\n      dup1\n      dup4\n      sub\n      dup2\n      dup6\n      dup9\n      dup9\n      call\n      swap4\n      pop\n      pop\n      pop\n      pop\n      iszero\n        /* \"--CODEGEN--\":8:17   */\n      dup1\n        /* \"--CODEGEN--\":5:7   */\n      iszero\n      tag_159\n      jumpi\n        /* \"--CODEGEN--\":45:61   */\n      returndatasize\n        /* \"--CODEGEN--\":42:43   */\n      0x00\n        /* \"--CODEGEN--\":39:40   */\n      dup1\n        /* \"--CODEGEN--\":24:62   */\n      returndatacopy\n        /* \"--CODEGEN--\":77:93   */\n      returndatasize\n        /* \"--CODEGEN--\":74:75   */\n      0x00\n        /* \"--CODEGEN--\":67:94   */\n      revert\n        /* \"--CODEGEN--\":5:7   */\n    tag_159:\n        /* \"diceGame.sol\":2111:2138  msg.sender.transfer(_money) */\n      pop\n        /* \"diceGame.sol\":1813:2146  function transferMoneyToServer(uint _money) isManager external {\r... */\n      pop\n      jump\t// out\n        /* \"diceGame.sol\":82:100  uint public gameId */\n    tag_80:\n      sload(0x01)\n      dup2\n      jump\t// out\n        /* \"diceGame.sol\":7069:7179  function getMustHaveBalance() external view isManager returns (uint) {\r... */\n    tag_83:\n        /* \"diceGame.sol\":7132:7136  uint */\n      0x00\n        /* \"diceGame.sol\":782:789  manager */\n      dup1\n      0x00\n      swap1\n      sload\n      swap1\n      0x0100\n      exp\n      swap1\n      div\n      0xffffffffffffffffffffffffffffffffffffffff\n      and\n        /* \"diceGame.sol\":768:789  msg.sender == manager */\n      0xffffffffffffffffffffffffffffffffffffffff\n      and\n        /* \"diceGame.sol\":768:778  msg.sender */\n      caller\n        /* \"diceGame.sol\":768:789  msg.sender == manager */\n      0xffffffffffffffffffffffffffffffffffffffff\n      and\n      eq\n        /* \"diceGame.sol\":760:829  require(msg.sender == manager, \"Only manager can call this function\") */\n      tag_161\n      jumpi\n      mload(0x40)\n      0x08c379a000000000000000000000000000000000000000000000000000000000\n      dup2\n      mstore\n      0x04\n      add\n      dup1\n      dup1\n      0x20\n      add\n      dup3\n      dup2\n      sub\n      dup3\n      mstore\n      0x23\n      dup2\n      mstore\n      0x20\n      add\n      dup1\n      data_4a8d8e59ed510e06a8e0260cfe413b20861d9f571b155941f3970d9306e4b948\n      0x23\n      swap2\n      codecopy\n      0x40\n      add\n      swap2\n      pop\n      pop\n      mload(0x40)\n      dup1\n      swap2\n      sub\n      swap1\n      revert\n    tag_161:\n        /* \"diceGame.sol\":7156:7171  mustHaveBalance */\n      sload(0x05)\n        /* \"diceGame.sol\":7149:7171  return mustHaveBalance */\n      swap1\n      pop\n        /* \"diceGame.sol\":7069:7179  function getMustHaveBalance() external view isManager returns (uint) {\r... */\n      swap1\n      jump\t// out\n        /* \"diceGame.sol\":5918:6393  function hashPlayerBet(uint8 dice1, uint8 dice2, string memory password) private pure returns (bytes32) {\r... */\n    tag_91:\n        /* \"diceGame.sol\":6013:6020  bytes32 */\n      0x00\n        /* \"diceGame.sol\":6033:6055  bytes memory _password */\n      0x60\n        /* \"diceGame.sol\":6064:6072  password */\n      dup3\n        /* \"diceGame.sol\":6033:6073  bytes memory _password = bytes(password) */\n      swap1\n      pop\n        /* \"diceGame.sol\":6084:6095  uint length */\n      0x00\n        /* \"diceGame.sol\":6098:6107  _password */\n      dup2\n        /* \"diceGame.sol\":6098:6114  _password.length */\n      mload\n        /* \"diceGame.sol\":6084:6114  uint length = _password.length */\n      swap1\n      pop\n        /* \"diceGame.sol\":6125:6147  bytes memory strToHash */\n      0x60\n        /* \"diceGame.sol\":6169:6170  2 */\n      0x02\n        /* \"diceGame.sol\":6160:6166  length */\n      dup3\n        /* \"diceGame.sol\":6160:6170  length + 2 */\n      add\n        /* \"diceGame.sol\":6150:6171  new bytes(length + 2) */\n      mload(0x40)\n      swap1\n      dup1\n      dup3\n      mstore\n      dup1\n      0x1f\n      add\n      not(0x1f)\n      and\n      0x20\n      add\n      dup3\n      add\n      0x40\n      mstore\n      dup1\n      iszero\n      tag_164\n      jumpi\n      dup2\n      0x20\n      add\n        /* \"--CODEGEN--\":29:30   */\n      0x01\n        /* \"--CODEGEN--\":21:27   */\n      dup3\n        /* \"--CODEGEN--\":17:31   */\n      mul\n        /* \"--CODEGEN--\":116:120   */\n      dup1\n        /* \"--CODEGEN--\":104:114   */\n      codesize\n        /* \"--CODEGEN--\":96:102   */\n      dup4\n        /* \"--CODEGEN--\":87:121   */\n      codecopy\n        /* \"--CODEGEN--\":147:151   */\n      dup1\n        /* \"--CODEGEN--\":139:145   */\n      dup3\n        /* \"--CODEGEN--\":135:152   */\n      add\n        /* \"--CODEGEN--\":125:152   */\n      swap2\n      pop\n        /* \"--CODEGEN--\":0:156   */\n      pop\n        /* \"diceGame.sol\":6150:6171  new bytes(length + 2) */\n      swap1\n      pop\n    tag_164:\n      pop\n        /* \"diceGame.sol\":6125:6171  bytes memory strToHash = new bytes(length + 2) */\n      swap1\n      pop\n        /* \"diceGame.sol\":6187:6195  uint8 _i */\n      0x00\n        /* \"diceGame.sol\":6198:6199  0 */\n      dup1\n        /* \"diceGame.sol\":6187:6199  uint8 _i = 0 */\n      swap1\n      pop\n        /* \"diceGame.sol\":6182:6249  for (uint8 _i = 0; _i < length; _i++) strToHash[_i] = _password[_i] */\n    tag_165:\n        /* \"diceGame.sol\":6206:6212  length */\n      dup3\n        /* \"diceGame.sol\":6201:6203  _i */\n      dup2\n        /* \"diceGame.sol\":6201:6212  _i < length */\n      0xff\n      and\n      lt\n        /* \"diceGame.sol\":6182:6249  for (uint8 _i = 0; _i < length; _i++) strToHash[_i] = _password[_i] */\n      iszero\n      tag_166\n      jumpi\n        /* \"diceGame.sol\":6236:6245  _password */\n      dup4\n        /* \"diceGame.sol\":6246:6248  _i */\n      dup2\n        /* \"diceGame.sol\":6236:6249  _password[_i] */\n      0xff\n      and\n      dup2\n      mload\n      dup2\n      lt\n      tag_168\n      jumpi\n      invalid\n    tag_168:\n      0x20\n      add\n      add\n      mload\n      0xf8\n      shr\n      0xf8\n      shl\n        /* \"diceGame.sol\":6220:6229  strToHash */\n      dup3\n        /* \"diceGame.sol\":6230:6232  _i */\n      dup3\n        /* \"diceGame.sol\":6220:6233  strToHash[_i] */\n      0xff\n      and\n      dup2\n      mload\n      dup2\n      lt\n      tag_169\n      jumpi\n      invalid\n    tag_169:\n      0x20\n      add\n      add\n        /* \"diceGame.sol\":6220:6249  strToHash[_i] = _password[_i] */\n      swap1\n      not(0xffffffffffffffffffffffffffffffffffffffffffffffffffffffffffffff)\n      and\n      swap1\n      dup2\n      0x00\n      byte\n      swap1\n      mstore8\n      pop\n        /* \"diceGame.sol\":6214:6218  _i++ */\n      dup1\n      dup1\n      0x01\n      add\n      swap2\n      pop\n      pop\n        /* \"diceGame.sol\":6182:6249  for (uint8 _i = 0; _i < length; _i++) strToHash[_i] = _password[_i] */\n      jump(tag_165)\n    tag_166:\n      pop\n        /* \"diceGame.sol\":6290:6295  dice1 */\n      dup7\n        /* \"diceGame.sol\":6285:6287  48 */\n      0x30\n        /* \"diceGame.sol\":6285:6295  48 + dice1 */\n      add\n        /* \"diceGame.sol\":6280:6296  byte(48 + dice1) */\n      0xf8\n      shl\n        /* \"diceGame.sol\":6260:6269  strToHash */\n      dup2\n        /* \"diceGame.sol\":6270:6276  length */\n      dup4\n        /* \"diceGame.sol\":6260:6277  strToHash[length] */\n      dup2\n      mload\n      dup2\n      lt\n      tag_170\n      jumpi\n      invalid\n    tag_170:\n      0x20\n      add\n      add\n        /* \"diceGame.sol\":6260:6296  strToHash[length] = byte(48 + dice1) */\n      swap1\n      not(0xffffffffffffffffffffffffffffffffffffffffffffffffffffffffffffff)\n      and\n      swap1\n      dup2\n      0x00\n      byte\n      swap1\n      mstore8\n      pop\n        /* \"diceGame.sol\":6341:6346  dice2 */\n      dup6\n        /* \"diceGame.sol\":6336:6338  48 */\n      0x30\n        /* \"diceGame.sol\":6336:6346  48 + dice2 */\n      add\n        /* \"diceGame.sol\":6331:6347  byte(48 + dice2) */\n      0xf8\n      shl\n        /* \"diceGame.sol\":6307:6316  strToHash */\n      dup2\n        /* \"diceGame.sol\":6326:6327  1 */\n      0x01\n        /* \"diceGame.sol\":6317:6323  length */\n      dup5\n        /* \"diceGame.sol\":6317:6327  length + 1 */\n      add\n        /* \"diceGame.sol\":6307:6328  strToHash[length + 1] */\n      dup2\n      mload\n      dup2\n      lt\n      tag_171\n      jumpi\n      invalid\n    tag_171:\n      0x20\n      add\n      add\n        /* \"diceGame.sol\":6307:6347  strToHash[length + 1] = byte(48 + dice2) */\n      swap1\n      not(0xffffffffffffffffffffffffffffffffffffffffffffffffffffffffffffff)\n      and\n      swap1\n      dup2\n      0x00\n      byte\n      swap1\n      mstore8\n      pop\n        /* \"diceGame.sol\":6375:6384  strToHash */\n      dup1\n        /* \"diceGame.sol\":6365:6385  keccak256(strToHash) */\n      dup1\n      mload\n      swap1\n      0x20\n      add\n      keccak256\n        /* \"diceGame.sol\":6358:6385  return keccak256(strToHash) */\n      swap4\n      pop\n      pop\n      pop\n      pop\n        /* \"diceGame.sol\":5918:6393  function hashPlayerBet(uint8 dice1, uint8 dice2, string memory password) private pure returns (bytes32) {\r... */\n      swap4\n      swap3\n      pop\n      pop\n      pop\n      jump\t// out\n    stop\n    data_011ef643292f394b7eaf6f298680e8c07121f6d62a56a380e32caea39ebed0de 47616d6520776173206372617368656420616e6420706c617965727320616c726561647920726563656976652061206d6f6e6579\n    data_1b0fbdaba0a5cd5179f1bef884ca08aa1593dc2a56a4788c760ffc5b014d6cd7 596f752063616e6e6f7420736574206265742062656361757365206d6178696d756d426574206973206c657373207468616e206d696e696d756d426574\n    data_3a927adfdfc2561b6ed5dfbe81d847499452a585a6f63e12bfef7e30e6f4e374 596f752063616e20666f7263652072656365697665206d6f6e6579206f6e6c79206166746572203330206d696e75746573206f662070726576696f75732067616d65\n    data_43a49f85bbe08f4faa6fe85bf8dd72b666e0c1f861972da1ea12801aa0da721d 596f7520617265206e6f742077696e6e6572206f722070617373776f7264206973206e6f7420636f7272656374\n    data_4a8d8e59ed510e06a8e0260cfe413b20861d9f571b155941f3970d9306e4b948 4f6e6c79206d616e616765722063616e2063616c6c20746869732066756e6374696f6e\n    data_6428a5983539401cb2b57c0ee2b56b6ef8869364b638e63cf47b89894855e1b7 4f6e65206f662074686520646963657320617265206e6f74206265747765656e203120616e642036\n    data_8d154e8968d7823ff29b23e97db9dfb06467967dfeb91ba82243af334bf2669b 596f752063616e6e6f742072656365697665206d6f6e65792066726f6d207468652067616d6520776869636820656e646564206d6f7265207468616e20332067616d652061676f\n    data_8e9a7bbeb44bbc9c76ae525008f06129af99ded9a79c9e72e5e941f50285377c 436f6e74726163742062616c616e6365206973206e6f74206d6f7265207468616e206d75737420686176652062616c616e6365\n    data_d0d119b5681acdf73562ce6543c10f2b7b10fc17a9050094d8f26cb42a75785c 54686520636f6e747261637420646f6573206e6f74206861766520656e6f756768206d6f6e6579\n    data_f947145583ffb2612bc57a00bb0c3f58a6c3d0c6100ecb7273a673e4b58cb527 4d6f6e6579206973206d6f7265207468616e2063616e206265207472616e73666572726564\n\n    auxdata: 0xa265627a7a723158206dce776ccb046348a6983f43f123acde68441ef44efedb165e1864b92e8a451a64736f6c634300050c0032\n}\n","bytecode":{"linkReferences":{},"object":"6080604052600060055534801561001557600080fd5b506040516123b33803806123b38339818101604052604081101561003857600080fd5b8101908080519060200190929190805190602001909291905050508181808211156100ae576040517f08c379a000000000000000000000000000000000000000000000000000000000815260040180806020018281038252603d815260200180612376603d913960400191505060405180910390fd5b60018081905550336000806101000a81548173ffffffffffffffffffffffffffffffffffffffff021916908373ffffffffffffffffffffffffffffffffffffffff160217905550836006600060015481526020019081526020016000206005018190555082600660006001548152602001908152602001600020600601819055508360028190555082600381905550426004819055505050505061221f806101576000396000f3fe6080604052600436106100fe5760003560e01c80636f9fb98a11610095578063c9094bc511610064578063c9094bc514610428578063d1bea62814610463578063d65d86661461049e578063d7c81b55146104d9578063dce04fc114610504576100fe565b80636f9fb98a1461039057806384c221bc146103bb57806384fba3d5146103e6578063b252900f14610411576100fe565b806329946f8e116100d157806329946f8e146102a85780632cff8578146102f3578063481c6a75146103225780635018acb914610379576100fe565b80630188276714610100578063026898a01461012b57806309660513146101fd5780630d0aa44a1461027a575b005b34801561010c57600080fd5b5061011561052f565b6040518082815260200191505060405180910390f35b34801561013757600080fd5b506101fb6004803603604081101561014e57600080fd5b81019080803590602001909291908035906020019064010000000081111561017557600080fd5b82018360208201111561018757600080fd5b803590602001918460018302840111640100000000831117156101a957600080fd5b91908080601f016020809104026020016040519081016040528093929190818152602001838380828437600081840152601f19601f820116905080830192505050505050509192919290505050610535565b005b34801561020957600080fd5b506102366004803603602081101561022057600080fd5b81019080803590602001909291905050506109c8565b604051808881526020018781526020018681526020018581526020018481526020018381526020018215151515815260200197505050505050505060405180910390f35b6102a66004803603602081101561029057600080fd5b8101908080359060200190929190505050610baf565b005b3480156102b457600080fd5b506102f1600480360360408110156102cb57600080fd5b81019080803560ff169060200190929190803560ff169060200190929190505050611061565b005b3480156102ff57600080fd5b50610308611372565b604051808215151515815260200191505060405180910390f35b34801561032e57600080fd5b50610337611461565b604051808273ffffffffffffffffffffffffffffffffffffffff1673ffffffffffffffffffffffffffffffffffffffff16815260200191505060405180910390f35b34801561038557600080fd5b5061038e611486565b005b34801561039c57600080fd5b506103a56117b0565b6040518082815260200191505060405180910390f35b3480156103c757600080fd5b506103d0611874565b6040518082815260200191505060405180910390f35b3480156103f257600080fd5b506103fb61187a565b6040518082815260200191505060405180910390f35b34801561041d57600080fd5b50610426611880565b005b34801561043457600080fd5b506104616004803603602081101561044b57600080fd5b81019080803590602001909291905050506119fa565b005b34801561046f57600080fd5b5061049c6004803603602081101561048657600080fd5b8101908080359060200190929190505050611b08565b005b3480156104aa57600080fd5b506104d7600480360360208110156104c157600080fd5b8101908080359060200190929190505050611c16565b005b3480156104e557600080fd5b506104ee611dea565b6040518082815260200191505060405180910390f35b34801561051057600080fd5b50610519611df0565b6040518082815260200191505060405180910390f35b60045481565b6003600154111561059f5760036001540382101561059e576040517f08c379a00000000000000000000000000000000000000000000000000000000081526004018080602001828103825260478152602001806121256047913960600191505060405180910390fd5b5b6001548210610616576040517f08c379a00000000000000000000000000000000000000000000000000000000081526004018080602001828103825260128152602001807f5468652067616d65206e6f7420656e646564000000000000000000000000000081525060200191505060405180910390fd5b6006600083815260200190815260200160002060070160009054906101000a900460ff1615610690576040517f08c379a0000000000000000000000000000000000000000000000000000000008152600401808060200182810382526034815260200180611ffa6034913960400191505060405180910390fd5b6006600083815260200190815260200160002060000160003373ffffffffffffffffffffffffffffffffffffffff1673ffffffffffffffffffffffffffffffffffffffff16815260200190815260200160002060020160009054906101000a900460ff1615610767576040517f08c379a000000000000000000000000000000000000000000000000000000000815260040180806020018281038252601e8152602001807f506c6179657220616c726561647920726563656976652061206d6f6e6579000081525060200191505060405180910390fd5b60006107ba6006600085815260200190815260200160002060020160009054906101000a900460ff166006600086815260200190815260200160002060020160019054906101000a900460ff1684611e9f565b90506006600084815260200190815260200160002060000160003373ffffffffffffffffffffffffffffffffffffffff1673ffffffffffffffffffffffffffffffffffffffff16815260200190815260200160002060000154811461086a576040517f08c379a000000000000000000000000000000000000000000000000000000000815260040180806020018281038252602d8152602001806120ad602d913960400191505060405180910390fd5b60006006600085815260200190815260200160002060000160003373ffffffffffffffffffffffffffffffffffffffff1673ffffffffffffffffffffffffffffffffffffffff1681526020019081526020016000206001015490506000600260038302816108d457fe5b0490503373ffffffffffffffffffffffffffffffffffffffff166108fc829081150290604051600060405180830381858888f1935050505015801561091d573d6000803e3d6000fd5b508160066000878152602001908152602001600020600401600082825403925050819055508060056000828254039250508190555060016006600087815260200190815260200160002060000160003373ffffffffffffffffffffffffffffffffffffffff1673ffffffffffffffffffffffffffffffffffffffff16815260200190815260200160002060020160006101000a81548160ff0219169083151502179055505050505050565b60008060008060008060006001881015610a4a576040517f08c379a00000000000000000000000000000000000000000000000000000000081526004018080602001828103825260138152602001807f47616d652069642063616e6e6f7420626520300000000000000000000000000081525060200191505060405180910390fd5b600154881115610ac2576040517f08c379a00000000000000000000000000000000000000000000000000000000081526004018080602001828103825260108152602001807f47616d65206e6f7420737461727465640000000000000000000000000000000081525060200191505060405180910390fd5b6006600089815260200190815260200160002060020160009054906101000a900460ff16600660008a815260200190815260200160002060020160019054906101000a900460ff16600660008b815260200190815260200160002060050154600660008c815260200190815260200160002060060154600660008d815260200190815260200160002060030154600660008e815260200190815260200160002060040154600660008f815260200190815260200160002060070160009054906101000a900460ff168660ff1696508560ff1695509650965096509650965096509650919395979092949650565b600033905060026003340281610bc157fe5b04600554013073ffffffffffffffffffffffffffffffffffffffff16311015610c35576040517f08c379a000000000000000000000000000000000000000000000000000000000815260040180806020018281038252602781526020018061219f6027913960400191505060405180910390fd5b6000809054906101000a900473ffffffffffffffffffffffffffffffffffffffff1673ffffffffffffffffffffffffffffffffffffffff168173ffffffffffffffffffffffffffffffffffffffff161415610cf8576040517f08c379a000000000000000000000000000000000000000000000000000000000815260040180806020018281038252601a8152602001807f4d616e616765722063616e6e6f742062657420612076616c756500000000000081525060200191505060405180910390fd5b6000801b60066000600154815260200190815260200160002060000160008373ffffffffffffffffffffffffffffffffffffffff1673ffffffffffffffffffffffffffffffffffffffff1681526020019081526020016000206000015414610dc8576040517f08c379a00000000000000000000000000000000000000000000000000000000081526004018080602001828103825260198152602001807f506c6179657220616c726561647920626574206e756d6265720000000000000081525060200191505060405180910390fd5b60066000600154815260200190815260200160002060050154341015610e56576040517f08c379a000000000000000000000000000000000000000000000000000000000815260040180806020018281038252601f8152602001807f506c6179657220626574206c657373207468656e206d696e696d756d4265740081525060200191505060405180910390fd5b60066000600154815260200190815260200160002060060154341115610ee4576040517f08c379a000000000000000000000000000000000000000000000000000000000815260040180806020018281038252601f8152602001807f506c6179657220626574206d6f7265207468656e206d6178696d756d4265740081525060200191505060405180910390fd5b8160066000600154815260200190815260200160002060000160008373ffffffffffffffffffffffffffffffffffffffff1673ffffffffffffffffffffffffffffffffffffffff168152602001908152602001600020600001819055503460066000600154815260200190815260200160002060000160008373ffffffffffffffffffffffffffffffffffffffff1673ffffffffffffffffffffffffffffffffffffffff168152602001908152602001600020600101819055506006600060015481526020019081526020016000206001018190806001815401808255809150509060018203906000526020600020016000909192909190916101000a81548173ffffffffffffffffffffffffffffffffffffffff021916908373ffffffffffffffffffffffffffffffffffffffff1602179055505034600660006001548152602001908152602001600020600301600082825401925050819055506002600334028161104d57fe5b046005600082825401925050819055505050565b6000809054906101000a900473ffffffffffffffffffffffffffffffffffffffff1673ffffffffffffffffffffffffffffffffffffffff163373ffffffffffffffffffffffffffffffffffffffff1614611106576040517f08c379a00000000000000000000000000000000000000000000000000000000081526004018080602001828103825260238152602001806120da6023913960400191505060405180910390fd5b818160018260ff1610158015611120575060068260ff1611155b8015611130575060018160ff1610155b8015611140575060068160ff1611155b611195576040517f08c379a00000000000000000000000000000000000000000000000000000000081526004018080602001828103825260288152602001806120fd6028913960400191505060405180910390fd5b605a60045442031161120f576040517f08c379a00000000000000000000000000000000000000000000000000000000081526004018080602001828103825260168152602001807f47616d652073746172746564207665727920666173740000000000000000000081525060200191505060405180910390fd5b60066000600154815260200190815260200160002060070160009054906101000a900460ff166112d1578360066000600154815260200190815260200160002060020160006101000a81548160ff021916908360ff1602179055508260066000600154815260200190815260200160002060020160016101000a81548160ff021916908360ff16021790555060066000600154815260200190815260200160002060030154600660006001548152602001908152602001600020600401819055505b600160008154809291906001019190505550600254600660006001548152602001908152602001600020600501819055506003546006600060015481526020019081526020016000206006018190555060046001541115611365576002600360066000600460015403815260200190815260200160002060040154028161135457fe5b046005600082825403925050819055505b4260048190555050505050565b60008060009054906101000a900473ffffffffffffffffffffffffffffffffffffffff1673ffffffffffffffffffffffffffffffffffffffff163373ffffffffffffffffffffffffffffffffffffffff1614611419576040517f08c379a00000000000000000000000000000000000000000000000000000000081526004018080602001828103825260238152602001806120da6023913960400191505060405180910390fd5b6002600360066000600154815260200190815260200160002060060154028161143e57fe5b046005543073ffffffffffffffffffffffffffffffffffffffff16310310905090565b6000809054906101000a900473ffffffffffffffffffffffffffffffffffffffff1681565b6107086004544203116114e4576040517f08c379a000000000000000000000000000000000000000000000000000000000815260040180806020018281038252604281526020018061206b6042913960600191505060405180910390fd5b60066000600154815260200190815260200160002060070160009054906101000a900460ff1615611560576040517f08c379a0000000000000000000000000000000000000000000000000000000008152600401808060200182810382526034815260200180611ffa6034913960400191505060405180910390fd5b600160066000600154815260200190815260200160002060070160006101000a81548160ff0219169083151502179055506000600660006001548152602001908152602001600020600101905060008180549050905060008090505b81811015611783578281815481106115d057fe5b9060005260206000200160009054906101000a900473ffffffffffffffffffffffffffffffffffffffff1673ffffffffffffffffffffffffffffffffffffffff166108fc600660006001548152602001908152602001600020600001600086858154811061163a57fe5b9060005260206000200160009054906101000a900473ffffffffffffffffffffffffffffffffffffffff1673ffffffffffffffffffffffffffffffffffffffff1673ffffffffffffffffffffffffffffffffffffffff168152602001908152602001600020600101549081150290604051600060405180830381858888f193505050501580156116ce573d6000803e3d6000fd5b50600160066000600154815260200190815260200160002060000160008584815481106116f757fe5b9060005260206000200160009054906101000a900473ffffffffffffffffffffffffffffffffffffffff1673ffffffffffffffffffffffffffffffffffffffff1673ffffffffffffffffffffffffffffffffffffffff16815260200190815260200160002060020160006101000a81548160ff02191690831515021790555080806001019150506115bc565b50600660006001548152602001908152602001600020600301546005600082825403925050819055505050565b60008060009054906101000a900473ffffffffffffffffffffffffffffffffffffffff1673ffffffffffffffffffffffffffffffffffffffff163373ffffffffffffffffffffffffffffffffffffffff1614611857576040517f08c379a00000000000000000000000000000000000000000000000000000000081526004018080602001828103825260238152602001806120da6023913960400191505060405180910390fd5b3073ffffffffffffffffffffffffffffffffffffffff1631905090565b60035481565b60025481565b6000809054906101000a900473ffffffffffffffffffffffffffffffffffffffff1673ffffffffffffffffffffffffffffffffffffffff163373ffffffffffffffffffffffffffffffffffffffff1614611925576040517f08c379a00000000000000000000000000000000000000000000000000000000081526004018080602001828103825260238152602001806120da6023913960400191505060405180910390fd5b6005543073ffffffffffffffffffffffffffffffffffffffff163111611996576040517f08c379a000000000000000000000000000000000000000000000000000000000815260040180806020018281038252603381526020018061216c6033913960400191505060405180910390fd5b3373ffffffffffffffffffffffffffffffffffffffff166108fc6005543073ffffffffffffffffffffffffffffffffffffffff1631039081150290604051600060405180830381858888f193505050501580156119f7573d6000803e3d6000fd5b50565b6000809054906101000a900473ffffffffffffffffffffffffffffffffffffffff1673ffffffffffffffffffffffffffffffffffffffff163373ffffffffffffffffffffffffffffffffffffffff1614611a9f576040517f08c379a00000000000000000000000000000000000000000000000000000000081526004018080602001828103825260238152602001806120da6023913960400191505060405180910390fd5b8060035480821115611afc576040517f08c379a000000000000000000000000000000000000000000000000000000000815260040180806020018281038252603d81526020018061202e603d913960400191505060405180910390fd5b82600281905550505050565b6000809054906101000a900473ffffffffffffffffffffffffffffffffffffffff1673ffffffffffffffffffffffffffffffffffffffff163373ffffffffffffffffffffffffffffffffffffffff1614611bad576040517f08c379a00000000000000000000000000000000000000000000000000000000081526004018080602001828103825260238152602001806120da6023913960400191505060405180910390fd5b6002548180821115611c0a576040517f08c379a000000000000000000000000000000000000000000000000000000000815260040180806020018281038252603d81526020018061202e603d913960400191505060405180910390fd5b82600381905550505050565b6000809054906101000a900473ffffffffffffffffffffffffffffffffffffffff1673ffffffffffffffffffffffffffffffffffffffff163373ffffffffffffffffffffffffffffffffffffffff1614611cbb576040517f08c379a00000000000000000000000000000000000000000000000000000000081526004018080602001828103825260238152602001806120da6023913960400191505060405180910390fd5b6005543073ffffffffffffffffffffffffffffffffffffffff163111611d2c576040517f08c379a000000000000000000000000000000000000000000000000000000000815260040180806020018281038252603381526020018061216c6033913960400191505060405180910390fd5b6005543073ffffffffffffffffffffffffffffffffffffffff163103811115611da0576040517f08c379a00000000000000000000000000000000000000000000000000000000081526004018080602001828103825260258152602001806121c66025913960400191505060405180910390fd5b3373ffffffffffffffffffffffffffffffffffffffff166108fc829081150290604051600060405180830381858888f19350505050158015611de6573d6000803e3d6000fd5b5050565b60015481565b60008060009054906101000a900473ffffffffffffffffffffffffffffffffffffffff1673ffffffffffffffffffffffffffffffffffffffff163373ffffffffffffffffffffffffffffffffffffffff1614611e97576040517f08c379a00000000000000000000000000000000000000000000000000000000081526004018080602001828103825260238152602001806120da6023913960400191505060405180910390fd5b600554905090565b600060608290506000815190506060600282016040519080825280601f01601f191660200182016040528015611ee45781602001600182028038833980820191505090505b50905060008090505b828160ff161015611f5d57838160ff1681518110611f0757fe5b602001015160f81c60f81b828260ff1681518110611f2157fe5b60200101907effffffffffffffffffffffffffffffffffffffffffffffffffffffffffffff1916908160001a9053508080600101915050611eed565b508660300160f81b818381518110611f7157fe5b60200101907effffffffffffffffffffffffffffffffffffffffffffffffffffffffffffff1916908160001a9053508560300160f81b816001840181518110611fb657fe5b60200101907effffffffffffffffffffffffffffffffffffffffffffffffffffffffffffff1916908160001a90535080805190602001209350505050939250505056fe47616d6520776173206372617368656420616e6420706c617965727320616c726561647920726563656976652061206d6f6e6579596f752063616e6e6f7420736574206265742062656361757365206d6178696d756d426574206973206c657373207468616e206d696e696d756d426574596f752063616e20666f7263652072656365697665206d6f6e6579206f6e6c79206166746572203330206d696e75746573206f662070726576696f75732067616d65596f7520617265206e6f742077696e6e6572206f722070617373776f7264206973206e6f7420636f72726563744f6e6c79206d616e616765722063616e2063616c6c20746869732066756e6374696f6e4f6e65206f662074686520646963657320617265206e6f74206265747765656e203120616e642036596f752063616e6e6f742072656365697665206d6f6e65792066726f6d207468652067616d6520776869636820656e646564206d6f7265207468616e20332067616d652061676f436f6e74726163742062616c616e6365206973206e6f74206d6f7265207468616e206d75737420686176652062616c616e636554686520636f6e747261637420646f6573206e6f74206861766520656e6f756768206d6f6e65794d6f6e6579206973206d6f7265207468616e2063616e206265207472616e73666572726564a265627a7a723158206dce776ccb046348a6983f43f123acde68441ef44efedb165e1864b92e8a451a64736f6c634300050c0032596f752063616e6e6f7420736574206265742062656361757365206d6178696d756d426574206973206c657373207468616e206d696e696d756d426574","opcodes":"PUSH1 0x80 PUSH1 0x40 MSTORE PUSH1 0x0 PUSH1 0x5 SSTORE CALLVALUE DUP1 ISZERO PUSH2 0x15 JUMPI PUSH1 0x0 DUP1 REVERT JUMPDEST POP PUSH1 0x40 MLOAD PUSH2 0x23B3 CODESIZE SUB DUP1 PUSH2 0x23B3 DUP4 CODECOPY DUP2 DUP2 ADD PUSH1 0x40 MSTORE PUSH1 0x40 DUP2 LT ISZERO PUSH2 0x38 JUMPI PUSH1 0x0 DUP1 REVERT JUMPDEST DUP2 ADD SWAP1 DUP1 DUP1 MLOAD SWAP1 PUSH1 0x20 ADD SWAP1 SWAP3 SWAP2 SWAP1 DUP1 MLOAD SWAP1 PUSH1 0x20 ADD SWAP1 SWAP3 SWAP2 SWAP1 POP POP POP DUP2 DUP2 DUP1 DUP3 GT ISZERO PUSH2 0xAE JUMPI PUSH1 0x40 MLOAD PUSH32 0x8C379A000000000000000000000000000000000000000000000000000000000 DUP2 MSTORE PUSH1 0x4 ADD DUP1 DUP1 PUSH1 0x20 ADD DUP3 DUP2 SUB DUP3 MSTORE PUSH1 0x3D DUP2 MSTORE PUSH1 0x20 ADD DUP1 PUSH2 0x2376 PUSH1 0x3D SWAP2 CODECOPY PUSH1 0x40 ADD SWAP2 POP POP PUSH1 0x40 MLOAD DUP1 SWAP2 SUB SWAP1 REVERT JUMPDEST PUSH1 0x1 DUP1 DUP2 SWAP1 SSTORE POP CALLER PUSH1 0x0 DUP1 PUSH2 0x100 EXP DUP2 SLOAD DUP2 PUSH20 0xFFFFFFFFFFFFFFFFFFFFFFFFFFFFFFFFFFFFFFFF MUL NOT AND SWAP1 DUP4 PUSH20 0xFFFFFFFFFFFFFFFFFFFFFFFFFFFFFFFFFFFFFFFF AND MUL OR SWAP1 SSTORE POP DUP4 PUSH1 0x6 PUSH1 0x0 PUSH1 0x1 SLOAD DUP2 MSTORE PUSH1 0x20 ADD SWAP1 DUP2 MSTORE PUSH1 0x20 ADD PUSH1 0x0 KECCAK256 PUSH1 0x5 ADD DUP2 SWAP1 SSTORE POP DUP3 PUSH1 0x6 PUSH1 0x0 PUSH1 0x1 SLOAD DUP2 MSTORE PUSH1 0x20 ADD SWAP1 DUP2 MSTORE PUSH1 0x20 ADD PUSH1 0x0 KECCAK256 PUSH1 0x6 ADD DUP2 SWAP1 SSTORE POP DUP4 PUSH1 0x2 DUP2 SWAP1 SSTORE POP DUP3 PUSH1 0x3 DUP2 SWAP1 SSTORE POP TIMESTAMP PUSH1 0x4 DUP2 SWAP1 SSTORE POP POP POP POP POP PUSH2 0x221F DUP1 PUSH2 0x157 PUSH1 0x0 CODECOPY PUSH1 0x0 RETURN INVALID PUSH1 0x80 PUSH1 0x40 MSTORE PUSH1 0x4 CALLDATASIZE LT PUSH2 0xFE JUMPI PUSH1 0x0 CALLDATALOAD PUSH1 0xE0 SHR DUP1 PUSH4 0x6F9FB98A GT PUSH2 0x95 JUMPI DUP1 PUSH4 0xC9094BC5 GT PUSH2 0x64 JUMPI DUP1 PUSH4 0xC9094BC5 EQ PUSH2 0x428 JUMPI DUP1 PUSH4 0xD1BEA628 EQ PUSH2 0x463 JUMPI DUP1 PUSH4 0xD65D8666 EQ PUSH2 0x49E JUMPI DUP1 PUSH4 0xD7C81B55 EQ PUSH2 0x4D9 JUMPI DUP1 PUSH4 0xDCE04FC1 EQ PUSH2 0x504 JUMPI PUSH2 0xFE JUMP JUMPDEST DUP1 PUSH4 0x6F9FB98A EQ PUSH2 0x390 JUMPI DUP1 PUSH4 0x84C221BC EQ PUSH2 0x3BB JUMPI DUP1 PUSH4 0x84FBA3D5 EQ PUSH2 0x3E6 JUMPI DUP1 PUSH4 0xB252900F EQ PUSH2 0x411 JUMPI PUSH2 0xFE JUMP JUMPDEST DUP1 PUSH4 0x29946F8E GT PUSH2 0xD1 JUMPI DUP1 PUSH4 0x29946F8E EQ PUSH2 0x2A8 JUMPI DUP1 PUSH4 0x2CFF8578 EQ PUSH2 0x2F3 JUMPI DUP1 PUSH4 0x481C6A75 EQ PUSH2 0x322 JUMPI DUP1 PUSH4 0x5018ACB9 EQ PUSH2 0x379 JUMPI PUSH2 0xFE JUMP JUMPDEST DUP1 PUSH4 0x1882767 EQ PUSH2 0x100 JUMPI DUP1 PUSH4 0x26898A0 EQ PUSH2 0x12B JUMPI DUP1 PUSH4 0x9660513 EQ PUSH2 0x1FD JUMPI DUP1 PUSH4 0xD0AA44A EQ PUSH2 0x27A JUMPI JUMPDEST STOP JUMPDEST CALLVALUE DUP1 ISZERO PUSH2 0x10C JUMPI PUSH1 0x0 DUP1 REVERT JUMPDEST POP PUSH2 0x115 PUSH2 0x52F JUMP JUMPDEST PUSH1 0x40 MLOAD DUP1 DUP3 DUP2 MSTORE PUSH1 0x20 ADD SWAP2 POP POP PUSH1 0x40 MLOAD DUP1 SWAP2 SUB SWAP1 RETURN JUMPDEST CALLVALUE DUP1 ISZERO PUSH2 0x137 JUMPI PUSH1 0x0 DUP1 REVERT JUMPDEST POP PUSH2 0x1FB PUSH1 0x4 DUP1 CALLDATASIZE SUB PUSH1 0x40 DUP2 LT ISZERO PUSH2 0x14E JUMPI PUSH1 0x0 DUP1 REVERT JUMPDEST DUP2 ADD SWAP1 DUP1 DUP1 CALLDATALOAD SWAP1 PUSH1 0x20 ADD SWAP1 SWAP3 SWAP2 SWAP1 DUP1 CALLDATALOAD SWAP1 PUSH1 0x20 ADD SWAP1 PUSH5 0x100000000 DUP2 GT ISZERO PUSH2 0x175 JUMPI PUSH1 0x0 DUP1 REVERT JUMPDEST DUP3 ADD DUP4 PUSH1 0x20 DUP3 ADD GT ISZERO PUSH2 0x187 JUMPI PUSH1 0x0 DUP1 REVERT JUMPDEST DUP1 CALLDATALOAD SWAP1 PUSH1 0x20 ADD SWAP2 DUP5 PUSH1 0x1 DUP4 MUL DUP5 ADD GT PUSH5 0x100000000 DUP4 GT OR ISZERO PUSH2 0x1A9 JUMPI PUSH1 0x0 DUP1 REVERT JUMPDEST SWAP2 SWAP1 DUP1 DUP1 PUSH1 0x1F ADD PUSH1 0x20 DUP1 SWAP2 DIV MUL PUSH1 0x20 ADD PUSH1 0x40 MLOAD SWAP1 DUP2 ADD PUSH1 0x40 MSTORE DUP1 SWAP4 SWAP3 SWAP2 SWAP1 DUP2 DUP2 MSTORE PUSH1 0x20 ADD DUP4 DUP4 DUP1 DUP3 DUP5 CALLDATACOPY PUSH1 0x0 DUP2 DUP5 ADD MSTORE PUSH1 0x1F NOT PUSH1 0x1F DUP3 ADD AND SWAP1 POP DUP1 DUP4 ADD SWAP3 POP POP POP POP POP POP POP SWAP2 SWAP3 SWAP2 SWAP3 SWAP1 POP POP POP PUSH2 0x535 JUMP JUMPDEST STOP JUMPDEST CALLVALUE DUP1 ISZERO PUSH2 0x209 JUMPI PUSH1 0x0 DUP1 REVERT JUMPDEST POP PUSH2 0x236 PUSH1 0x4 DUP1 CALLDATASIZE SUB PUSH1 0x20 DUP2 LT ISZERO PUSH2 0x220 JUMPI PUSH1 0x0 DUP1 REVERT JUMPDEST DUP2 ADD SWAP1 DUP1 DUP1 CALLDATALOAD SWAP1 PUSH1 0x20 ADD SWAP1 SWAP3 SWAP2 SWAP1 POP POP POP PUSH2 0x9C8 JUMP JUMPDEST PUSH1 0x40 MLOAD DUP1 DUP9 DUP2 MSTORE PUSH1 0x20 ADD DUP8 DUP2 MSTORE PUSH1 0x20 ADD DUP7 DUP2 MSTORE PUSH1 0x20 ADD DUP6 DUP2 MSTORE PUSH1 0x20 ADD DUP5 DUP2 MSTORE PUSH1 0x20 ADD DUP4 DUP2 MSTORE PUSH1 0x20 ADD DUP3 ISZERO ISZERO ISZERO ISZERO DUP2 MSTORE PUSH1 0x20 ADD SWAP8 POP POP POP POP POP POP POP POP PUSH1 0x40 MLOAD DUP1 SWAP2 SUB SWAP1 RETURN JUMPDEST PUSH2 0x2A6 PUSH1 0x4 DUP1 CALLDATASIZE SUB PUSH1 0x20 DUP2 LT ISZERO PUSH2 0x290 JUMPI PUSH1 0x0 DUP1 REVERT JUMPDEST DUP2 ADD SWAP1 DUP1 DUP1 CALLDATALOAD SWAP1 PUSH1 0x20 ADD SWAP1 SWAP3 SWAP2 SWAP1 POP POP POP PUSH2 0xBAF JUMP JUMPDEST STOP JUMPDEST CALLVALUE DUP1 ISZERO PUSH2 0x2B4 JUMPI PUSH1 0x0 DUP1 REVERT JUMPDEST POP PUSH2 0x2F1 PUSH1 0x4 DUP1 CALLDATASIZE SUB PUSH1 0x40 DUP2 LT ISZERO PUSH2 0x2CB JUMPI PUSH1 0x0 DUP1 REVERT JUMPDEST DUP2 ADD SWAP1 DUP1 DUP1 CALLDATALOAD PUSH1 0xFF AND SWAP1 PUSH1 0x20 ADD SWAP1 SWAP3 SWAP2 SWAP1 DUP1 CALLDATALOAD PUSH1 0xFF AND SWAP1 PUSH1 0x20 ADD SWAP1 SWAP3 SWAP2 SWAP1 POP POP POP PUSH2 0x1061 JUMP JUMPDEST STOP JUMPDEST CALLVALUE DUP1 ISZERO PUSH2 0x2FF JUMPI PUSH1 0x0 DUP1 REVERT JUMPDEST POP PUSH2 0x308 PUSH2 0x1372 JUMP JUMPDEST PUSH1 0x40 MLOAD DUP1 DUP3 ISZERO ISZERO ISZERO ISZERO DUP2 MSTORE PUSH1 0x20 ADD SWAP2 POP POP PUSH1 0x40 MLOAD DUP1 SWAP2 SUB SWAP1 RETURN JUMPDEST CALLVALUE DUP1 ISZERO PUSH2 0x32E JUMPI PUSH1 0x0 DUP1 REVERT JUMPDEST POP PUSH2 0x337 PUSH2 0x1461 JUMP JUMPDEST PUSH1 0x40 MLOAD DUP1 DUP3 PUSH20 0xFFFFFFFFFFFFFFFFFFFFFFFFFFFFFFFFFFFFFFFF AND PUSH20 0xFFFFFFFFFFFFFFFFFFFFFFFFFFFFFFFFFFFFFFFF AND DUP2 MSTORE PUSH1 0x20 ADD SWAP2 POP POP PUSH1 0x40 MLOAD DUP1 SWAP2 SUB SWAP1 RETURN JUMPDEST CALLVALUE DUP1 ISZERO PUSH2 0x385 JUMPI PUSH1 0x0 DUP1 REVERT JUMPDEST POP PUSH2 0x38E PUSH2 0x1486 JUMP JUMPDEST STOP JUMPDEST CALLVALUE DUP1 ISZERO PUSH2 0x39C JUMPI PUSH1 0x0 DUP1 REVERT JUMPDEST POP PUSH2 0x3A5 PUSH2 0x17B0 JUMP JUMPDEST PUSH1 0x40 MLOAD DUP1 DUP3 DUP2 MSTORE PUSH1 0x20 ADD SWAP2 POP POP PUSH1 0x40 MLOAD DUP1 SWAP2 SUB SWAP1 RETURN JUMPDEST CALLVALUE DUP1 ISZERO PUSH2 0x3C7 JUMPI PUSH1 0x0 DUP1 REVERT JUMPDEST POP PUSH2 0x3D0 PUSH2 0x1874 JUMP JUMPDEST PUSH1 0x40 MLOAD DUP1 DUP3 DUP2 MSTORE PUSH1 0x20 ADD SWAP2 POP POP PUSH1 0x40 MLOAD DUP1 SWAP2 SUB SWAP1 RETURN JUMPDEST CALLVALUE DUP1 ISZERO PUSH2 0x3F2 JUMPI PUSH1 0x0 DUP1 REVERT JUMPDEST POP PUSH2 0x3FB PUSH2 0x187A JUMP JUMPDEST PUSH1 0x40 MLOAD DUP1 DUP3 DUP2 MSTORE PUSH1 0x20 ADD SWAP2 POP POP PUSH1 0x40 MLOAD DUP1 SWAP2 SUB SWAP1 RETURN JUMPDEST CALLVALUE DUP1 ISZERO PUSH2 0x41D JUMPI PUSH1 0x0 DUP1 REVERT JUMPDEST POP PUSH2 0x426 PUSH2 0x1880 JUMP JUMPDEST STOP JUMPDEST CALLVALUE DUP1 ISZERO PUSH2 0x434 JUMPI PUSH1 0x0 DUP1 REVERT JUMPDEST POP PUSH2 0x461 PUSH1 0x4 DUP1 CALLDATASIZE SUB PUSH1 0x20 DUP2 LT ISZERO PUSH2 0x44B JUMPI PUSH1 0x0 DUP1 REVERT JUMPDEST DUP2 ADD SWAP1 DUP1 DUP1 CALLDATALOAD SWAP1 PUSH1 0x20 ADD SWAP1 SWAP3 SWAP2 SWAP1 POP POP POP PUSH2 0x19FA JUMP JUMPDEST STOP JUMPDEST CALLVALUE DUP1 ISZERO PUSH2 0x46F JUMPI PUSH1 0x0 DUP1 REVERT JUMPDEST POP PUSH2 0x49C PUSH1 0x4 DUP1 CALLDATASIZE SUB PUSH1 0x20 DUP2 LT ISZERO PUSH2 0x486 JUMPI PUSH1 0x0 DUP1 REVERT JUMPDEST DUP2 ADD SWAP1 DUP1 DUP1 CALLDATALOAD SWAP1 PUSH1 0x20 ADD SWAP1 SWAP3 SWAP2 SWAP1 POP POP POP PUSH2 0x1B08 JUMP JUMPDEST STOP JUMPDEST CALLVALUE DUP1 ISZERO PUSH2 0x4AA JUMPI PUSH1 0x0 DUP1 REVERT JUMPDEST POP PUSH2 0x4D7 PUSH1 0x4 DUP1 CALLDATASIZE SUB PUSH1 0x20 DUP2 LT ISZERO PUSH2 0x4C1 JUMPI PUSH1 0x0 DUP1 REVERT JUMPDEST DUP2 ADD SWAP1 DUP1 DUP1 CALLDATALOAD SWAP1 PUSH1 0x20 ADD SWAP1 SWAP3 SWAP2 SWAP1 POP POP POP PUSH2 0x1C16 JUMP JUMPDEST STOP JUMPDEST CALLVALUE DUP1 ISZERO PUSH2 0x4E5 JUMPI PUSH1 0x0 DUP1 REVERT JUMPDEST POP PUSH2 0x4EE PUSH2 0x1DEA JUMP JUMPDEST PUSH1 0x40 MLOAD DUP1 DUP3 DUP2 MSTORE PUSH1 0x20 ADD SWAP2 POP POP PUSH1 0x40 MLOAD DUP1 SWAP2 SUB SWAP1 RETURN JUMPDEST CALLVALUE DUP1 ISZERO PUSH2 0x510 JUMPI PUSH1 0x0 DUP1 REVERT JUMPDEST POP PUSH2 0x519 PUSH2 0x1DF0 JUMP JUMPDEST PUSH1 0x40 MLOAD DUP1 DUP3 DUP2 MSTORE PUSH1 0x20 ADD SWAP2 POP POP PUSH1 0x40 MLOAD DUP1 SWAP2 SUB SWAP1 RETURN JUMPDEST PUSH1 0x4 SLOAD DUP2 JUMP JUMPDEST PUSH1 0x3 PUSH1 0x1 SLOAD GT ISZERO PUSH2 0x59F JUMPI PUSH1 0x3 PUSH1 0x1 SLOAD SUB DUP3 LT ISZERO PUSH2 0x59E JUMPI PUSH1 0x40 MLOAD PUSH32 0x8C379A000000000000000000000000000000000000000000000000000000000 DUP2 MSTORE PUSH1 0x4 ADD DUP1 DUP1 PUSH1 0x20 ADD DUP3 DUP2 SUB DUP3 MSTORE PUSH1 0x47 DUP2 MSTORE PUSH1 0x20 ADD DUP1 PUSH2 0x2125 PUSH1 0x47 SWAP2 CODECOPY PUSH1 0x60 ADD SWAP2 POP POP PUSH1 0x40 MLOAD DUP1 SWAP2 SUB SWAP1 REVERT JUMPDEST JUMPDEST PUSH1 0x1 SLOAD DUP3 LT PUSH2 0x616 JUMPI PUSH1 0x40 MLOAD PUSH32 0x8C379A000000000000000000000000000000000000000000000000000000000 DUP2 MSTORE PUSH1 0x4 ADD DUP1 DUP1 PUSH1 0x20 ADD DUP3 DUP2 SUB DUP3 MSTORE PUSH1 0x12 DUP2 MSTORE PUSH1 0x20 ADD DUP1 PUSH32 0x5468652067616D65206E6F7420656E6465640000000000000000000000000000 DUP2 MSTORE POP PUSH1 0x20 ADD SWAP2 POP POP PUSH1 0x40 MLOAD DUP1 SWAP2 SUB SWAP1 REVERT JUMPDEST PUSH1 0x6 PUSH1 0x0 DUP4 DUP2 MSTORE PUSH1 0x20 ADD SWAP1 DUP2 MSTORE PUSH1 0x20 ADD PUSH1 0x0 KECCAK256 PUSH1 0x7 ADD PUSH1 0x0 SWAP1 SLOAD SWAP1 PUSH2 0x100 EXP SWAP1 DIV PUSH1 0xFF AND ISZERO PUSH2 0x690 JUMPI PUSH1 0x40 MLOAD PUSH32 0x8C379A000000000000000000000000000000000000000000000000000000000 DUP2 MSTORE PUSH1 0x4 ADD DUP1 DUP1 PUSH1 0x20 ADD DUP3 DUP2 SUB DUP3 MSTORE PUSH1 0x34 DUP2 MSTORE PUSH1 0x20 ADD DUP1 PUSH2 0x1FFA PUSH1 0x34 SWAP2 CODECOPY PUSH1 0x40 ADD SWAP2 POP POP PUSH1 0x40 MLOAD DUP1 SWAP2 SUB SWAP1 REVERT JUMPDEST PUSH1 0x6 PUSH1 0x0 DUP4 DUP2 MSTORE PUSH1 0x20 ADD SWAP1 DUP2 MSTORE PUSH1 0x20 ADD PUSH1 0x0 KECCAK256 PUSH1 0x0 ADD PUSH1 0x0 CALLER PUSH20 0xFFFFFFFFFFFFFFFFFFFFFFFFFFFFFFFFFFFFFFFF AND PUSH20 0xFFFFFFFFFFFFFFFFFFFFFFFFFFFFFFFFFFFFFFFF AND DUP2 MSTORE PUSH1 0x20 ADD SWAP1 DUP2 MSTORE PUSH1 0x20 ADD PUSH1 0x0 KECCAK256 PUSH1 0x2 ADD PUSH1 0x0 SWAP1 SLOAD SWAP1 PUSH2 0x100 EXP SWAP1 DIV PUSH1 0xFF AND ISZERO PUSH2 0x767 JUMPI PUSH1 0x40 MLOAD PUSH32 0x8C379A000000000000000000000000000000000000000000000000000000000 DUP2 MSTORE PUSH1 0x4 ADD DUP1 DUP1 PUSH1 0x20 ADD DUP3 DUP2 SUB DUP3 MSTORE PUSH1 0x1E DUP2 MSTORE PUSH1 0x20 ADD DUP1 PUSH32 0x506C6179657220616C726561647920726563656976652061206D6F6E65790000 DUP2 MSTORE POP PUSH1 0x20 ADD SWAP2 POP POP PUSH1 0x40 MLOAD DUP1 SWAP2 SUB SWAP1 REVERT JUMPDEST PUSH1 0x0 PUSH2 0x7BA PUSH1 0x6 PUSH1 0x0 DUP6 DUP2 MSTORE PUSH1 0x20 ADD SWAP1 DUP2 MSTORE PUSH1 0x20 ADD PUSH1 0x0 KECCAK256 PUSH1 0x2 ADD PUSH1 0x0 SWAP1 SLOAD SWAP1 PUSH2 0x100 EXP SWAP1 DIV PUSH1 0xFF AND PUSH1 0x6 PUSH1 0x0 DUP7 DUP2 MSTORE PUSH1 0x20 ADD SWAP1 DUP2 MSTORE PUSH1 0x20 ADD PUSH1 0x0 KECCAK256 PUSH1 0x2 ADD PUSH1 0x1 SWAP1 SLOAD SWAP1 PUSH2 0x100 EXP SWAP1 DIV PUSH1 0xFF AND DUP5 PUSH2 0x1E9F JUMP JUMPDEST SWAP1 POP PUSH1 0x6 PUSH1 0x0 DUP5 DUP2 MSTORE PUSH1 0x20 ADD SWAP1 DUP2 MSTORE PUSH1 0x20 ADD PUSH1 0x0 KECCAK256 PUSH1 0x0 ADD PUSH1 0x0 CALLER PUSH20 0xFFFFFFFFFFFFFFFFFFFFFFFFFFFFFFFFFFFFFFFF AND PUSH20 0xFFFFFFFFFFFFFFFFFFFFFFFFFFFFFFFFFFFFFFFF AND DUP2 MSTORE PUSH1 0x20 ADD SWAP1 DUP2 MSTORE PUSH1 0x20 ADD PUSH1 0x0 KECCAK256 PUSH1 0x0 ADD SLOAD DUP2 EQ PUSH2 0x86A JUMPI PUSH1 0x40 MLOAD PUSH32 0x8C379A000000000000000000000000000000000000000000000000000000000 DUP2 MSTORE PUSH1 0x4 ADD DUP1 DUP1 PUSH1 0x20 ADD DUP3 DUP2 SUB DUP3 MSTORE PUSH1 0x2D DUP2 MSTORE PUSH1 0x20 ADD DUP1 PUSH2 0x20AD PUSH1 0x2D SWAP2 CODECOPY PUSH1 0x40 ADD SWAP2 POP POP PUSH1 0x40 MLOAD DUP1 SWAP2 SUB SWAP1 REVERT JUMPDEST PUSH1 0x0 PUSH1 0x6 PUSH1 0x0 DUP6 DUP2 MSTORE PUSH1 0x20 ADD SWAP1 DUP2 MSTORE PUSH1 0x20 ADD PUSH1 0x0 KECCAK256 PUSH1 0x0 ADD PUSH1 0x0 CALLER PUSH20 0xFFFFFFFFFFFFFFFFFFFFFFFFFFFFFFFFFFFFFFFF AND PUSH20 0xFFFFFFFFFFFFFFFFFFFFFFFFFFFFFFFFFFFFFFFF AND DUP2 MSTORE PUSH1 0x20 ADD SWAP1 DUP2 MSTORE PUSH1 0x20 ADD PUSH1 0x0 KECCAK256 PUSH1 0x1 ADD SLOAD SWAP1 POP PUSH1 0x0 PUSH1 0x2 PUSH1 0x3 DUP4 MUL DUP2 PUSH2 0x8D4 JUMPI INVALID JUMPDEST DIV SWAP1 POP CALLER PUSH20 0xFFFFFFFFFFFFFFFFFFFFFFFFFFFFFFFFFFFFFFFF AND PUSH2 0x8FC DUP3 SWAP1 DUP2 ISZERO MUL SWAP1 PUSH1 0x40 MLOAD PUSH1 0x0 PUSH1 0x40 MLOAD DUP1 DUP4 SUB DUP2 DUP6 DUP9 DUP9 CALL SWAP4 POP POP POP POP ISZERO DUP1 ISZERO PUSH2 0x91D JUMPI RETURNDATASIZE PUSH1 0x0 DUP1 RETURNDATACOPY RETURNDATASIZE PUSH1 0x0 REVERT JUMPDEST POP DUP2 PUSH1 0x6 PUSH1 0x0 DUP8 DUP2 MSTORE PUSH1 0x20 ADD SWAP1 DUP2 MSTORE PUSH1 0x20 ADD PUSH1 0x0 KECCAK256 PUSH1 0x4 ADD PUSH1 0x0 DUP3 DUP3 SLOAD SUB SWAP3 POP POP DUP2 SWAP1 SSTORE POP DUP1 PUSH1 0x5 PUSH1 0x0 DUP3 DUP3 SLOAD SUB SWAP3 POP POP DUP2 SWAP1 SSTORE POP PUSH1 0x1 PUSH1 0x6 PUSH1 0x0 DUP8 DUP2 MSTORE PUSH1 0x20 ADD SWAP1 DUP2 MSTORE PUSH1 0x20 ADD PUSH1 0x0 KECCAK256 PUSH1 0x0 ADD PUSH1 0x0 CALLER PUSH20 0xFFFFFFFFFFFFFFFFFFFFFFFFFFFFFFFFFFFFFFFF AND PUSH20 0xFFFFFFFFFFFFFFFFFFFFFFFFFFFFFFFFFFFFFFFF AND DUP2 MSTORE PUSH1 0x20 ADD SWAP1 DUP2 MSTORE PUSH1 0x20 ADD PUSH1 0x0 KECCAK256 PUSH1 0x2 ADD PUSH1 0x0 PUSH2 0x100 EXP DUP2 SLOAD DUP2 PUSH1 0xFF MUL NOT AND SWAP1 DUP4 ISZERO ISZERO MUL OR SWAP1 SSTORE POP POP POP POP POP POP JUMP JUMPDEST PUSH1 0x0 DUP1 PUSH1 0x0 DUP1 PUSH1 0x0 DUP1 PUSH1 0x0 PUSH1 0x1 DUP9 LT ISZERO PUSH2 0xA4A JUMPI PUSH1 0x40 MLOAD PUSH32 0x8C379A000000000000000000000000000000000000000000000000000000000 DUP2 MSTORE PUSH1 0x4 ADD DUP1 DUP1 PUSH1 0x20 ADD DUP3 DUP2 SUB DUP3 MSTORE PUSH1 0x13 DUP2 MSTORE PUSH1 0x20 ADD DUP1 PUSH32 0x47616D652069642063616E6E6F74206265203000000000000000000000000000 DUP2 MSTORE POP PUSH1 0x20 ADD SWAP2 POP POP PUSH1 0x40 MLOAD DUP1 SWAP2 SUB SWAP1 REVERT JUMPDEST PUSH1 0x1 SLOAD DUP9 GT ISZERO PUSH2 0xAC2 JUMPI PUSH1 0x40 MLOAD PUSH32 0x8C379A000000000000000000000000000000000000000000000000000000000 DUP2 MSTORE PUSH1 0x4 ADD DUP1 DUP1 PUSH1 0x20 ADD DUP3 DUP2 SUB DUP3 MSTORE PUSH1 0x10 DUP2 MSTORE PUSH1 0x20 ADD DUP1 PUSH32 0x47616D65206E6F74207374617274656400000000000000000000000000000000 DUP2 MSTORE POP PUSH1 0x20 ADD SWAP2 POP POP PUSH1 0x40 MLOAD DUP1 SWAP2 SUB SWAP1 REVERT JUMPDEST PUSH1 0x6 PUSH1 0x0 DUP10 DUP2 MSTORE PUSH1 0x20 ADD SWAP1 DUP2 MSTORE PUSH1 0x20 ADD PUSH1 0x0 KECCAK256 PUSH1 0x2 ADD PUSH1 0x0 SWAP1 SLOAD SWAP1 PUSH2 0x100 EXP SWAP1 DIV PUSH1 0xFF AND PUSH1 0x6 PUSH1 0x0 DUP11 DUP2 MSTORE PUSH1 0x20 ADD SWAP1 DUP2 MSTORE PUSH1 0x20 ADD PUSH1 0x0 KECCAK256 PUSH1 0x2 ADD PUSH1 0x1 SWAP1 SLOAD SWAP1 PUSH2 0x100 EXP SWAP1 DIV PUSH1 0xFF AND PUSH1 0x6 PUSH1 0x0 DUP12 DUP2 MSTORE PUSH1 0x20 ADD SWAP1 DUP2 MSTORE PUSH1 0x20 ADD PUSH1 0x0 KECCAK256 PUSH1 0x5 ADD SLOAD PUSH1 0x6 PUSH1 0x0 DUP13 DUP2 MSTORE PUSH1 0x20 ADD SWAP1 DUP2 MSTORE PUSH1 0x20 ADD PUSH1 0x0 KECCAK256 PUSH1 0x6 ADD SLOAD PUSH1 0x6 PUSH1 0x0 DUP14 DUP2 MSTORE PUSH1 0x20 ADD SWAP1 DUP2 MSTORE PUSH1 0x20 ADD PUSH1 0x0 KECCAK256 PUSH1 0x3 ADD SLOAD PUSH1 0x6 PUSH1 0x0 DUP15 DUP2 MSTORE PUSH1 0x20 ADD SWAP1 DUP2 MSTORE PUSH1 0x20 ADD PUSH1 0x0 KECCAK256 PUSH1 0x4 ADD SLOAD PUSH1 0x6 PUSH1 0x0 DUP16 DUP2 MSTORE PUSH1 0x20 ADD SWAP1 DUP2 MSTORE PUSH1 0x20 ADD PUSH1 0x0 KECCAK256 PUSH1 0x7 ADD PUSH1 0x0 SWAP1 SLOAD SWAP1 PUSH2 0x100 EXP SWAP1 DIV PUSH1 0xFF AND DUP7 PUSH1 0xFF AND SWAP7 POP DUP6 PUSH1 0xFF AND SWAP6 POP SWAP7 POP SWAP7 POP SWAP7 POP SWAP7 POP SWAP7 POP SWAP7 POP SWAP7 POP SWAP2 SWAP4 SWAP6 SWAP8 SWAP1 SWAP3 SWAP5 SWAP7 POP JUMP JUMPDEST PUSH1 0x0 CALLER SWAP1 POP PUSH1 0x2 PUSH1 0x3 CALLVALUE MUL DUP2 PUSH2 0xBC1 JUMPI INVALID JUMPDEST DIV PUSH1 0x5 SLOAD ADD ADDRESS PUSH20 0xFFFFFFFFFFFFFFFFFFFFFFFFFFFFFFFFFFFFFFFF AND BALANCE LT ISZERO PUSH2 0xC35 JUMPI PUSH1 0x40 MLOAD PUSH32 0x8C379A000000000000000000000000000000000000000000000000000000000 DUP2 MSTORE PUSH1 0x4 ADD DUP1 DUP1 PUSH1 0x20 ADD DUP3 DUP2 SUB DUP3 MSTORE PUSH1 0x27 DUP2 MSTORE PUSH1 0x20 ADD DUP1 PUSH2 0x219F PUSH1 0x27 SWAP2 CODECOPY PUSH1 0x40 ADD SWAP2 POP POP PUSH1 0x40 MLOAD DUP1 SWAP2 SUB SWAP1 REVERT JUMPDEST PUSH1 0x0 DUP1 SWAP1 SLOAD SWAP1 PUSH2 0x100 EXP SWAP1 DIV PUSH20 0xFFFFFFFFFFFFFFFFFFFFFFFFFFFFFFFFFFFFFFFF AND PUSH20 0xFFFFFFFFFFFFFFFFFFFFFFFFFFFFFFFFFFFFFFFF AND DUP2 PUSH20 0xFFFFFFFFFFFFFFFFFFFFFFFFFFFFFFFFFFFFFFFF AND EQ ISZERO PUSH2 0xCF8 JUMPI PUSH1 0x40 MLOAD PUSH32 0x8C379A000000000000000000000000000000000000000000000000000000000 DUP2 MSTORE PUSH1 0x4 ADD DUP1 DUP1 PUSH1 0x20 ADD DUP3 DUP2 SUB DUP3 MSTORE PUSH1 0x1A DUP2 MSTORE PUSH1 0x20 ADD DUP1 PUSH32 0x4D616E616765722063616E6E6F742062657420612076616C7565000000000000 DUP2 MSTORE POP PUSH1 0x20 ADD SWAP2 POP POP PUSH1 0x40 MLOAD DUP1 SWAP2 SUB SWAP1 REVERT JUMPDEST PUSH1 0x0 DUP1 SHL PUSH1 0x6 PUSH1 0x0 PUSH1 0x1 SLOAD DUP2 MSTORE PUSH1 0x20 ADD SWAP1 DUP2 MSTORE PUSH1 0x20 ADD PUSH1 0x0 KECCAK256 PUSH1 0x0 ADD PUSH1 0x0 DUP4 PUSH20 0xFFFFFFFFFFFFFFFFFFFFFFFFFFFFFFFFFFFFFFFF AND PUSH20 0xFFFFFFFFFFFFFFFFFFFFFFFFFFFFFFFFFFFFFFFF AND DUP2 MSTORE PUSH1 0x20 ADD SWAP1 DUP2 MSTORE PUSH1 0x20 ADD PUSH1 0x0 KECCAK256 PUSH1 0x0 ADD SLOAD EQ PUSH2 0xDC8 JUMPI PUSH1 0x40 MLOAD PUSH32 0x8C379A000000000000000000000000000000000000000000000000000000000 DUP2 MSTORE PUSH1 0x4 ADD DUP1 DUP1 PUSH1 0x20 ADD DUP3 DUP2 SUB DUP3 MSTORE PUSH1 0x19 DUP2 MSTORE PUSH1 0x20 ADD DUP1 PUSH32 0x506C6179657220616C726561647920626574206E756D62657200000000000000 DUP2 MSTORE POP PUSH1 0x20 ADD SWAP2 POP POP PUSH1 0x40 MLOAD DUP1 SWAP2 SUB SWAP1 REVERT JUMPDEST PUSH1 0x6 PUSH1 0x0 PUSH1 0x1 SLOAD DUP2 MSTORE PUSH1 0x20 ADD SWAP1 DUP2 MSTORE PUSH1 0x20 ADD PUSH1 0x0 KECCAK256 PUSH1 0x5 ADD SLOAD CALLVALUE LT ISZERO PUSH2 0xE56 JUMPI PUSH1 0x40 MLOAD PUSH32 0x8C379A000000000000000000000000000000000000000000000000000000000 DUP2 MSTORE PUSH1 0x4 ADD DUP1 DUP1 PUSH1 0x20 ADD DUP3 DUP2 SUB DUP3 MSTORE PUSH1 0x1F DUP2 MSTORE PUSH1 0x20 ADD DUP1 PUSH32 0x506C6179657220626574206C657373207468656E206D696E696D756D42657400 DUP2 MSTORE POP PUSH1 0x20 ADD SWAP2 POP POP PUSH1 0x40 MLOAD DUP1 SWAP2 SUB SWAP1 REVERT JUMPDEST PUSH1 0x6 PUSH1 0x0 PUSH1 0x1 SLOAD DUP2 MSTORE PUSH1 0x20 ADD SWAP1 DUP2 MSTORE PUSH1 0x20 ADD PUSH1 0x0 KECCAK256 PUSH1 0x6 ADD SLOAD CALLVALUE GT ISZERO PUSH2 0xEE4 JUMPI PUSH1 0x40 MLOAD PUSH32 0x8C379A000000000000000000000000000000000000000000000000000000000 DUP2 MSTORE PUSH1 0x4 ADD DUP1 DUP1 PUSH1 0x20 ADD DUP3 DUP2 SUB DUP3 MSTORE PUSH1 0x1F DUP2 MSTORE PUSH1 0x20 ADD DUP1 PUSH32 0x506C6179657220626574206D6F7265207468656E206D6178696D756D42657400 DUP2 MSTORE POP PUSH1 0x20 ADD SWAP2 POP POP PUSH1 0x40 MLOAD DUP1 SWAP2 SUB SWAP1 REVERT JUMPDEST DUP2 PUSH1 0x6 PUSH1 0x0 PUSH1 0x1 SLOAD DUP2 MSTORE PUSH1 0x20 ADD SWAP1 DUP2 MSTORE PUSH1 0x20 ADD PUSH1 0x0 KECCAK256 PUSH1 0x0 ADD PUSH1 0x0 DUP4 PUSH20 0xFFFFFFFFFFFFFFFFFFFFFFFFFFFFFFFFFFFFFFFF AND PUSH20 0xFFFFFFFFFFFFFFFFFFFFFFFFFFFFFFFFFFFFFFFF AND DUP2 MSTORE PUSH1 0x20 ADD SWAP1 DUP2 MSTORE PUSH1 0x20 ADD PUSH1 0x0 KECCAK256 PUSH1 0x0 ADD DUP2 SWAP1 SSTORE POP CALLVALUE PUSH1 0x6 PUSH1 0x0 PUSH1 0x1 SLOAD DUP2 MSTORE PUSH1 0x20 ADD SWAP1 DUP2 MSTORE PUSH1 0x20 ADD PUSH1 0x0 KECCAK256 PUSH1 0x0 ADD PUSH1 0x0 DUP4 PUSH20 0xFFFFFFFFFFFFFFFFFFFFFFFFFFFFFFFFFFFFFFFF AND PUSH20 0xFFFFFFFFFFFFFFFFFFFFFFFFFFFFFFFFFFFFFFFF AND DUP2 MSTORE PUSH1 0x20 ADD SWAP1 DUP2 MSTORE PUSH1 0x20 ADD PUSH1 0x0 KECCAK256 PUSH1 0x1 ADD DUP2 SWAP1 SSTORE POP PUSH1 0x6 PUSH1 0x0 PUSH1 0x1 SLOAD DUP2 MSTORE PUSH1 0x20 ADD SWAP1 DUP2 MSTORE PUSH1 0x20 ADD PUSH1 0x0 KECCAK256 PUSH1 0x1 ADD DUP2 SWAP1 DUP1 PUSH1 0x1 DUP2 SLOAD ADD DUP1 DUP3 SSTORE DUP1 SWAP2 POP POP SWAP1 PUSH1 0x1 DUP3 SUB SWAP1 PUSH1 0x0 MSTORE PUSH1 0x20 PUSH1 0x0 KECCAK256 ADD PUSH1 0x0 SWAP1 SWAP2 SWAP3 SWAP1 SWAP2 SWAP1 SWAP2 PUSH2 0x100 EXP DUP2 SLOAD DUP2 PUSH20 0xFFFFFFFFFFFFFFFFFFFFFFFFFFFFFFFFFFFFFFFF MUL NOT AND SWAP1 DUP4 PUSH20 0xFFFFFFFFFFFFFFFFFFFFFFFFFFFFFFFFFFFFFFFF AND MUL OR SWAP1 SSTORE POP POP CALLVALUE PUSH1 0x6 PUSH1 0x0 PUSH1 0x1 SLOAD DUP2 MSTORE PUSH1 0x20 ADD SWAP1 DUP2 MSTORE PUSH1 0x20 ADD PUSH1 0x0 KECCAK256 PUSH1 0x3 ADD PUSH1 0x0 DUP3 DUP3 SLOAD ADD SWAP3 POP POP DUP2 SWAP1 SSTORE POP PUSH1 0x2 PUSH1 0x3 CALLVALUE MUL DUP2 PUSH2 0x104D JUMPI INVALID JUMPDEST DIV PUSH1 0x5 PUSH1 0x0 DUP3 DUP3 SLOAD ADD SWAP3 POP POP DUP2 SWAP1 SSTORE POP POP POP JUMP JUMPDEST PUSH1 0x0 DUP1 SWAP1 SLOAD SWAP1 PUSH2 0x100 EXP SWAP1 DIV PUSH20 0xFFFFFFFFFFFFFFFFFFFFFFFFFFFFFFFFFFFFFFFF AND PUSH20 0xFFFFFFFFFFFFFFFFFFFFFFFFFFFFFFFFFFFFFFFF AND CALLER PUSH20 0xFFFFFFFFFFFFFFFFFFFFFFFFFFFFFFFFFFFFFFFF AND EQ PUSH2 0x1106 JUMPI PUSH1 0x40 MLOAD PUSH32 0x8C379A000000000000000000000000000000000000000000000000000000000 DUP2 MSTORE PUSH1 0x4 ADD DUP1 DUP1 PUSH1 0x20 ADD DUP3 DUP2 SUB DUP3 MSTORE PUSH1 0x23 DUP2 MSTORE PUSH1 0x20 ADD DUP1 PUSH2 0x20DA PUSH1 0x23 SWAP2 CODECOPY PUSH1 0x40 ADD SWAP2 POP POP PUSH1 0x40 MLOAD DUP1 SWAP2 SUB SWAP1 REVERT JUMPDEST DUP2 DUP2 PUSH1 0x1 DUP3 PUSH1 0xFF AND LT ISZERO DUP1 ISZERO PUSH2 0x1120 JUMPI POP PUSH1 0x6 DUP3 PUSH1 0xFF AND GT ISZERO JUMPDEST DUP1 ISZERO PUSH2 0x1130 JUMPI POP PUSH1 0x1 DUP2 PUSH1 0xFF AND LT ISZERO JUMPDEST DUP1 ISZERO PUSH2 0x1140 JUMPI POP PUSH1 0x6 DUP2 PUSH1 0xFF AND GT ISZERO JUMPDEST PUSH2 0x1195 JUMPI PUSH1 0x40 MLOAD PUSH32 0x8C379A000000000000000000000000000000000000000000000000000000000 DUP2 MSTORE PUSH1 0x4 ADD DUP1 DUP1 PUSH1 0x20 ADD DUP3 DUP2 SUB DUP3 MSTORE PUSH1 0x28 DUP2 MSTORE PUSH1 0x20 ADD DUP1 PUSH2 0x20FD PUSH1 0x28 SWAP2 CODECOPY PUSH1 0x40 ADD SWAP2 POP POP PUSH1 0x40 MLOAD DUP1 SWAP2 SUB SWAP1 REVERT JUMPDEST PUSH1 0x5A PUSH1 0x4 SLOAD TIMESTAMP SUB GT PUSH2 0x120F JUMPI PUSH1 0x40 MLOAD PUSH32 0x8C379A000000000000000000000000000000000000000000000000000000000 DUP2 MSTORE PUSH1 0x4 ADD DUP1 DUP1 PUSH1 0x20 ADD DUP3 DUP2 SUB DUP3 MSTORE PUSH1 0x16 DUP2 MSTORE PUSH1 0x20 ADD DUP1 PUSH32 0x47616D6520737461727465642076657279206661737400000000000000000000 DUP2 MSTORE POP PUSH1 0x20 ADD SWAP2 POP POP PUSH1 0x40 MLOAD DUP1 SWAP2 SUB SWAP1 REVERT JUMPDEST PUSH1 0x6 PUSH1 0x0 PUSH1 0x1 SLOAD DUP2 MSTORE PUSH1 0x20 ADD SWAP1 DUP2 MSTORE PUSH1 0x20 ADD PUSH1 0x0 KECCAK256 PUSH1 0x7 ADD PUSH1 0x0 SWAP1 SLOAD SWAP1 PUSH2 0x100 EXP SWAP1 DIV PUSH1 0xFF AND PUSH2 0x12D1 JUMPI DUP4 PUSH1 0x6 PUSH1 0x0 PUSH1 0x1 SLOAD DUP2 MSTORE PUSH1 0x20 ADD SWAP1 DUP2 MSTORE PUSH1 0x20 ADD PUSH1 0x0 KECCAK256 PUSH1 0x2 ADD PUSH1 0x0 PUSH2 0x100 EXP DUP2 SLOAD DUP2 PUSH1 0xFF MUL NOT AND SWAP1 DUP4 PUSH1 0xFF AND MUL OR SWAP1 SSTORE POP DUP3 PUSH1 0x6 PUSH1 0x0 PUSH1 0x1 SLOAD DUP2 MSTORE PUSH1 0x20 ADD SWAP1 DUP2 MSTORE PUSH1 0x20 ADD PUSH1 0x0 KECCAK256 PUSH1 0x2 ADD PUSH1 0x1 PUSH2 0x100 EXP DUP2 SLOAD DUP2 PUSH1 0xFF MUL NOT AND SWAP1 DUP4 PUSH1 0xFF AND MUL OR SWAP1 SSTORE POP PUSH1 0x6 PUSH1 0x0 PUSH1 0x1 SLOAD DUP2 MSTORE PUSH1 0x20 ADD SWAP1 DUP2 MSTORE PUSH1 0x20 ADD PUSH1 0x0 KECCAK256 PUSH1 0x3 ADD SLOAD PUSH1 0x6 PUSH1 0x0 PUSH1 0x1 SLOAD DUP2 MSTORE PUSH1 0x20 ADD SWAP1 DUP2 MSTORE PUSH1 0x20 ADD PUSH1 0x0 KECCAK256 PUSH1 0x4 ADD DUP2 SWAP1 SSTORE POP JUMPDEST PUSH1 0x1 PUSH1 0x0 DUP2 SLOAD DUP1 SWAP3 SWAP2 SWAP1 PUSH1 0x1 ADD SWAP2 SWAP1 POP SSTORE POP PUSH1 0x2 SLOAD PUSH1 0x6 PUSH1 0x0 PUSH1 0x1 SLOAD DUP2 MSTORE PUSH1 0x20 ADD SWAP1 DUP2 MSTORE PUSH1 0x20 ADD PUSH1 0x0 KECCAK256 PUSH1 0x5 ADD DUP2 SWAP1 SSTORE POP PUSH1 0x3 SLOAD PUSH1 0x6 PUSH1 0x0 PUSH1 0x1 SLOAD DUP2 MSTORE PUSH1 0x20 ADD SWAP1 DUP2 MSTORE PUSH1 0x20 ADD PUSH1 0x0 KECCAK256 PUSH1 0x6 ADD DUP2 SWAP1 SSTORE POP PUSH1 0x4 PUSH1 0x1 SLOAD GT ISZERO PUSH2 0x1365 JUMPI PUSH1 0x2 PUSH1 0x3 PUSH1 0x6 PUSH1 0x0 PUSH1 0x4 PUSH1 0x1 SLOAD SUB DUP2 MSTORE PUSH1 0x20 ADD SWAP1 DUP2 MSTORE PUSH1 0x20 ADD PUSH1 0x0 KECCAK256 PUSH1 0x4 ADD SLOAD MUL DUP2 PUSH2 0x1354 JUMPI INVALID JUMPDEST DIV PUSH1 0x5 PUSH1 0x0 DUP3 DUP3 SLOAD SUB SWAP3 POP POP DUP2 SWAP1 SSTORE POP JUMPDEST TIMESTAMP PUSH1 0x4 DUP2 SWAP1 SSTORE POP POP POP POP POP JUMP JUMPDEST PUSH1 0x0 DUP1 PUSH1 0x0 SWAP1 SLOAD SWAP1 PUSH2 0x100 EXP SWAP1 DIV PUSH20 0xFFFFFFFFFFFFFFFFFFFFFFFFFFFFFFFFFFFFFFFF AND PUSH20 0xFFFFFFFFFFFFFFFFFFFFFFFFFFFFFFFFFFFFFFFF AND CALLER PUSH20 0xFFFFFFFFFFFFFFFFFFFFFFFFFFFFFFFFFFFFFFFF AND EQ PUSH2 0x1419 JUMPI PUSH1 0x40 MLOAD PUSH32 0x8C379A000000000000000000000000000000000000000000000000000000000 DUP2 MSTORE PUSH1 0x4 ADD DUP1 DUP1 PUSH1 0x20 ADD DUP3 DUP2 SUB DUP3 MSTORE PUSH1 0x23 DUP2 MSTORE PUSH1 0x20 ADD DUP1 PUSH2 0x20DA PUSH1 0x23 SWAP2 CODECOPY PUSH1 0x40 ADD SWAP2 POP POP PUSH1 0x40 MLOAD DUP1 SWAP2 SUB SWAP1 REVERT JUMPDEST PUSH1 0x2 PUSH1 0x3 PUSH1 0x6 PUSH1 0x0 PUSH1 0x1 SLOAD DUP2 MSTORE PUSH1 0x20 ADD SWAP1 DUP2 MSTORE PUSH1 0x20 ADD PUSH1 0x0 KECCAK256 PUSH1 0x6 ADD SLOAD MUL DUP2 PUSH2 0x143E JUMPI INVALID JUMPDEST DIV PUSH1 0x5 SLOAD ADDRESS PUSH20 0xFFFFFFFFFFFFFFFFFFFFFFFFFFFFFFFFFFFFFFFF AND BALANCE SUB LT SWAP1 POP SWAP1 JUMP JUMPDEST PUSH1 0x0 DUP1 SWAP1 SLOAD SWAP1 PUSH2 0x100 EXP SWAP1 DIV PUSH20 0xFFFFFFFFFFFFFFFFFFFFFFFFFFFFFFFFFFFFFFFF AND DUP2 JUMP JUMPDEST PUSH2 0x708 PUSH1 0x4 SLOAD TIMESTAMP SUB GT PUSH2 0x14E4 JUMPI PUSH1 0x40 MLOAD PUSH32 0x8C379A000000000000000000000000000000000000000000000000000000000 DUP2 MSTORE PUSH1 0x4 ADD DUP1 DUP1 PUSH1 0x20 ADD DUP3 DUP2 SUB DUP3 MSTORE PUSH1 0x42 DUP2 MSTORE PUSH1 0x20 ADD DUP1 PUSH2 0x206B PUSH1 0x42 SWAP2 CODECOPY PUSH1 0x60 ADD SWAP2 POP POP PUSH1 0x40 MLOAD DUP1 SWAP2 SUB SWAP1 REVERT JUMPDEST PUSH1 0x6 PUSH1 0x0 PUSH1 0x1 SLOAD DUP2 MSTORE PUSH1 0x20 ADD SWAP1 DUP2 MSTORE PUSH1 0x20 ADD PUSH1 0x0 KECCAK256 PUSH1 0x7 ADD PUSH1 0x0 SWAP1 SLOAD SWAP1 PUSH2 0x100 EXP SWAP1 DIV PUSH1 0xFF AND ISZERO PUSH2 0x1560 JUMPI PUSH1 0x40 MLOAD PUSH32 0x8C379A000000000000000000000000000000000000000000000000000000000 DUP2 MSTORE PUSH1 0x4 ADD DUP1 DUP1 PUSH1 0x20 ADD DUP3 DUP2 SUB DUP3 MSTORE PUSH1 0x34 DUP2 MSTORE PUSH1 0x20 ADD DUP1 PUSH2 0x1FFA PUSH1 0x34 SWAP2 CODECOPY PUSH1 0x40 ADD SWAP2 POP POP PUSH1 0x40 MLOAD DUP1 SWAP2 SUB SWAP1 REVERT JUMPDEST PUSH1 0x1 PUSH1 0x6 PUSH1 0x0 PUSH1 0x1 SLOAD DUP2 MSTORE PUSH1 0x20 ADD SWAP1 DUP2 MSTORE PUSH1 0x20 ADD PUSH1 0x0 KECCAK256 PUSH1 0x7 ADD PUSH1 0x0 PUSH2 0x100 EXP DUP2 SLOAD DUP2 PUSH1 0xFF MUL NOT AND SWAP1 DUP4 ISZERO ISZERO MUL OR SWAP1 SSTORE POP PUSH1 0x0 PUSH1 0x6 PUSH1 0x0 PUSH1 0x1 SLOAD DUP2 MSTORE PUSH1 0x20 ADD SWAP1 DUP2 MSTORE PUSH1 0x20 ADD PUSH1 0x0 KECCAK256 PUSH1 0x1 ADD SWAP1 POP PUSH1 0x0 DUP2 DUP1 SLOAD SWAP1 POP SWAP1 POP PUSH1 0x0 DUP1 SWAP1 POP JUMPDEST DUP2 DUP2 LT ISZERO PUSH2 0x1783 JUMPI DUP3 DUP2 DUP2 SLOAD DUP2 LT PUSH2 0x15D0 JUMPI INVALID JUMPDEST SWAP1 PUSH1 0x0 MSTORE PUSH1 0x20 PUSH1 0x0 KECCAK256 ADD PUSH1 0x0 SWAP1 SLOAD SWAP1 PUSH2 0x100 EXP SWAP1 DIV PUSH20 0xFFFFFFFFFFFFFFFFFFFFFFFFFFFFFFFFFFFFFFFF AND PUSH20 0xFFFFFFFFFFFFFFFFFFFFFFFFFFFFFFFFFFFFFFFF AND PUSH2 0x8FC PUSH1 0x6 PUSH1 0x0 PUSH1 0x1 SLOAD DUP2 MSTORE PUSH1 0x20 ADD SWAP1 DUP2 MSTORE PUSH1 0x20 ADD PUSH1 0x0 KECCAK256 PUSH1 0x0 ADD PUSH1 0x0 DUP7 DUP6 DUP2 SLOAD DUP2 LT PUSH2 0x163A JUMPI INVALID JUMPDEST SWAP1 PUSH1 0x0 MSTORE PUSH1 0x20 PUSH1 0x0 KECCAK256 ADD PUSH1 0x0 SWAP1 SLOAD SWAP1 PUSH2 0x100 EXP SWAP1 DIV PUSH20 0xFFFFFFFFFFFFFFFFFFFFFFFFFFFFFFFFFFFFFFFF AND PUSH20 0xFFFFFFFFFFFFFFFFFFFFFFFFFFFFFFFFFFFFFFFF AND PUSH20 0xFFFFFFFFFFFFFFFFFFFFFFFFFFFFFFFFFFFFFFFF AND DUP2 MSTORE PUSH1 0x20 ADD SWAP1 DUP2 MSTORE PUSH1 0x20 ADD PUSH1 0x0 KECCAK256 PUSH1 0x1 ADD SLOAD SWAP1 DUP2 ISZERO MUL SWAP1 PUSH1 0x40 MLOAD PUSH1 0x0 PUSH1 0x40 MLOAD DUP1 DUP4 SUB DUP2 DUP6 DUP9 DUP9 CALL SWAP4 POP POP POP POP ISZERO DUP1 ISZERO PUSH2 0x16CE JUMPI RETURNDATASIZE PUSH1 0x0 DUP1 RETURNDATACOPY RETURNDATASIZE PUSH1 0x0 REVERT JUMPDEST POP PUSH1 0x1 PUSH1 0x6 PUSH1 0x0 PUSH1 0x1 SLOAD DUP2 MSTORE PUSH1 0x20 ADD SWAP1 DUP2 MSTORE PUSH1 0x20 ADD PUSH1 0x0 KECCAK256 PUSH1 0x0 ADD PUSH1 0x0 DUP6 DUP5 DUP2 SLOAD DUP2 LT PUSH2 0x16F7 JUMPI INVALID JUMPDEST SWAP1 PUSH1 0x0 MSTORE PUSH1 0x20 PUSH1 0x0 KECCAK256 ADD PUSH1 0x0 SWAP1 SLOAD SWAP1 PUSH2 0x100 EXP SWAP1 DIV PUSH20 0xFFFFFFFFFFFFFFFFFFFFFFFFFFFFFFFFFFFFFFFF AND PUSH20 0xFFFFFFFFFFFFFFFFFFFFFFFFFFFFFFFFFFFFFFFF AND PUSH20 0xFFFFFFFFFFFFFFFFFFFFFFFFFFFFFFFFFFFFFFFF AND DUP2 MSTORE PUSH1 0x20 ADD SWAP1 DUP2 MSTORE PUSH1 0x20 ADD PUSH1 0x0 KECCAK256 PUSH1 0x2 ADD PUSH1 0x0 PUSH2 0x100 EXP DUP2 SLOAD DUP2 PUSH1 0xFF MUL NOT AND SWAP1 DUP4 ISZERO ISZERO MUL OR SWAP1 SSTORE POP DUP1 DUP1 PUSH1 0x1 ADD SWAP2 POP POP PUSH2 0x15BC JUMP JUMPDEST POP PUSH1 0x6 PUSH1 0x0 PUSH1 0x1 SLOAD DUP2 MSTORE PUSH1 0x20 ADD SWAP1 DUP2 MSTORE PUSH1 0x20 ADD PUSH1 0x0 KECCAK256 PUSH1 0x3 ADD SLOAD PUSH1 0x5 PUSH1 0x0 DUP3 DUP3 SLOAD SUB SWAP3 POP POP DUP2 SWAP1 SSTORE POP POP POP JUMP JUMPDEST PUSH1 0x0 DUP1 PUSH1 0x0 SWAP1 SLOAD SWAP1 PUSH2 0x100 EXP SWAP1 DIV PUSH20 0xFFFFFFFFFFFFFFFFFFFFFFFFFFFFFFFFFFFFFFFF AND PUSH20 0xFFFFFFFFFFFFFFFFFFFFFFFFFFFFFFFFFFFFFFFF AND CALLER PUSH20 0xFFFFFFFFFFFFFFFFFFFFFFFFFFFFFFFFFFFFFFFF AND EQ PUSH2 0x1857 JUMPI PUSH1 0x40 MLOAD PUSH32 0x8C379A000000000000000000000000000000000000000000000000000000000 DUP2 MSTORE PUSH1 0x4 ADD DUP1 DUP1 PUSH1 0x20 ADD DUP3 DUP2 SUB DUP3 MSTORE PUSH1 0x23 DUP2 MSTORE PUSH1 0x20 ADD DUP1 PUSH2 0x20DA PUSH1 0x23 SWAP2 CODECOPY PUSH1 0x40 ADD SWAP2 POP POP PUSH1 0x40 MLOAD DUP1 SWAP2 SUB SWAP1 REVERT JUMPDEST ADDRESS PUSH20 0xFFFFFFFFFFFFFFFFFFFFFFFFFFFFFFFFFFFFFFFF AND BALANCE SWAP1 POP SWAP1 JUMP JUMPDEST PUSH1 0x3 SLOAD DUP2 JUMP JUMPDEST PUSH1 0x2 SLOAD DUP2 JUMP JUMPDEST PUSH1 0x0 DUP1 SWAP1 SLOAD SWAP1 PUSH2 0x100 EXP SWAP1 DIV PUSH20 0xFFFFFFFFFFFFFFFFFFFFFFFFFFFFFFFFFFFFFFFF AND PUSH20 0xFFFFFFFFFFFFFFFFFFFFFFFFFFFFFFFFFFFFFFFF AND CALLER PUSH20 0xFFFFFFFFFFFFFFFFFFFFFFFFFFFFFFFFFFFFFFFF AND EQ PUSH2 0x1925 JUMPI PUSH1 0x40 MLOAD PUSH32 0x8C379A000000000000000000000000000000000000000000000000000000000 DUP2 MSTORE PUSH1 0x4 ADD DUP1 DUP1 PUSH1 0x20 ADD DUP3 DUP2 SUB DUP3 MSTORE PUSH1 0x23 DUP2 MSTORE PUSH1 0x20 ADD DUP1 PUSH2 0x20DA PUSH1 0x23 SWAP2 CODECOPY PUSH1 0x40 ADD SWAP2 POP POP PUSH1 0x40 MLOAD DUP1 SWAP2 SUB SWAP1 REVERT JUMPDEST PUSH1 0x5 SLOAD ADDRESS PUSH20 0xFFFFFFFFFFFFFFFFFFFFFFFFFFFFFFFFFFFFFFFF AND BALANCE GT PUSH2 0x1996 JUMPI PUSH1 0x40 MLOAD PUSH32 0x8C379A000000000000000000000000000000000000000000000000000000000 DUP2 MSTORE PUSH1 0x4 ADD DUP1 DUP1 PUSH1 0x20 ADD DUP3 DUP2 SUB DUP3 MSTORE PUSH1 0x33 DUP2 MSTORE PUSH1 0x20 ADD DUP1 PUSH2 0x216C PUSH1 0x33 SWAP2 CODECOPY PUSH1 0x40 ADD SWAP2 POP POP PUSH1 0x40 MLOAD DUP1 SWAP2 SUB SWAP1 REVERT JUMPDEST CALLER PUSH20 0xFFFFFFFFFFFFFFFFFFFFFFFFFFFFFFFFFFFFFFFF AND PUSH2 0x8FC PUSH1 0x5 SLOAD ADDRESS PUSH20 0xFFFFFFFFFFFFFFFFFFFFFFFFFFFFFFFFFFFFFFFF AND BALANCE SUB SWAP1 DUP2 ISZERO MUL SWAP1 PUSH1 0x40 MLOAD PUSH1 0x0 PUSH1 0x40 MLOAD DUP1 DUP4 SUB DUP2 DUP6 DUP9 DUP9 CALL SWAP4 POP POP POP POP ISZERO DUP1 ISZERO PUSH2 0x19F7 JUMPI RETURNDATASIZE PUSH1 0x0 DUP1 RETURNDATACOPY RETURNDATASIZE PUSH1 0x0 REVERT JUMPDEST POP JUMP JUMPDEST PUSH1 0x0 DUP1 SWAP1 SLOAD SWAP1 PUSH2 0x100 EXP SWAP1 DIV PUSH20 0xFFFFFFFFFFFFFFFFFFFFFFFFFFFFFFFFFFFFFFFF AND PUSH20 0xFFFFFFFFFFFFFFFFFFFFFFFFFFFFFFFFFFFFFFFF AND CALLER PUSH20 0xFFFFFFFFFFFFFFFFFFFFFFFFFFFFFFFFFFFFFFFF AND EQ PUSH2 0x1A9F JUMPI PUSH1 0x40 MLOAD PUSH32 0x8C379A000000000000000000000000000000000000000000000000000000000 DUP2 MSTORE PUSH1 0x4 ADD DUP1 DUP1 PUSH1 0x20 ADD DUP3 DUP2 SUB DUP3 MSTORE PUSH1 0x23 DUP2 MSTORE PUSH1 0x20 ADD DUP1 PUSH2 0x20DA PUSH1 0x23 SWAP2 CODECOPY PUSH1 0x40 ADD SWAP2 POP POP PUSH1 0x40 MLOAD DUP1 SWAP2 SUB SWAP1 REVERT JUMPDEST DUP1 PUSH1 0x3 SLOAD DUP1 DUP3 GT ISZERO PUSH2 0x1AFC JUMPI PUSH1 0x40 MLOAD PUSH32 0x8C379A000000000000000000000000000000000000000000000000000000000 DUP2 MSTORE PUSH1 0x4 ADD DUP1 DUP1 PUSH1 0x20 ADD DUP3 DUP2 SUB DUP3 MSTORE PUSH1 0x3D DUP2 MSTORE PUSH1 0x20 ADD DUP1 PUSH2 0x202E PUSH1 0x3D SWAP2 CODECOPY PUSH1 0x40 ADD SWAP2 POP POP PUSH1 0x40 MLOAD DUP1 SWAP2 SUB SWAP1 REVERT JUMPDEST DUP3 PUSH1 0x2 DUP2 SWAP1 SSTORE POP POP POP POP JUMP JUMPDEST PUSH1 0x0 DUP1 SWAP1 SLOAD SWAP1 PUSH2 0x100 EXP SWAP1 DIV PUSH20 0xFFFFFFFFFFFFFFFFFFFFFFFFFFFFFFFFFFFFFFFF AND PUSH20 0xFFFFFFFFFFFFFFFFFFFFFFFFFFFFFFFFFFFFFFFF AND CALLER PUSH20 0xFFFFFFFFFFFFFFFFFFFFFFFFFFFFFFFFFFFFFFFF AND EQ PUSH2 0x1BAD JUMPI PUSH1 0x40 MLOAD PUSH32 0x8C379A000000000000000000000000000000000000000000000000000000000 DUP2 MSTORE PUSH1 0x4 ADD DUP1 DUP1 PUSH1 0x20 ADD DUP3 DUP2 SUB DUP3 MSTORE PUSH1 0x23 DUP2 MSTORE PUSH1 0x20 ADD DUP1 PUSH2 0x20DA PUSH1 0x23 SWAP2 CODECOPY PUSH1 0x40 ADD SWAP2 POP POP PUSH1 0x40 MLOAD DUP1 SWAP2 SUB SWAP1 REVERT JUMPDEST PUSH1 0x2 SLOAD DUP2 DUP1 DUP3 GT ISZERO PUSH2 0x1C0A JUMPI PUSH1 0x40 MLOAD PUSH32 0x8C379A000000000000000000000000000000000000000000000000000000000 DUP2 MSTORE PUSH1 0x4 ADD DUP1 DUP1 PUSH1 0x20 ADD DUP3 DUP2 SUB DUP3 MSTORE PUSH1 0x3D DUP2 MSTORE PUSH1 0x20 ADD DUP1 PUSH2 0x202E PUSH1 0x3D SWAP2 CODECOPY PUSH1 0x40 ADD SWAP2 POP POP PUSH1 0x40 MLOAD DUP1 SWAP2 SUB SWAP1 REVERT JUMPDEST DUP3 PUSH1 0x3 DUP2 SWAP1 SSTORE POP POP POP POP JUMP JUMPDEST PUSH1 0x0 DUP1 SWAP1 SLOAD SWAP1 PUSH2 0x100 EXP SWAP1 DIV PUSH20 0xFFFFFFFFFFFFFFFFFFFFFFFFFFFFFFFFFFFFFFFF AND PUSH20 0xFFFFFFFFFFFFFFFFFFFFFFFFFFFFFFFFFFFFFFFF AND CALLER PUSH20 0xFFFFFFFFFFFFFFFFFFFFFFFFFFFFFFFFFFFFFFFF AND EQ PUSH2 0x1CBB JUMPI PUSH1 0x40 MLOAD PUSH32 0x8C379A000000000000000000000000000000000000000000000000000000000 DUP2 MSTORE PUSH1 0x4 ADD DUP1 DUP1 PUSH1 0x20 ADD DUP3 DUP2 SUB DUP3 MSTORE PUSH1 0x23 DUP2 MSTORE PUSH1 0x20 ADD DUP1 PUSH2 0x20DA PUSH1 0x23 SWAP2 CODECOPY PUSH1 0x40 ADD SWAP2 POP POP PUSH1 0x40 MLOAD DUP1 SWAP2 SUB SWAP1 REVERT JUMPDEST PUSH1 0x5 SLOAD ADDRESS PUSH20 0xFFFFFFFFFFFFFFFFFFFFFFFFFFFFFFFFFFFFFFFF AND BALANCE GT PUSH2 0x1D2C JUMPI PUSH1 0x40 MLOAD PUSH32 0x8C379A000000000000000000000000000000000000000000000000000000000 DUP2 MSTORE PUSH1 0x4 ADD DUP1 DUP1 PUSH1 0x20 ADD DUP3 DUP2 SUB DUP3 MSTORE PUSH1 0x33 DUP2 MSTORE PUSH1 0x20 ADD DUP1 PUSH2 0x216C PUSH1 0x33 SWAP2 CODECOPY PUSH1 0x40 ADD SWAP2 POP POP PUSH1 0x40 MLOAD DUP1 SWAP2 SUB SWAP1 REVERT JUMPDEST PUSH1 0x5 SLOAD ADDRESS PUSH20 0xFFFFFFFFFFFFFFFFFFFFFFFFFFFFFFFFFFFFFFFF AND BALANCE SUB DUP2 GT ISZERO PUSH2 0x1DA0 JUMPI PUSH1 0x40 MLOAD PUSH32 0x8C379A000000000000000000000000000000000000000000000000000000000 DUP2 MSTORE PUSH1 0x4 ADD DUP1 DUP1 PUSH1 0x20 ADD DUP3 DUP2 SUB DUP3 MSTORE PUSH1 0x25 DUP2 MSTORE PUSH1 0x20 ADD DUP1 PUSH2 0x21C6 PUSH1 0x25 SWAP2 CODECOPY PUSH1 0x40 ADD SWAP2 POP POP PUSH1 0x40 MLOAD DUP1 SWAP2 SUB SWAP1 REVERT JUMPDEST CALLER PUSH20 0xFFFFFFFFFFFFFFFFFFFFFFFFFFFFFFFFFFFFFFFF AND PUSH2 0x8FC DUP3 SWAP1 DUP2 ISZERO MUL SWAP1 PUSH1 0x40 MLOAD PUSH1 0x0 PUSH1 0x40 MLOAD DUP1 DUP4 SUB DUP2 DUP6 DUP9 DUP9 CALL SWAP4 POP POP POP POP ISZERO DUP1 ISZERO PUSH2 0x1DE6 JUMPI RETURNDATASIZE PUSH1 0x0 DUP1 RETURNDATACOPY RETURNDATASIZE PUSH1 0x0 REVERT JUMPDEST POP POP JUMP JUMPDEST PUSH1 0x1 SLOAD DUP2 JUMP JUMPDEST PUSH1 0x0 DUP1 PUSH1 0x0 SWAP1 SLOAD SWAP1 PUSH2 0x100 EXP SWAP1 DIV PUSH20 0xFFFFFFFFFFFFFFFFFFFFFFFFFFFFFFFFFFFFFFFF AND PUSH20 0xFFFFFFFFFFFFFFFFFFFFFFFFFFFFFFFFFFFFFFFF AND CALLER PUSH20 0xFFFFFFFFFFFFFFFFFFFFFFFFFFFFFFFFFFFFFFFF AND EQ PUSH2 0x1E97 JUMPI PUSH1 0x40 MLOAD PUSH32 0x8C379A000000000000000000000000000000000000000000000000000000000 DUP2 MSTORE PUSH1 0x4 ADD DUP1 DUP1 PUSH1 0x20 ADD DUP3 DUP2 SUB DUP3 MSTORE PUSH1 0x23 DUP2 MSTORE PUSH1 0x20 ADD DUP1 PUSH2 0x20DA PUSH1 0x23 SWAP2 CODECOPY PUSH1 0x40 ADD SWAP2 POP POP PUSH1 0x40 MLOAD DUP1 SWAP2 SUB SWAP1 REVERT JUMPDEST PUSH1 0x5 SLOAD SWAP1 POP SWAP1 JUMP JUMPDEST PUSH1 0x0 PUSH1 0x60 DUP3 SWAP1 POP PUSH1 0x0 DUP2 MLOAD SWAP1 POP PUSH1 0x60 PUSH1 0x2 DUP3 ADD PUSH1 0x40 MLOAD SWAP1 DUP1 DUP3 MSTORE DUP1 PUSH1 0x1F ADD PUSH1 0x1F NOT AND PUSH1 0x20 ADD DUP3 ADD PUSH1 0x40 MSTORE DUP1 ISZERO PUSH2 0x1EE4 JUMPI DUP2 PUSH1 0x20 ADD PUSH1 0x1 DUP3 MUL DUP1 CODESIZE DUP4 CODECOPY DUP1 DUP3 ADD SWAP2 POP POP SWAP1 POP JUMPDEST POP SWAP1 POP PUSH1 0x0 DUP1 SWAP1 POP JUMPDEST DUP3 DUP2 PUSH1 0xFF AND LT ISZERO PUSH2 0x1F5D JUMPI DUP4 DUP2 PUSH1 0xFF AND DUP2 MLOAD DUP2 LT PUSH2 0x1F07 JUMPI INVALID JUMPDEST PUSH1 0x20 ADD ADD MLOAD PUSH1 0xF8 SHR PUSH1 0xF8 SHL DUP3 DUP3 PUSH1 0xFF AND DUP2 MLOAD DUP2 LT PUSH2 0x1F21 JUMPI INVALID JUMPDEST PUSH1 0x20 ADD ADD SWAP1 PUSH31 0xFFFFFFFFFFFFFFFFFFFFFFFFFFFFFFFFFFFFFFFFFFFFFFFFFFFFFFFFFFFFFF NOT AND SWAP1 DUP2 PUSH1 0x0 BYTE SWAP1 MSTORE8 POP DUP1 DUP1 PUSH1 0x1 ADD SWAP2 POP POP PUSH2 0x1EED JUMP JUMPDEST POP DUP7 PUSH1 0x30 ADD PUSH1 0xF8 SHL DUP2 DUP4 DUP2 MLOAD DUP2 LT PUSH2 0x1F71 JUMPI INVALID JUMPDEST PUSH1 0x20 ADD ADD SWAP1 PUSH31 0xFFFFFFFFFFFFFFFFFFFFFFFFFFFFFFFFFFFFFFFFFFFFFFFFFFFFFFFFFFFFFF NOT AND SWAP1 DUP2 PUSH1 0x0 BYTE SWAP1 MSTORE8 POP DUP6 PUSH1 0x30 ADD PUSH1 0xF8 SHL DUP2 PUSH1 0x1 DUP5 ADD DUP2 MLOAD DUP2 LT PUSH2 0x1FB6 JUMPI INVALID JUMPDEST PUSH1 0x20 ADD ADD SWAP1 PUSH31 0xFFFFFFFFFFFFFFFFFFFFFFFFFFFFFFFFFFFFFFFFFFFFFFFFFFFFFFFFFFFFFF NOT AND SWAP1 DUP2 PUSH1 0x0 BYTE SWAP1 MSTORE8 POP DUP1 DUP1 MLOAD SWAP1 PUSH1 0x20 ADD KECCAK256 SWAP4 POP POP POP POP SWAP4 SWAP3 POP POP POP JUMP INVALID SELFBALANCE PUSH2 0x6D65 KECCAK256 PUSH24 0x6173206372617368656420616E6420706C61796572732061 PUSH13 0x72656164792072656365697665 KECCAK256 PUSH2 0x206D PUSH16 0x6E6579596F752063616E6E6F74207365 PUSH21 0x206265742062656361757365206D6178696D756D42 PUSH6 0x74206973206C PUSH6 0x737320746861 PUSH15 0x206D696E696D756D426574596F7520 PUSH4 0x616E2066 PUSH16 0x7263652072656365697665206D6F6E65 PUSH26 0x206F6E6C79206166746572203330206D696E75746573206F6620 PUSH17 0x726576696F75732067616D65596F752061 PUSH19 0x65206E6F742077696E6E6572206F7220706173 PUSH20 0x776F7264206973206E6F7420636F72726563744F PUSH15 0x6C79206D616E616765722063616E20 PUSH4 0x616C6C20 PUSH21 0x6869732066756E6374696F6E4F6E65206F66207468 PUSH6 0x206469636573 KECCAK256 PUSH2 0x7265 KECCAK256 PUSH15 0x6F74206265747765656E203120616E PUSH5 0x2036596F75 KECCAK256 PUSH4 0x616E6E6F PUSH21 0x2072656365697665206D6F6E65792066726F6D2074 PUSH9 0x652067616D65207768 PUSH10 0x636820656E646564206D PUSH16 0x7265207468616E20332067616D652061 PUSH8 0x6F436F6E74726163 PUSH21 0x2062616C616E6365206973206E6F74206D6F726520 PUSH21 0x68616E206D75737420686176652062616C616E6365 SLOAD PUSH9 0x6520636F6E74726163 PUSH21 0x20646F6573206E6F74206861766520656E6F756768 KECCAK256 PUSH14 0x6F6E65794D6F6E6579206973206D PUSH16 0x7265207468616E2063616E2062652074 PUSH19 0x616E73666572726564A265627A7A723158206D 0xce PUSH24 0x6CCB046348A6983F43F123ACDE68441EF44EFEDB165E1864 0xb9 0x2e DUP11 GASLIMIT BYTE PUSH5 0x736F6C6343 STOP SDIV 0xc STOP ORIGIN MSIZE PUSH16 0x752063616E6E6F742073657420626574 KECCAK256 PUSH3 0x656361 PUSH22 0x7365206D6178696D756D426574206973206C65737320 PUSH21 0x68616E206D696E696D756D42657400000000000000 "},"gasEstimates":{"creation":{"codeDepositCost":"1747000","executionCost":"infinite","totalCost":"infinite"},"external":{"":"186","forceReceiveMoney()":"infinite","gameId()":"493","getAllRequiredMoney()":"infinite","getContractBalance()":"infinite","getGameById(uint256)":"3010","getMustHaveBalance()":"infinite","manager()":"520","needTransferMoney()":"infinite","newGame(uint8,uint8)":"infinite","nextGameMaximumBet()":"450","nextGameMinimumBet()":"472","prevGameStartTime()":"429","receiveMoney(uint256,string)":"infinite","setNextGameMaximumBet(uint256)":"infinite","setNextGameMinimumBet(uint256)":"infinite","setUserBetAndHash(bytes32)":"infinite","transferMoneyToServer(uint256)":"infinite"},"internal":{"hashPlayerBet(uint8,uint8,string memory)":"infinite"}},"methodIdentifiers":{"forceReceiveMoney()":"5018acb9","gameId()":"d7c81b55","getAllRequiredMoney()":"b252900f","getContractBalance()":"6f9fb98a","getGameById(uint256)":"09660513","getMustHaveBalance()":"dce04fc1","manager()":"481c6a75","needTransferMoney()":"2cff8578","newGame(uint8,uint8)":"29946f8e","nextGameMaximumBet()":"84c221bc","nextGameMinimumBet()":"84fba3d5","prevGameStartTime()":"01882767","receiveMoney(uint256,string)":"026898a0","setNextGameMaximumBet(uint256)":"d1bea628","setNextGameMinimumBet(uint256)":"c9094bc5","setUserBetAndHash(bytes32)":"0d0aa44a","transferMoneyToServer(uint256)":"d65d8666"}},"userdoc":{"methods":{}}}